{
  "_format": "hh-sol-artifact-1",
  "contractName": "AddressStore",
  "sourceName": "contracts/AddressStore.sol",
  "abi": [
    {
      "inputs": [],
      "stateMutability": "nonpayable",
      "type": "constructor"
    },
    {
      "anonymous": false,
      "inputs": [
        {
          "indexed": true,
          "internalType": "address",
          "name": "previousOwner",
          "type": "address"
        },
        {
          "indexed": true,
          "internalType": "address",
          "name": "newOwner",
          "type": "address"
        }
      ],
      "name": "OwnershipTransferred",
      "type": "event"
    },
    {
      "anonymous": false,
      "inputs": [
        {
          "indexed": true,
          "internalType": "string",
          "name": "key",
          "type": "string"
        },
        {
          "indexed": false,
          "internalType": "address",
          "name": "value",
          "type": "address"
        }
      ],
      "name": "SetAddress",
      "type": "event"
    },
    {
      "inputs": [],
      "name": "FEE_VAULT",
      "outputs": [
        {
          "internalType": "string",
          "name": "",
          "type": "string"
        }
      ],
      "stateMutability": "view",
      "type": "function"
    },
    {
      "inputs": [],
      "name": "STAKE_POOL",
      "outputs": [
        {
          "internalType": "string",
          "name": "",
          "type": "string"
        }
      ],
      "stateMutability": "view",
      "type": "function"
    },
    {
      "inputs": [],
      "name": "STK_BNB",
      "outputs": [
        {
          "internalType": "string",
          "name": "",
          "type": "string"
        }
      ],
      "stateMutability": "view",
      "type": "function"
    },
    {
      "inputs": [],
      "name": "UNDELEGATION_HOLDER",
      "outputs": [
        {
          "internalType": "string",
          "name": "",
          "type": "string"
        }
      ],
      "stateMutability": "view",
      "type": "function"
    },
    {
      "inputs": [
        {
          "internalType": "string",
          "name": "key",
          "type": "string"
        }
      ],
      "name": "getAddr",
      "outputs": [
        {
          "internalType": "address",
          "name": "",
          "type": "address"
        }
      ],
      "stateMutability": "view",
      "type": "function"
    },
    {
      "inputs": [],
      "name": "getFeeVault",
      "outputs": [
        {
          "internalType": "address",
          "name": "",
          "type": "address"
        }
      ],
      "stateMutability": "view",
      "type": "function"
    },
    {
      "inputs": [],
      "name": "getStakePool",
      "outputs": [
        {
          "internalType": "address",
          "name": "",
          "type": "address"
        }
      ],
      "stateMutability": "view",
      "type": "function"
    },
    {
      "inputs": [],
      "name": "getStkBNB",
      "outputs": [
        {
          "internalType": "address",
          "name": "",
          "type": "address"
        }
      ],
      "stateMutability": "view",
      "type": "function"
    },
    {
      "inputs": [],
      "name": "getUndelegationHolder",
      "outputs": [
        {
          "internalType": "address",
          "name": "",
          "type": "address"
        }
      ],
      "stateMutability": "view",
      "type": "function"
    },
    {
      "inputs": [],
      "name": "owner",
      "outputs": [
        {
          "internalType": "address",
          "name": "",
          "type": "address"
        }
      ],
      "stateMutability": "view",
      "type": "function"
    },
    {
      "inputs": [],
      "name": "renounceOwnership",
      "outputs": [],
      "stateMutability": "nonpayable",
      "type": "function"
    },
    {
      "inputs": [
        {
          "internalType": "string",
          "name": "key",
          "type": "string"
        },
        {
          "internalType": "address",
          "name": "value",
          "type": "address"
        }
      ],
      "name": "setAddr",
      "outputs": [],
      "stateMutability": "nonpayable",
      "type": "function"
    },
    {
      "inputs": [
        {
          "internalType": "address",
          "name": "addr",
          "type": "address"
        }
      ],
      "name": "setFeeVault",
      "outputs": [],
      "stateMutability": "nonpayable",
      "type": "function"
    },
    {
      "inputs": [
        {
          "internalType": "address",
          "name": "addr",
          "type": "address"
        }
      ],
      "name": "setStakePool",
      "outputs": [],
      "stateMutability": "nonpayable",
      "type": "function"
    },
    {
      "inputs": [
        {
          "internalType": "address",
          "name": "addr",
          "type": "address"
        }
      ],
      "name": "setStkBNB",
      "outputs": [],
      "stateMutability": "nonpayable",
      "type": "function"
    },
    {
      "inputs": [
        {
          "internalType": "address",
          "name": "addr",
          "type": "address"
        }
      ],
      "name": "setUndelegationHolder",
      "outputs": [],
      "stateMutability": "nonpayable",
      "type": "function"
    },
    {
      "inputs": [
        {
          "internalType": "address",
          "name": "newOwner",
          "type": "address"
        }
      ],
      "name": "transferOwnership",
      "outputs": [],
      "stateMutability": "nonpayable",
      "type": "function"
    }
  ],
  "bytecode": "0x608060405234801561001057600080fd5b5061001a3361001f565b61006f565b600080546001600160a01b038381166001600160a01b0319831681178455604051919092169283917f8be0079c531659141344cd1fd0a4f28419497f9722a3daafe3b4186f6b6457e09190a35050565b6108788061007e6000396000f3fe608060405234801561001057600080fd5b506004361061010b5760003560e01c80638940192a116100a2578063abd544a111610071578063abd544a11461025a578063d502db971461026d578063e016dedc14610280578063ec0f7cf014610288578063f2fde38b1461029057600080fd5b80638940192a146101fc5780638da5cb5b14610223578063a591f97f14610234578063aa306f211461024757600080fd5b8063715018a6116100de578063715018a61461019b5780637d5e7c32146101a35780637ee28495146101c357806388d1161d146101f457600080fd5b8063135719ff14610110578063213b9eb81461014b5780633a0e9288146101605780633a26dc4f14610173575b600080fd5b6101356040518060400160405280600681526020016539ba35a1272160d11b81525081565b6040516101429190610794565b60405180910390f35b61015e61015936600461072a565b6102a3565b005b61015e61016e3660046106cb565b610369565b6101356040518060400160405280600981526020016814dd185ad9541bdbdb60ba1b81525081565b61015e610397565b6101ab6103cd565b6040516001600160a01b039091168152602001610142565b610135604051806040016040528060128152602001712ab73232b632b3b0ba34b7b72437b63232b960711b81525081565b6101ab6103fe565b6101356040518060400160405280600881526020016711995955985d5b1d60c21b81525081565b6000546001600160a01b03166101ab565b61015e6102423660046106cb565b610433565b61015e6102553660046106cb565b61045d565b61015e6102683660046106cb565b610491565b6101ab61027b3660046106ed565b6104b9565b6101ab6104ea565b6101ab610513565b61015e61029e3660046106cb565b61053e565b6000546001600160a01b031633146102d65760405162461bcd60e51b81526004016102cd906107c7565b60405180910390fd5b806001836040516102e79190610778565b90815260405190819003602001812080546001600160a01b03939093166001600160a01b031990931692909217909155610322908390610778565b6040519081900381206001600160a01b0383168252907fb5fa77bd6bc3d862c73fa2474bfb96a0f76d38b622c54ff2a0188be82fb965119060200160405180910390a25050565b6103946040518060400160405280600981526020016814dd185ad9541bdbdb60ba1b815250826102a3565b50565b6000546001600160a01b031633146103c15760405162461bcd60e51b81526004016102cd906107c7565b6103cb60006105d2565b565b60006103f96040518060400160405280600981526020016814dd185ad9541bdbdb60ba1b8152506104b9565b905090565b60006103f9604051806040016040528060128152602001712ab73232b632b3b0ba34b7b72437b63232b960711b8152506104b9565b6103946040518060400160405280600881526020016711995955985d5b1d60c21b815250826102a3565b610394604051806040016040528060128152602001712ab73232b632b3b0ba34b7b72437b63232b960711b815250826102a3565b6103946040518060400160405280600681526020016539ba35a1272160d11b815250826102a3565b60006001826040516104cb9190610778565b908152604051908190036020019020546001600160a01b031692915050565b60006103f96040518060400160405280600681526020016539ba35a1272160d11b8152506104b9565b60006103f96040518060400160405280600881526020016711995955985d5b1d60c21b8152506104b9565b6000546001600160a01b031633146105685760405162461bcd60e51b81526004016102cd906107c7565b6001600160a01b0381166105cd5760405162461bcd60e51b815260206004820152602660248201527f4f776e61626c653a206e6577206f776e657220697320746865207a65726f206160448201526564647265737360d01b60648201526084016102cd565b610394815b600080546001600160a01b038381166001600160a01b0319831681178455604051919092169283917f8be0079c531659141344cd1fd0a4f28419497f9722a3daafe3b4186f6b6457e09190a35050565b80356001600160a01b038116811461063957600080fd5b919050565b600082601f83011261064f57600080fd5b813567ffffffffffffffff8082111561066a5761066a61082c565b604051601f8301601f19908116603f011681019082821181831017156106925761069261082c565b816040528381528660208588010111156106ab57600080fd5b836020870160208301376000602085830101528094505050505092915050565b6000602082840312156106dd57600080fd5b6106e682610622565b9392505050565b6000602082840312156106ff57600080fd5b813567ffffffffffffffff81111561071657600080fd5b6107228482850161063e565b949350505050565b6000806040838503121561073d57600080fd5b823567ffffffffffffffff81111561075457600080fd5b6107608582860161063e565b92505061076f60208401610622565b90509250929050565b6000825161078a8184602087016107fc565b9190910192915050565b60208152600082518060208401526107b38160408501602087016107fc565b601f01601f19169190910160400192915050565b6020808252818101527f4f776e61626c653a2063616c6c6572206973206e6f7420746865206f776e6572604082015260600190565b60005b838110156108175781810151838201526020016107ff565b83811115610826576000848401525b50505050565b634e487b7160e01b600052604160045260246000fdfea2646970667358221220e27505fdaa39382f1658ab1f8389fcb25c0030ddbb89c9995dc7d14488ac301c64736f6c63430008070033",
  "linkReferences": {},
  "deployedLinkReferences": {}
}