{
  "_format": "hh-sol-artifact-1",
  "contractName": "AddressStore",
  "sourceName": "contracts/AddressStore.sol",
  "abi": [
    {
      "inputs": [],
      "stateMutability": "nonpayable",
      "type": "constructor"
    },
    {
      "anonymous": false,
      "inputs": [
        {
          "indexed": true,
          "internalType": "address",
          "name": "previousOwner",
          "type": "address"
        },
        {
          "indexed": true,
          "internalType": "address",
          "name": "newOwner",
          "type": "address"
        }
      ],
      "name": "OwnershipTransferred",
      "type": "event"
    },
    {
      "anonymous": false,
      "inputs": [
        {
          "indexed": true,
          "internalType": "string",
          "name": "key",
          "type": "string"
        },
        {
          "indexed": false,
          "internalType": "address",
          "name": "value",
          "type": "address"
        }
      ],
      "name": "SetAddress",
      "type": "event"
    },
    {
      "inputs": [],
      "name": "FEE_VAULT",
      "outputs": [
        {
          "internalType": "string",
          "name": "",
          "type": "string"
        }
      ],
      "stateMutability": "view",
      "type": "function"
    },
    {
      "inputs": [],
      "name": "STAKE_POOL",
      "outputs": [
        {
          "internalType": "string",
          "name": "",
          "type": "string"
        }
      ],
      "stateMutability": "view",
      "type": "function"
    },
    {
      "inputs": [],
      "name": "STK_BNB",
      "outputs": [
        {
          "internalType": "string",
          "name": "",
          "type": "string"
        }
      ],
      "stateMutability": "view",
      "type": "function"
    },
    {
      "inputs": [],
      "name": "TIMELOCKED_ADMIN",
      "outputs": [
        {
          "internalType": "string",
          "name": "",
          "type": "string"
        }
      ],
      "stateMutability": "view",
      "type": "function"
    },
    {
      "inputs": [],
      "name": "UNDELEGATION_HOLDER",
      "outputs": [
        {
          "internalType": "string",
          "name": "",
          "type": "string"
        }
      ],
      "stateMutability": "view",
      "type": "function"
    },
    {
      "inputs": [
        {
          "internalType": "string",
          "name": "key",
          "type": "string"
        }
      ],
      "name": "getAddr",
      "outputs": [
        {
          "internalType": "address",
          "name": "",
          "type": "address"
        }
      ],
      "stateMutability": "view",
      "type": "function"
    },
    {
      "inputs": [],
      "name": "getFeeVault",
      "outputs": [
        {
          "internalType": "address",
          "name": "",
          "type": "address"
        }
      ],
      "stateMutability": "view",
      "type": "function"
    },
    {
      "inputs": [],
      "name": "getStakePool",
      "outputs": [
        {
          "internalType": "address",
          "name": "",
          "type": "address"
        }
      ],
      "stateMutability": "view",
      "type": "function"
    },
    {
      "inputs": [],
      "name": "getStkBNB",
      "outputs": [
        {
          "internalType": "address",
          "name": "",
          "type": "address"
        }
      ],
      "stateMutability": "view",
      "type": "function"
    },
    {
      "inputs": [],
      "name": "getTimelockedAdmin",
      "outputs": [
        {
          "internalType": "address",
          "name": "",
          "type": "address"
        }
      ],
      "stateMutability": "view",
      "type": "function"
    },
    {
      "inputs": [],
      "name": "getUndelegationHolder",
      "outputs": [
        {
          "internalType": "address",
          "name": "",
          "type": "address"
        }
      ],
      "stateMutability": "view",
      "type": "function"
    },
    {
      "inputs": [],
      "name": "owner",
      "outputs": [
        {
          "internalType": "address",
          "name": "",
          "type": "address"
        }
      ],
      "stateMutability": "view",
      "type": "function"
    },
    {
      "inputs": [],
      "name": "renounceOwnership",
      "outputs": [],
      "stateMutability": "nonpayable",
      "type": "function"
    },
    {
      "inputs": [
        {
          "internalType": "string",
          "name": "key",
          "type": "string"
        },
        {
          "internalType": "address",
          "name": "value",
          "type": "address"
        }
      ],
      "name": "setAddr",
      "outputs": [],
      "stateMutability": "nonpayable",
      "type": "function"
    },
    {
      "inputs": [
        {
          "internalType": "address",
          "name": "addr",
          "type": "address"
        }
      ],
      "name": "setFeeVault",
      "outputs": [],
      "stateMutability": "nonpayable",
      "type": "function"
    },
    {
      "inputs": [
        {
          "internalType": "address",
          "name": "addr",
          "type": "address"
        }
      ],
      "name": "setStakePool",
      "outputs": [],
      "stateMutability": "nonpayable",
      "type": "function"
    },
    {
      "inputs": [
        {
          "internalType": "address",
          "name": "addr",
          "type": "address"
        }
      ],
      "name": "setStkBNB",
      "outputs": [],
      "stateMutability": "nonpayable",
      "type": "function"
    },
    {
      "inputs": [
        {
          "internalType": "address",
          "name": "addr",
          "type": "address"
        }
      ],
      "name": "setTimelockedAdmin",
      "outputs": [],
      "stateMutability": "nonpayable",
      "type": "function"
    },
    {
      "inputs": [
        {
          "internalType": "address",
          "name": "addr",
          "type": "address"
        }
      ],
      "name": "setUndelegationHolder",
      "outputs": [],
      "stateMutability": "nonpayable",
      "type": "function"
    },
    {
      "inputs": [
        {
          "internalType": "address",
          "name": "newOwner",
          "type": "address"
        }
      ],
      "name": "transferOwnership",
      "outputs": [],
      "stateMutability": "nonpayable",
      "type": "function"
    }
  ],
  "bytecode": "0x608060405234801561001057600080fd5b5061001a3361001f565b61006f565b600080546001600160a01b038381166001600160a01b0319831681178455604051919092169283917f8be0079c531659141344cd1fd0a4f28419497f9722a3daafe3b4186f6b6457e09190a35050565b6109048061007e6000396000f3fe608060405234801561001057600080fd5b506004361061012c5760003560e01c806388d1161d116100ad578063abd544a111610071578063abd544a1146102c4578063d502db97146102d7578063e016dedc146102ea578063ec0f7cf0146102f2578063f2fde38b146102fa57600080fd5b806388d1161d1461025e5780638940192a146102665780638da5cb5b1461028d578063a591f97f1461029e578063aa306f21146102b157600080fd5b80633a0e9288116100f45780633a0e9288146101e25780633a26dc4f146101f5578063715018a61461021d5780637d5e7c32146102255780637ee284951461022d57600080fd5b8063075beb641461013157806311a433b814610146578063135719ff1461018a578063213b9eb8146101af578063365388a2146101c2575b600080fd5b61014461013f36600461078c565b61030d565b005b6101746040518060400160405280600f81526020016e2a34b6b2b637b1b5b2b220b236b4b760891b81525081565b6040516101819190610855565b60405180910390f35b6101746040518060400160405280600681526020016539ba35a1272160d11b81525081565b6101446101bd3660046107eb565b610341565b6101ca6103dc565b6040516001600160a01b039091168152602001610181565b6101446101f036600461078c565b610413565b6101746040518060400160405280600981526020016814dd185ad9541bdbdb60ba1b81525081565b61014461043e565b6101ca610452565b610174604051806040016040528060128152602001712ab73232b632b3b0ba34b7b72437b63232b960711b81525081565b6101ca61047e565b6101746040518060400160405280600881526020016711995955985d5b1d60c21b81525081565b6000546001600160a01b03166101ca565b6101446102ac36600461078c565b6104b3565b6101446102bf36600461078c565b6104dd565b6101446102d236600461078c565b610511565b6101ca6102e53660046107ae565b610539565b6101ca61056a565b6101ca610593565b61014461030836600461078c565b6105be565b61033e6040518060400160405280600f81526020016e2a34b6b2b637b1b5b2b220b236b4b760891b81525082610341565b50565b610349610639565b8060018360405161035a9190610839565b90815260405190819003602001812080546001600160a01b03939093166001600160a01b031990931692909217909155610395908390610839565b6040519081900381206001600160a01b0383168252907fb5fa77bd6bc3d862c73fa2474bfb96a0f76d38b622c54ff2a0188be82fb965119060200160405180910390a25050565b600061040e6040518060400160405280600f81526020016e2a34b6b2b637b1b5b2b220b236b4b760891b815250610539565b905090565b61033e6040518060400160405280600981526020016814dd185ad9541bdbdb60ba1b81525082610341565b610446610639565b6104506000610693565b565b600061040e6040518060400160405280600981526020016814dd185ad9541bdbdb60ba1b815250610539565b600061040e604051806040016040528060128152602001712ab73232b632b3b0ba34b7b72437b63232b960711b815250610539565b61033e6040518060400160405280600881526020016711995955985d5b1d60c21b81525082610341565b61033e604051806040016040528060128152602001712ab73232b632b3b0ba34b7b72437b63232b960711b81525082610341565b61033e6040518060400160405280600681526020016539ba35a1272160d11b81525082610341565b600060018260405161054b9190610839565b908152604051908190036020019020546001600160a01b031692915050565b600061040e6040518060400160405280600681526020016539ba35a1272160d11b815250610539565b600061040e6040518060400160405280600881526020016711995955985d5b1d60c21b815250610539565b6105c6610639565b6001600160a01b0381166106305760405162461bcd60e51b815260206004820152602660248201527f4f776e61626c653a206e6577206f776e657220697320746865207a65726f206160448201526564647265737360d01b60648201526084015b60405180910390fd5b61033e81610693565b6000546001600160a01b031633146104505760405162461bcd60e51b815260206004820181905260248201527f4f776e61626c653a2063616c6c6572206973206e6f7420746865206f776e65726044820152606401610627565b600080546001600160a01b038381166001600160a01b0319831681178455604051919092169283917f8be0079c531659141344cd1fd0a4f28419497f9722a3daafe3b4186f6b6457e09190a35050565b80356001600160a01b03811681146106fa57600080fd5b919050565b600082601f83011261071057600080fd5b813567ffffffffffffffff8082111561072b5761072b6108b8565b604051601f8301601f19908116603f01168101908282118183101715610753576107536108b8565b8160405283815286602085880101111561076c57600080fd5b836020870160208301376000602085830101528094505050505092915050565b60006020828403121561079e57600080fd5b6107a7826106e3565b9392505050565b6000602082840312156107c057600080fd5b813567ffffffffffffffff8111156107d757600080fd5b6107e3848285016106ff565b949350505050565b600080604083850312156107fe57600080fd5b823567ffffffffffffffff81111561081557600080fd5b610821858286016106ff565b925050610830602084016106e3565b90509250929050565b6000825161084b818460208701610888565b9190910192915050565b6020815260008251806020840152610874816040850160208701610888565b601f01601f19169190910160400192915050565b60005b838110156108a357818101518382015260200161088b565b838111156108b2576000848401525b50505050565b634e487b7160e01b600052604160045260246000fdfea2646970667358221220793c254d8902e523c9acb45450d4a7ad8641b2ff338ee019d5e32610faaeb36864736f6c63430008070033",
  "linkReferences": {},
  "deployedLinkReferences": {}
}