{
  "_format": "hh-sol-artifact-1",
  "contractName": "FeeVault",
  "sourceName": "contracts/FeeVault.sol",
  "abi": [
    {
      "inputs": [],
      "stateMutability": "nonpayable",
      "type": "constructor"
    },
    {
      "inputs": [],
      "name": "ReceivedUnknownToken",
      "type": "error"
    },
    {
      "inputs": [
        {
          "internalType": "address",
          "name": "from",
          "type": "address"
        }
      ],
      "name": "UnexpectedSender",
      "type": "error"
    },
    {
      "inputs": [
        {
          "internalType": "address",
          "name": "to",
          "type": "address"
        }
      ],
      "name": "UnexpectedlyReceivedTokensForSomeoneElse",
      "type": "error"
    },
    {
      "inputs": [],
      "name": "UnstakingFeeTokensIsntSupported",
      "type": "error"
    },
    {
      "anonymous": false,
      "inputs": [
        {
          "indexed": false,
          "internalType": "address",
          "name": "from",
          "type": "address"
        },
        {
          "indexed": false,
          "internalType": "uint256",
          "name": "amount",
          "type": "uint256"
        }
      ],
      "name": "Deposit",
      "type": "event"
    },
    {
      "anonymous": false,
      "inputs": [
        {
          "indexed": false,
          "internalType": "uint8",
          "name": "version",
          "type": "uint8"
        }
      ],
      "name": "Initialized",
      "type": "event"
    },
    {
      "anonymous": false,
      "inputs": [
        {
          "indexed": true,
          "internalType": "address",
          "name": "previousOwner",
          "type": "address"
        },
        {
          "indexed": true,
          "internalType": "address",
          "name": "newOwner",
          "type": "address"
        }
      ],
      "name": "OwnershipTransferred",
      "type": "event"
    },
    {
      "anonymous": false,
      "inputs": [
        {
          "indexed": false,
          "internalType": "address",
          "name": "from",
          "type": "address"
        },
        {
          "indexed": false,
          "internalType": "address",
          "name": "to",
          "type": "address"
        },
        {
          "indexed": false,
          "internalType": "uint256",
          "name": "amount",
          "type": "uint256"
        }
      ],
      "name": "Withdraw",
      "type": "event"
    },
    {
      "inputs": [],
      "name": "addressStore",
      "outputs": [
        {
          "internalType": "contract IAddressStore",
          "name": "",
          "type": "address"
        }
      ],
      "stateMutability": "view",
      "type": "function"
    },
    {
      "inputs": [
        {
          "internalType": "address",
          "name": "recipient",
          "type": "address"
        },
        {
          "internalType": "uint256",
          "name": "amount",
          "type": "uint256"
        }
      ],
      "name": "claimStkBNB",
      "outputs": [],
      "stateMutability": "nonpayable",
      "type": "function"
    },
    {
      "inputs": [
        {
          "internalType": "contract IAddressStore",
          "name": "addressStore_",
          "type": "address"
        }
      ],
      "name": "initialize",
      "outputs": [],
      "stateMutability": "nonpayable",
      "type": "function"
    },
    {
      "inputs": [],
      "name": "owner",
      "outputs": [
        {
          "internalType": "address",
          "name": "",
          "type": "address"
        }
      ],
      "stateMutability": "view",
      "type": "function"
    },
    {
      "inputs": [],
      "name": "renounceOwnership",
      "outputs": [],
      "stateMutability": "nonpayable",
      "type": "function"
    },
    {
      "inputs": [
        {
          "internalType": "address",
          "name": "",
          "type": "address"
        },
        {
          "internalType": "address",
          "name": "from",
          "type": "address"
        },
        {
          "internalType": "address",
          "name": "to",
          "type": "address"
        },
        {
          "internalType": "uint256",
          "name": "amount",
          "type": "uint256"
        },
        {
          "internalType": "bytes",
          "name": "",
          "type": "bytes"
        },
        {
          "internalType": "bytes",
          "name": "",
          "type": "bytes"
        }
      ],
      "name": "tokensReceived",
      "outputs": [],
      "stateMutability": "nonpayable",
      "type": "function"
    },
    {
      "inputs": [
        {
          "internalType": "address",
          "name": "newOwner",
          "type": "address"
        }
      ],
      "name": "transferOwnership",
      "outputs": [],
      "stateMutability": "nonpayable",
      "type": "function"
    }
  ],
  "bytecode": "0x608060405234801561001057600080fd5b5061001961001e565b6100de565b600054610100900460ff161561008a5760405162461bcd60e51b815260206004820152602760248201527f496e697469616c697a61626c653a20636f6e747261637420697320696e697469604482015266616c697a696e6760c81b606482015260840160405180910390fd5b60005460ff90811610156100dc576000805460ff191660ff9081179091556040519081527f7f26b83ff96e1f2b6a682f133852f6798a09c465da95921460cefb38474024989060200160405180910390a15b565b610ade806100ed6000396000f3fe608060405234801561001057600080fd5b506004361061007c5760003560e01c80638da5cb5b1161005b5780638da5cb5b146100b1578063c4d66de8146100da578063c773c8f7146100ed578063f2fde38b146100fe57600080fd5b806223de29146100815780633445f77b14610096578063715018a6146100a9575b600080fd5b61009461008f36600461096b565b610111565b005b6100946100a4366004610a1c565b610325565b61009461052c565b6033546001600160a01b03165b6040516001600160a01b03909116815260200160405180910390f35b6100946100e836600461092a565b610540565b6065546001600160a01b03166100be565b61009461010c36600461092a565b61064f565b606560009054906101000a90046001600160a01b03166001600160a01b031663e016dedc6040518163ffffffff1660e01b815260040160206040518083038186803b15801561015f57600080fd5b505afa158015610173573d6000803e3d6000fd5b505050506040513d601f19601f82011682018060405250810190610197919061094e565b6001600160a01b0316336001600160a01b0316146101c8576040516314285aa560e11b815260040160405180910390fd5b6001600160a01b038716158015906102775750606560009054906101000a90046001600160a01b03166001600160a01b0316637d5e7c326040518163ffffffff1660e01b815260040160206040518083038186803b15801561022957600080fd5b505afa15801561023d573d6000803e3d6000fd5b505050506040513d601f19601f82011682018060405250810190610261919061094e565b6001600160a01b0316876001600160a01b031614155b156102a5576040516378d74bef60e11b81526001600160a01b03881660048201526024015b60405180910390fd5b6001600160a01b03861630146102d9576040516338a5c37560e01b81526001600160a01b038716600482015260240161029c565b604080516001600160a01b0389168152602081018790527fe1fffcc4923d04b559f4d29a8bfc6cda04eb5b0d3c460751c2402c5c5cc9109c910160405180910390a15050505050505050565b61032d6106c8565b606560009054906101000a90046001600160a01b03166001600160a01b0316637d5e7c326040518163ffffffff1660e01b815260040160206040518083038186803b15801561037b57600080fd5b505afa15801561038f573d6000803e3d6000fd5b505050506040513d601f19601f820116820180604052508101906103b3919061094e565b6001600160a01b0316826001600160a01b031614156103e55760405163e0c6806f60e01b815260040160405180910390fd5b606560009054906101000a90046001600160a01b03166001600160a01b031663e016dedc6040518163ffffffff1660e01b815260040160206040518083038186803b15801561043357600080fd5b505afa158015610447573d6000803e3d6000fd5b505050506040513d601f19601f8201168201806040525081019061046b919061094e565b604051634decdde360e11b81526001600160a01b0384811660048301526024820184905260606044830152600060648301529190911690639bd9bbc690608401600060405180830381600087803b1580156104c557600080fd5b505af11580156104d9573d6000803e3d6000fd5b5050604080513381526001600160a01b03861660208201529081018490527f9b1bfa7fa9ee420a16e124f794c35ac9f90472acc99140eb2f6447c714cad8eb925060600190505b60405180910390a15050565b6105346106c8565b61053e6000610722565b565b600054610100900460ff16158080156105605750600054600160ff909116105b8061057a5750303b15801561057a575060005460ff166001145b6105dd5760405162461bcd60e51b815260206004820152602e60248201527f496e697469616c697a61626c653a20636f6e747261637420697320616c72656160448201526d191e481a5b9a5d1a585b1a5e995960921b606482015260840161029c565b6000805460ff191660011790558015610600576000805461ff0019166101001790555b61060982610774565b801561064b576000805461ff0019169055604051600181527f7f26b83ff96e1f2b6a682f133852f6798a09c465da95921460cefb384740249890602001610520565b5050565b6106576106c8565b6001600160a01b0381166106bc5760405162461bcd60e51b815260206004820152602660248201527f4f776e61626c653a206e6577206f776e657220697320746865207a65726f206160448201526564647265737360d01b606482015260840161029c565b6106c581610722565b50565b6033546001600160a01b0316331461053e5760405162461bcd60e51b815260206004820181905260248201527f4f776e61626c653a2063616c6c6572206973206e6f7420746865206f776e6572604482015260640161029c565b603380546001600160a01b038381166001600160a01b0319831681179093556040519116919082907f8be0079c531659141344cd1fd0a4f28419497f9722a3daafe3b4186f6b6457e090600090a35050565b600054610100900460ff1661079b5760405162461bcd60e51b815260040161029c90610a48565b6107a36107b4565b6107ab6107db565b6106c58161080b565b600054610100900460ff1661053e5760405162461bcd60e51b815260040161029c90610a48565b600054610100900460ff166108025760405162461bcd60e51b815260040161029c90610a48565b61053e33610722565b600054610100900460ff166108325760405162461bcd60e51b815260040161029c90610a48565b606580546001600160a01b0319166001600160a01b0383161790556040516329965a1d60e01b815230600482018190527fb281fc8c12954d22544db45de3159a39272895b169a852b314f9cc762e44c53b60248301526044820152731820a4b7618bde71dce8cdc73aab6c95905fad24906329965a1d90606401600060405180830381600087803b1580156108c657600080fd5b505af11580156108da573d6000803e3d6000fd5b5050505050565b60008083601f8401126108f357600080fd5b50813567ffffffffffffffff81111561090b57600080fd5b60208301915083602082850101111561092357600080fd5b9250929050565b60006020828403121561093c57600080fd5b813561094781610a93565b9392505050565b60006020828403121561096057600080fd5b815161094781610a93565b60008060008060008060008060c0898b03121561098757600080fd5b883561099281610a93565b975060208901356109a281610a93565b965060408901356109b281610a93565b955060608901359450608089013567ffffffffffffffff808211156109d657600080fd5b6109e28c838d016108e1565b909650945060a08b01359150808211156109fb57600080fd5b50610a088b828c016108e1565b999c989b5096995094979396929594505050565b60008060408385031215610a2f57600080fd5b8235610a3a81610a93565b946020939093013593505050565b6020808252602b908201527f496e697469616c697a61626c653a20636f6e7472616374206973206e6f74206960408201526a6e697469616c697a696e6760a81b606082015260800190565b6001600160a01b03811681146106c557600080fdfea26469706673582212204708599c0138015ae34934f8bb11b6c42e2199fe958b44e333c3f25cbce36ff664736f6c63430008070033",
  "linkReferences": {},
  "deployedLinkReferences": {}
}