{
  "_format": "hh-sol-artifact-1",
  "contractName": "FeeVault",
  "sourceName": "contracts/FeeVault.sol",
  "abi": [
    {
      "inputs": [],
      "stateMutability": "nonpayable",
      "type": "constructor"
    },
    {
      "inputs": [],
      "name": "ReceivedUnknownToken",
      "type": "error"
    },
    {
      "inputs": [
        {
          "internalType": "address",
          "name": "from",
          "type": "address"
        }
      ],
      "name": "UnexpectedSender",
      "type": "error"
    },
    {
      "inputs": [
        {
          "internalType": "address",
          "name": "to",
          "type": "address"
        }
      ],
      "name": "UnexpectedlyReceivedTokensForSomeoneElse",
      "type": "error"
    },
    {
      "anonymous": false,
      "inputs": [
        {
          "indexed": false,
          "internalType": "address",
          "name": "from",
          "type": "address"
        },
        {
          "indexed": false,
          "internalType": "uint256",
          "name": "amount",
          "type": "uint256"
        }
      ],
      "name": "Deposit",
      "type": "event"
    },
    {
      "anonymous": false,
      "inputs": [
        {
          "indexed": false,
          "internalType": "uint8",
          "name": "version",
          "type": "uint8"
        }
      ],
      "name": "Initialized",
      "type": "event"
    },
    {
      "anonymous": false,
      "inputs": [
        {
          "indexed": true,
          "internalType": "address",
          "name": "previousOwner",
          "type": "address"
        },
        {
          "indexed": true,
          "internalType": "address",
          "name": "newOwner",
          "type": "address"
        }
      ],
      "name": "OwnershipTransferred",
      "type": "event"
    },
    {
      "anonymous": false,
      "inputs": [
        {
          "indexed": false,
          "internalType": "address",
          "name": "from",
          "type": "address"
        },
        {
          "indexed": false,
          "internalType": "address",
          "name": "to",
          "type": "address"
        },
        {
          "indexed": false,
          "internalType": "uint256",
          "name": "amount",
          "type": "uint256"
        }
      ],
      "name": "Withdraw",
      "type": "event"
    },
    {
      "inputs": [],
      "name": "addressStore",
      "outputs": [
        {
          "internalType": "contract IAddressStore",
          "name": "",
          "type": "address"
        }
      ],
      "stateMutability": "view",
      "type": "function"
    },
    {
      "inputs": [
        {
          "internalType": "address",
          "name": "recipient",
          "type": "address"
        },
        {
          "internalType": "uint256",
          "name": "amount",
          "type": "uint256"
        }
      ],
      "name": "claimStkBNB",
      "outputs": [],
      "stateMutability": "nonpayable",
      "type": "function"
    },
    {
      "inputs": [
        {
          "internalType": "contract IAddressStore",
          "name": "_addressStore",
          "type": "address"
        }
      ],
      "name": "initialize",
      "outputs": [],
      "stateMutability": "nonpayable",
      "type": "function"
    },
    {
      "inputs": [],
      "name": "owner",
      "outputs": [
        {
          "internalType": "address",
          "name": "",
          "type": "address"
        }
      ],
      "stateMutability": "view",
      "type": "function"
    },
    {
      "inputs": [],
      "name": "renounceOwnership",
      "outputs": [],
      "stateMutability": "nonpayable",
      "type": "function"
    },
    {
      "inputs": [
        {
          "internalType": "address",
          "name": "",
          "type": "address"
        },
        {
          "internalType": "address",
          "name": "from",
          "type": "address"
        },
        {
          "internalType": "address",
          "name": "to",
          "type": "address"
        },
        {
          "internalType": "uint256",
          "name": "amount",
          "type": "uint256"
        },
        {
          "internalType": "bytes",
          "name": "",
          "type": "bytes"
        },
        {
          "internalType": "bytes",
          "name": "",
          "type": "bytes"
        }
      ],
      "name": "tokensReceived",
      "outputs": [],
      "stateMutability": "nonpayable",
      "type": "function"
    },
    {
      "inputs": [
        {
          "internalType": "address",
          "name": "newOwner",
          "type": "address"
        }
      ],
      "name": "transferOwnership",
      "outputs": [],
      "stateMutability": "nonpayable",
      "type": "function"
    }
  ],
  "bytecode": "0x608060405234801561001057600080fd5b5061001961001e565b610142565b61002860ff61002b565b50565b60008054610100900460ff16156100bd578160ff16600114801561005f575061005d3061013360201b6105dc1760201c565b155b6100b55760405162461bcd60e51b815260206004820152602e6024820152600080516020610c0383398151915260448201526d191e481a5b9a5d1a585b1a5e995960921b60648201526084015b60405180910390fd5b506000919050565b60005460ff8084169116106101195760405162461bcd60e51b815260206004820152602e6024820152600080516020610c0383398151915260448201526d191e481a5b9a5d1a585b1a5e995960921b60648201526084016100ac565b506000805460ff191660ff92909216919091179055600190565b6001600160a01b03163b151590565b610ab2806101516000396000f3fe608060405234801561001057600080fd5b506004361061007c5760003560e01c80638da5cb5b1161005b5780638da5cb5b146100b1578063c4d66de8146100da578063c773c8f7146100ed578063f2fde38b1461010057600080fd5b806223de29146100815780633445f77b14610096578063715018a6146100a9575b600080fd5b61009461008f3660046108bc565b610113565b005b6100946100a436600461096d565b610327565b610094610498565b6033546001600160a01b03165b6040516001600160a01b03909116815260200160405180910390f35b6100946100e836600461087b565b6104ce565b6065546100be906001600160a01b031681565b61009461010e36600461087b565b610541565b606560009054906101000a90046001600160a01b03166001600160a01b031663e016dedc6040518163ffffffff1660e01b815260040160206040518083038186803b15801561016157600080fd5b505afa158015610175573d6000803e3d6000fd5b505050506040513d601f19601f82011682018060405250810190610199919061089f565b6001600160a01b0316336001600160a01b0316146101ca576040516314285aa560e11b815260040160405180910390fd5b6001600160a01b038716158015906102795750606560009054906101000a90046001600160a01b03166001600160a01b0316637d5e7c326040518163ffffffff1660e01b815260040160206040518083038186803b15801561022b57600080fd5b505afa15801561023f573d6000803e3d6000fd5b505050506040513d601f19601f82011682018060405250810190610263919061089f565b6001600160a01b0316876001600160a01b031614155b156102a7576040516378d74bef60e11b81526001600160a01b03881660048201526024015b60405180910390fd5b6001600160a01b03861630146102db576040516338a5c37560e01b81526001600160a01b038716600482015260240161029e565b604080516001600160a01b0389168152602081018790527fe1fffcc4923d04b559f4d29a8bfc6cda04eb5b0d3c460751c2402c5c5cc9109c910160405180910390a15050505050505050565b6033546001600160a01b031633146103515760405162461bcd60e51b815260040161029e906109e7565b606560009054906101000a90046001600160a01b03166001600160a01b031663e016dedc6040518163ffffffff1660e01b815260040160206040518083038186803b15801561039f57600080fd5b505afa1580156103b3573d6000803e3d6000fd5b505050506040513d601f19601f820116820180604052508101906103d7919061089f565b604051634decdde360e11b81526001600160a01b0384811660048301526024820184905260606044830152600060648301529190911690639bd9bbc690608401600060405180830381600087803b15801561043157600080fd5b505af1158015610445573d6000803e3d6000fd5b5050604080513381526001600160a01b03861660208201529081018490527f9b1bfa7fa9ee420a16e124f794c35ac9f90472acc99140eb2f6447c714cad8eb925060600190505b60405180910390a15050565b6033546001600160a01b031633146104c25760405162461bcd60e51b815260040161029e906109e7565b6104cc60006105eb565b565b60006104da600161063d565b905080156104f2576000805461ff0019166101001790555b6104fb826106c5565b801561053d576000805461ff0019169055604051600181527f7f26b83ff96e1f2b6a682f133852f6798a09c465da95921460cefb38474024989060200161048c565b5050565b6033546001600160a01b0316331461056b5760405162461bcd60e51b815260040161029e906109e7565b6001600160a01b0381166105d05760405162461bcd60e51b815260206004820152602660248201527f4f776e61626c653a206e6577206f776e657220697320746865207a65726f206160448201526564647265737360d01b606482015260840161029e565b6105d9816105eb565b50565b6001600160a01b03163b151590565b603380546001600160a01b038381166001600160a01b0319831681179093556040519116919082907f8be0079c531659141344cd1fd0a4f28419497f9722a3daafe3b4186f6b6457e090600090a35050565b60008054610100900460ff1615610684578160ff1660011480156106605750303b155b61067c5760405162461bcd60e51b815260040161029e90610999565b506000919050565b60005460ff8084169116106106ab5760405162461bcd60e51b815260040161029e90610999565b506000805460ff191660ff92909216919091179055600190565b600054610100900460ff166106ec5760405162461bcd60e51b815260040161029e90610a1c565b6106f4610705565b6106fc61072c565b6105d98161075c565b600054610100900460ff166104cc5760405162461bcd60e51b815260040161029e90610a1c565b600054610100900460ff166107535760405162461bcd60e51b815260040161029e90610a1c565b6104cc336105eb565b600054610100900460ff166107835760405162461bcd60e51b815260040161029e90610a1c565b606580546001600160a01b0319166001600160a01b0383161790556040516329965a1d60e01b815230600482018190527fb281fc8c12954d22544db45de3159a39272895b169a852b314f9cc762e44c53b60248301526044820152731820a4b7618bde71dce8cdc73aab6c95905fad24906329965a1d90606401600060405180830381600087803b15801561081757600080fd5b505af115801561082b573d6000803e3d6000fd5b5050505050565b60008083601f84011261084457600080fd5b50813567ffffffffffffffff81111561085c57600080fd5b60208301915083602082850101111561087457600080fd5b9250929050565b60006020828403121561088d57600080fd5b813561089881610a67565b9392505050565b6000602082840312156108b157600080fd5b815161089881610a67565b60008060008060008060008060c0898b0312156108d857600080fd5b88356108e381610a67565b975060208901356108f381610a67565b9650604089013561090381610a67565b955060608901359450608089013567ffffffffffffffff8082111561092757600080fd5b6109338c838d01610832565b909650945060a08b013591508082111561094c57600080fd5b506109598b828c01610832565b999c989b5096995094979396929594505050565b6000806040838503121561098057600080fd5b823561098b81610a67565b946020939093013593505050565b6020808252602e908201527f496e697469616c697a61626c653a20636f6e747261637420697320616c72656160408201526d191e481a5b9a5d1a585b1a5e995960921b606082015260800190565b6020808252818101527f4f776e61626c653a2063616c6c6572206973206e6f7420746865206f776e6572604082015260600190565b6020808252602b908201527f496e697469616c697a61626c653a20636f6e7472616374206973206e6f74206960408201526a6e697469616c697a696e6760a81b606082015260800190565b6001600160a01b03811681146105d957600080fdfea2646970667358221220659bcaaf86ff7d6d40795687c8a9ffff88a5ab0ee0cdb9f978c6e462be7b77ff64736f6c63430008070033496e697469616c697a61626c653a20636f6e747261637420697320616c726561",
  "linkReferences": {},
  "deployedLinkReferences": {}
}