{
  "_format": "hh-sol-artifact-1",
  "contractName": "StakePool",
  "sourceName": "contracts/StakePool.sol",
  "abi": [
    {
      "inputs": [],
      "stateMutability": "nonpayable",
      "type": "constructor"
    },
    {
      "inputs": [],
      "name": "CantClaimBeforeDeadline",
      "type": "error"
    },
    {
      "inputs": [
        {
          "internalType": "uint256",
          "name": "dust",
          "type": "uint256"
        }
      ],
      "name": "DustNotAllowed",
      "type": "error"
    },
    {
      "inputs": [
        {
          "internalType": "uint256",
          "name": "index",
          "type": "uint256"
        }
      ],
      "name": "IndexOutOfBounds",
      "type": "error"
    },
    {
      "inputs": [],
      "name": "InsufficientFundsToSatisfyClaim",
      "type": "error"
    },
    {
      "inputs": [
        {
          "internalType": "string",
          "name": "tag",
          "type": "string"
        },
        {
          "internalType": "uint256",
          "name": "expected",
          "type": "uint256"
        },
        {
          "internalType": "uint256",
          "name": "got",
          "type": "uint256"
        }
      ],
      "name": "LessThanMinimum",
      "type": "error"
    },
    {
      "inputs": [],
      "name": "NumeratorMoreThanBasis",
      "type": "error"
    },
    {
      "inputs": [],
      "name": "PausableNotPaused",
      "type": "error"
    },
    {
      "inputs": [],
      "name": "PausablePaused",
      "type": "error"
    },
    {
      "inputs": [],
      "name": "ReentrancyGuardReentrantCall",
      "type": "error"
    },
    {
      "inputs": [
        {
          "internalType": "uint256",
          "name": "from",
          "type": "uint256"
        },
        {
          "internalType": "uint256",
          "name": "to",
          "type": "uint256"
        }
      ],
      "name": "ToIndexMustBeGreaterThanFromIndex",
      "type": "error"
    },
    {
      "inputs": [],
      "name": "TokenMintingToSelfNotAllowed",
      "type": "error"
    },
    {
      "inputs": [],
      "name": "TokenTransferToSelfNotAllowed",
      "type": "error"
    },
    {
      "inputs": [
        {
          "internalType": "address",
          "name": "to",
          "type": "address"
        }
      ],
      "name": "UnexpectedlyReceivedTokensForSomeoneElse",
      "type": "error"
    },
    {
      "inputs": [],
      "name": "UnknownSender",
      "type": "error"
    },
    {
      "anonymous": false,
      "inputs": [
        {
          "indexed": true,
          "internalType": "address",
          "name": "user",
          "type": "address"
        },
        {
          "components": [
            {
              "internalType": "uint256",
              "name": "weiToReturn",
              "type": "uint256"
            },
            {
              "internalType": "uint256",
              "name": "createdAt",
              "type": "uint256"
            }
          ],
          "indexed": false,
          "internalType": "struct StakePool.ClaimRequest",
          "name": "req",
          "type": "tuple"
        },
        {
          "indexed": false,
          "internalType": "uint256",
          "name": "timestamp",
          "type": "uint256"
        }
      ],
      "name": "Claim",
      "type": "event"
    },
    {
      "anonymous": false,
      "inputs": [],
      "name": "ConfigUpdated",
      "type": "event"
    },
    {
      "anonymous": false,
      "inputs": [
        {
          "indexed": false,
          "internalType": "uint256",
          "name": "stakableBNB",
          "type": "uint256"
        }
      ],
      "name": "DelegationInitiated",
      "type": "event"
    },
    {
      "anonymous": false,
      "inputs": [
        {
          "indexed": true,
          "internalType": "address",
          "name": "user",
          "type": "address"
        },
        {
          "indexed": false,
          "internalType": "uint256",
          "name": "bnbAmount",
          "type": "uint256"
        },
        {
          "indexed": false,
          "internalType": "uint256",
          "name": "poolTokenAmount",
          "type": "uint256"
        },
        {
          "indexed": false,
          "internalType": "uint256",
          "name": "timestamp",
          "type": "uint256"
        }
      ],
      "name": "Deposit",
      "type": "event"
    },
    {
      "anonymous": false,
      "inputs": [
        {
          "indexed": false,
          "internalType": "uint256",
          "name": "bnbRewards",
          "type": "uint256"
        },
        {
          "indexed": false,
          "internalType": "uint256",
          "name": "feeTokens",
          "type": "uint256"
        }
      ],
      "name": "EpochUpdate",
      "type": "event"
    },
    {
      "anonymous": false,
      "inputs": [
        {
          "indexed": false,
          "internalType": "uint8",
          "name": "version",
          "type": "uint8"
        }
      ],
      "name": "Initialized",
      "type": "event"
    },
    {
      "anonymous": false,
      "inputs": [
        {
          "indexed": false,
          "internalType": "address",
          "name": "account",
          "type": "address"
        }
      ],
      "name": "Paused",
      "type": "event"
    },
    {
      "anonymous": false,
      "inputs": [
        {
          "indexed": true,
          "internalType": "bytes32",
          "name": "role",
          "type": "bytes32"
        },
        {
          "indexed": true,
          "internalType": "bytes32",
          "name": "previousAdminRole",
          "type": "bytes32"
        },
        {
          "indexed": true,
          "internalType": "bytes32",
          "name": "newAdminRole",
          "type": "bytes32"
        }
      ],
      "name": "RoleAdminChanged",
      "type": "event"
    },
    {
      "anonymous": false,
      "inputs": [
        {
          "indexed": true,
          "internalType": "bytes32",
          "name": "role",
          "type": "bytes32"
        },
        {
          "indexed": true,
          "internalType": "address",
          "name": "account",
          "type": "address"
        },
        {
          "indexed": true,
          "internalType": "address",
          "name": "sender",
          "type": "address"
        }
      ],
      "name": "RoleGranted",
      "type": "event"
    },
    {
      "anonymous": false,
      "inputs": [
        {
          "indexed": true,
          "internalType": "bytes32",
          "name": "role",
          "type": "bytes32"
        },
        {
          "indexed": true,
          "internalType": "address",
          "name": "account",
          "type": "address"
        },
        {
          "indexed": true,
          "internalType": "address",
          "name": "sender",
          "type": "address"
        }
      ],
      "name": "RoleRevoked",
      "type": "event"
    },
    {
      "anonymous": false,
      "inputs": [
        {
          "indexed": false,
          "internalType": "uint256",
          "name": "unbondedAmount",
          "type": "uint256"
        }
      ],
      "name": "UnbondingFinished",
      "type": "event"
    },
    {
      "anonymous": false,
      "inputs": [
        {
          "indexed": false,
          "internalType": "uint256",
          "name": "bnbUnbonding",
          "type": "uint256"
        }
      ],
      "name": "UnbondingInitiated",
      "type": "event"
    },
    {
      "anonymous": false,
      "inputs": [
        {
          "indexed": false,
          "internalType": "address",
          "name": "account",
          "type": "address"
        }
      ],
      "name": "Unpaused",
      "type": "event"
    },
    {
      "anonymous": false,
      "inputs": [
        {
          "indexed": true,
          "internalType": "address",
          "name": "user",
          "type": "address"
        },
        {
          "indexed": false,
          "internalType": "uint256",
          "name": "poolTokenAmount",
          "type": "uint256"
        },
        {
          "indexed": false,
          "internalType": "uint256",
          "name": "bnbAmount",
          "type": "uint256"
        },
        {
          "indexed": false,
          "internalType": "uint256",
          "name": "timestamp",
          "type": "uint256"
        }
      ],
      "name": "Withdraw",
      "type": "event"
    },
    {
      "inputs": [],
      "name": "BOT_ROLE",
      "outputs": [
        {
          "internalType": "bytes32",
          "name": "",
          "type": "bytes32"
        }
      ],
      "stateMutability": "view",
      "type": "function"
    },
    {
      "inputs": [],
      "name": "DEFAULT_ADMIN_ROLE",
      "outputs": [
        {
          "internalType": "bytes32",
          "name": "",
          "type": "bytes32"
        }
      ],
      "stateMutability": "view",
      "type": "function"
    },
    {
      "inputs": [],
      "name": "addressStore",
      "outputs": [
        {
          "internalType": "contract IAddressStore",
          "name": "",
          "type": "address"
        }
      ],
      "stateMutability": "view",
      "type": "function"
    },
    {
      "inputs": [],
      "name": "bnbToUnbond",
      "outputs": [
        {
          "internalType": "uint256",
          "name": "",
          "type": "uint256"
        }
      ],
      "stateMutability": "view",
      "type": "function"
    },
    {
      "inputs": [],
      "name": "bnbUnbonding",
      "outputs": [
        {
          "internalType": "uint256",
          "name": "",
          "type": "uint256"
        }
      ],
      "stateMutability": "view",
      "type": "function"
    },
    {
      "inputs": [
        {
          "internalType": "uint256",
          "name": "index",
          "type": "uint256"
        }
      ],
      "name": "claim",
      "outputs": [],
      "stateMutability": "nonpayable",
      "type": "function"
    },
    {
      "inputs": [],
      "name": "claimAll",
      "outputs": [],
      "stateMutability": "nonpayable",
      "type": "function"
    },
    {
      "inputs": [
        {
          "internalType": "address",
          "name": "",
          "type": "address"
        },
        {
          "internalType": "uint256",
          "name": "",
          "type": "uint256"
        }
      ],
      "name": "claimReqs",
      "outputs": [
        {
          "internalType": "uint256",
          "name": "weiToReturn",
          "type": "uint256"
        },
        {
          "internalType": "uint256",
          "name": "createdAt",
          "type": "uint256"
        }
      ],
      "stateMutability": "view",
      "type": "function"
    },
    {
      "inputs": [],
      "name": "claimReserve",
      "outputs": [
        {
          "internalType": "uint256",
          "name": "",
          "type": "uint256"
        }
      ],
      "stateMutability": "view",
      "type": "function"
    },
    {
      "inputs": [],
      "name": "config",
      "outputs": [
        {
          "internalType": "address",
          "name": "bcStakingWallet",
          "type": "address"
        },
        {
          "internalType": "uint256",
          "name": "minBNBDeposit",
          "type": "uint256"
        },
        {
          "internalType": "uint256",
          "name": "minTokenWithdrawal",
          "type": "uint256"
        },
        {
          "internalType": "uint256",
          "name": "cooldownPeriod",
          "type": "uint256"
        },
        {
          "components": [
            {
              "internalType": "uint256",
              "name": "reward",
              "type": "uint256"
            },
            {
              "internalType": "uint256",
              "name": "deposit",
              "type": "uint256"
            },
            {
              "internalType": "uint256",
              "name": "withdraw",
              "type": "uint256"
            }
          ],
          "internalType": "struct FeeDistribution.Data",
          "name": "fee",
          "type": "tuple"
        }
      ],
      "stateMutability": "view",
      "type": "function"
    },
    {
      "inputs": [],
      "name": "deposit",
      "outputs": [],
      "stateMutability": "payable",
      "type": "function"
    },
    {
      "inputs": [
        {
          "internalType": "uint256",
          "name": "bnbRewards",
          "type": "uint256"
        }
      ],
      "name": "epochUpdate",
      "outputs": [],
      "stateMutability": "nonpayable",
      "type": "function"
    },
    {
      "inputs": [],
      "name": "exchangeRate",
      "outputs": [
        {
          "internalType": "uint256",
          "name": "totalWei",
          "type": "uint256"
        },
        {
          "internalType": "uint256",
          "name": "poolTokenSupply",
          "type": "uint256"
        }
      ],
      "stateMutability": "view",
      "type": "function"
    },
    {
      "inputs": [
        {
          "internalType": "address",
          "name": "user",
          "type": "address"
        }
      ],
      "name": "getClaimRequestCount",
      "outputs": [
        {
          "internalType": "uint256",
          "name": "",
          "type": "uint256"
        }
      ],
      "stateMutability": "view",
      "type": "function"
    },
    {
      "inputs": [
        {
          "internalType": "address",
          "name": "user",
          "type": "address"
        },
        {
          "internalType": "uint256",
          "name": "from",
          "type": "uint256"
        },
        {
          "internalType": "uint256",
          "name": "to",
          "type": "uint256"
        }
      ],
      "name": "getPaginatedClaimRequests",
      "outputs": [
        {
          "components": [
            {
              "internalType": "uint256",
              "name": "weiToReturn",
              "type": "uint256"
            },
            {
              "internalType": "uint256",
              "name": "createdAt",
              "type": "uint256"
            }
          ],
          "internalType": "struct StakePool.ClaimRequest[]",
          "name": "",
          "type": "tuple[]"
        }
      ],
      "stateMutability": "view",
      "type": "function"
    },
    {
      "inputs": [
        {
          "internalType": "bytes32",
          "name": "role",
          "type": "bytes32"
        }
      ],
      "name": "getRoleAdmin",
      "outputs": [
        {
          "internalType": "bytes32",
          "name": "",
          "type": "bytes32"
        }
      ],
      "stateMutability": "view",
      "type": "function"
    },
    {
      "inputs": [
        {
          "internalType": "bytes32",
          "name": "role",
          "type": "bytes32"
        },
        {
          "internalType": "uint256",
          "name": "index",
          "type": "uint256"
        }
      ],
      "name": "getRoleMember",
      "outputs": [
        {
          "internalType": "address",
          "name": "",
          "type": "address"
        }
      ],
      "stateMutability": "view",
      "type": "function"
    },
    {
      "inputs": [
        {
          "internalType": "bytes32",
          "name": "role",
          "type": "bytes32"
        }
      ],
      "name": "getRoleMemberCount",
      "outputs": [
        {
          "internalType": "uint256",
          "name": "",
          "type": "uint256"
        }
      ],
      "stateMutability": "view",
      "type": "function"
    },
    {
      "inputs": [],
      "name": "getStakableBNB",
      "outputs": [
        {
          "internalType": "uint256",
          "name": "",
          "type": "uint256"
        }
      ],
      "stateMutability": "view",
      "type": "function"
    },
    {
      "inputs": [
        {
          "internalType": "bytes32",
          "name": "role",
          "type": "bytes32"
        },
        {
          "internalType": "address",
          "name": "account",
          "type": "address"
        }
      ],
      "name": "grantRole",
      "outputs": [],
      "stateMutability": "nonpayable",
      "type": "function"
    },
    {
      "inputs": [
        {
          "internalType": "bytes32",
          "name": "role",
          "type": "bytes32"
        },
        {
          "internalType": "address",
          "name": "account",
          "type": "address"
        }
      ],
      "name": "hasRole",
      "outputs": [
        {
          "internalType": "bool",
          "name": "",
          "type": "bool"
        }
      ],
      "stateMutability": "view",
      "type": "function"
    },
    {
      "inputs": [
        {
          "internalType": "contract IAddressStore",
          "name": "addressStore_",
          "type": "address"
        },
        {
          "components": [
            {
              "internalType": "address",
              "name": "bcStakingWallet",
              "type": "address"
            },
            {
              "internalType": "uint256",
              "name": "minBNBDeposit",
              "type": "uint256"
            },
            {
              "internalType": "uint256",
              "name": "minTokenWithdrawal",
              "type": "uint256"
            },
            {
              "internalType": "uint256",
              "name": "cooldownPeriod",
              "type": "uint256"
            },
            {
              "components": [
                {
                  "internalType": "uint256",
                  "name": "reward",
                  "type": "uint256"
                },
                {
                  "internalType": "uint256",
                  "name": "deposit",
                  "type": "uint256"
                },
                {
                  "internalType": "uint256",
                  "name": "withdraw",
                  "type": "uint256"
                }
              ],
              "internalType": "struct FeeDistribution.Data",
              "name": "fee",
              "type": "tuple"
            }
          ],
          "internalType": "struct Config.Data",
          "name": "config_",
          "type": "tuple"
        }
      ],
      "name": "initialize",
      "outputs": [],
      "stateMutability": "nonpayable",
      "type": "function"
    },
    {
      "inputs": [],
      "name": "initiateDelegation",
      "outputs": [
        {
          "internalType": "uint256",
          "name": "",
          "type": "uint256"
        }
      ],
      "stateMutability": "nonpayable",
      "type": "function"
    },
    {
      "inputs": [],
      "name": "pause",
      "outputs": [],
      "stateMutability": "nonpayable",
      "type": "function"
    },
    {
      "inputs": [],
      "name": "paused",
      "outputs": [
        {
          "internalType": "bool",
          "name": "",
          "type": "bool"
        }
      ],
      "stateMutability": "view",
      "type": "function"
    },
    {
      "inputs": [
        {
          "internalType": "bytes32",
          "name": "role",
          "type": "bytes32"
        },
        {
          "internalType": "address",
          "name": "account",
          "type": "address"
        }
      ],
      "name": "renounceRole",
      "outputs": [],
      "stateMutability": "nonpayable",
      "type": "function"
    },
    {
      "inputs": [
        {
          "internalType": "bytes32",
          "name": "role",
          "type": "bytes32"
        },
        {
          "internalType": "address",
          "name": "account",
          "type": "address"
        }
      ],
      "name": "revokeRole",
      "outputs": [],
      "stateMutability": "nonpayable",
      "type": "function"
    },
    {
      "inputs": [
        {
          "internalType": "bytes4",
          "name": "interfaceId",
          "type": "bytes4"
        }
      ],
      "name": "supportsInterface",
      "outputs": [
        {
          "internalType": "bool",
          "name": "",
          "type": "bool"
        }
      ],
      "stateMutability": "view",
      "type": "function"
    },
    {
      "inputs": [
        {
          "internalType": "address",
          "name": "",
          "type": "address"
        },
        {
          "internalType": "address",
          "name": "from",
          "type": "address"
        },
        {
          "internalType": "address",
          "name": "to",
          "type": "address"
        },
        {
          "internalType": "uint256",
          "name": "amount",
          "type": "uint256"
        },
        {
          "internalType": "bytes",
          "name": "",
          "type": "bytes"
        },
        {
          "internalType": "bytes",
          "name": "",
          "type": "bytes"
        }
      ],
      "name": "tokensReceived",
      "outputs": [],
      "stateMutability": "nonpayable",
      "type": "function"
    },
    {
      "inputs": [],
      "name": "unbondingFinished",
      "outputs": [],
      "stateMutability": "nonpayable",
      "type": "function"
    },
    {
      "inputs": [
        {
          "internalType": "uint256",
          "name": "_bnbUnbonding",
          "type": "uint256"
        }
      ],
      "name": "unbondingInitiated",
      "outputs": [],
      "stateMutability": "nonpayable",
      "type": "function"
    },
    {
      "inputs": [],
      "name": "unpause",
      "outputs": [],
      "stateMutability": "nonpayable",
      "type": "function"
    },
    {
      "inputs": [
        {
          "components": [
            {
              "internalType": "address",
              "name": "bcStakingWallet",
              "type": "address"
            },
            {
              "internalType": "uint256",
              "name": "minBNBDeposit",
              "type": "uint256"
            },
            {
              "internalType": "uint256",
              "name": "minTokenWithdrawal",
              "type": "uint256"
            },
            {
              "internalType": "uint256",
              "name": "cooldownPeriod",
              "type": "uint256"
            },
            {
              "components": [
                {
                  "internalType": "uint256",
                  "name": "reward",
                  "type": "uint256"
                },
                {
                  "internalType": "uint256",
                  "name": "deposit",
                  "type": "uint256"
                },
                {
                  "internalType": "uint256",
                  "name": "withdraw",
                  "type": "uint256"
                }
              ],
              "internalType": "struct FeeDistribution.Data",
              "name": "fee",
              "type": "tuple"
            }
          ],
          "internalType": "struct Config.Data",
          "name": "config_",
          "type": "tuple"
        }
      ],
      "name": "updateConfig",
      "outputs": [],
      "stateMutability": "nonpayable",
      "type": "function"
    }
  ],
  "bytecode": "0x60806040523480156200001157600080fd5b506200001c62000022565b62000152565b6200002e60ff62000031565b50565b60008054610100900460ff1615620000ca578160ff1660011480156200006a575062000068306200014360201b620016cc1760201c565b155b620000c25760405162461bcd60e51b815260206004820152602e602482015260008051602062002dbe83398151915260448201526d191e481a5b9a5d1a585b1a5e995960921b60648201526084015b60405180910390fd5b506000919050565b60005460ff808416911610620001295760405162461bcd60e51b815260206004820152602e602482015260008051602062002dbe83398151915260448201526d191e481a5b9a5d1a585b1a5e995960921b6064820152608401620000b9565b506000805460ff191660ff92909216919091179055600190565b6001600160a01b03163b151590565b612c5c80620001626000396000f3fe6080604052600436106101ed5760003560e01c80637550c0501161010d578063a217fddf116100a0578063d0e30db01161006f578063d0e30db01461060d578063d1058e5914610615578063d547741f1461062a578063f773d87d1461064a578063fa6c2f7d1461066a57600080fd5b8063a217fddf14610596578063b1503774146105ab578063c773c8f7146105cd578063ca15c873146105ed57600080fd5b80638b2bf29f116100dc5780638b2bf29f146104e85780638be78083146105085780639010d07c1461053e57806391d148541461057657600080fd5b80637550c050146103fb57806375ccc37a1461041057806379502c551461043d5780638456cb59146104d357600080fd5b80633f4ba83a116101855780635c975abb116101545780635c975abb146103975780635d97914c146103af5780636eb95940146103c557806372bd5c94146103db57600080fd5b80633f4ba83a146103375780633fe5f0541461034c57806340f63e481461036257806354cc6d9d1461038257600080fd5b80632f2ff15d116101c15780632f2ff15d146102a757806336568abe146102c7578063379607f5146102e75780633ba0b9a91461030757600080fd5b806223de29146101f257806301ffc9a7146102145780631bdac81a14610249578063248a9ca314610269575b600080fd5b3480156101fe57600080fd5b5061021261020d366004612665565b61067f565b005b34801561022057600080fd5b5061023461022f366004612804565b610821565b60405190151581526020015b60405180910390f35b34801561025557600080fd5b5061021261026436600461282e565b61084c565b34801561027557600080fd5b50610299610284366004612799565b60009081526065602052604090206001015490565b604051908152602001610240565b3480156102b357600080fd5b506102126102c23660046127b2565b6108c5565b3480156102d357600080fd5b506102126102e23660046127b2565b6108ea565b3480156102f357600080fd5b50610212610302366004612799565b610968565b34801561031357600080fd5b5060d65460d754610322919082565b60408051928352602083019190915201610240565b34801561034357600080fd5b506102126109ab565b34801561035857600080fd5b5061029960d55481565b34801561036e57600080fd5b5061021261037d366004612865565b6109ff565b34801561038e57600080fd5b50610212610a42565b3480156103a357600080fd5b5060d15460ff16610234565b3480156103bb57600080fd5b5061029960d35481565b3480156103d157600080fd5b5061029960d45481565b3480156103e757600080fd5b506102126103f6366004612799565b610bbb565b34801561040757600080fd5b50610299610df9565b34801561041c57600080fd5b5061043061042b366004612742565b610ead565b6040516102409190612971565b34801561044957600080fd5b5060ca5460cb5460cc5460cd546040805160608101825260ce54815260cf54602082015260d0549181019190915261048b946001600160a01b03169392919085565b604080516001600160a01b039096168652602080870195909552858101939093526060850191909152805160808501529182015160a0840152015160c082015260e001610240565b3480156104df57600080fd5b50610212611069565b3480156104f457600080fd5b50610212610503366004612799565b6110b9565b34801561051457600080fd5b5061029961052336600461262b565b6001600160a01b0316600090815260d8602052604090205490565b34801561054a57600080fd5b5061055e6105593660046127e2565b611139565b6040516001600160a01b039091168152602001610240565b34801561058257600080fd5b506102346105913660046127b2565b611158565b3480156105a257600080fd5b50610299600081565b3480156105b757600080fd5b50610299600080516020612c0783398151915281565b3480156105d957600080fd5b5060c95461055e906001600160a01b031681565b3480156105f957600080fd5b50610299610608366004612799565b611183565b61021261119a565b34801561062157600080fd5b50610212611458565b34801561063657600080fd5b506102126106453660046127b2565b6114c0565b34801561065657600080fd5b50610322610665366004612716565b6114e5565b34801561067657600080fd5b50610299611521565b6106876116db565b61068f6116ff565b60408051808201909152600a81526915da5d1a191c985dd85b60b21b602082015260cc54866106bf83838361172a565b60c960009054906101000a90046001600160a01b03166001600160a01b031663e016dedc6040518163ffffffff1660e01b815260040160206040518083038186803b15801561070d57600080fd5b505afa158015610721573d6000803e3d6000fd5b505050506040513d601f19601f820116820180604052508101906107459190612648565b6001600160a01b0316336001600160a01b0316146107765760405163399a77fd60e01b815260040160405180910390fd5b6001600160a01b038a1661079d5760405163eb577da760e01b815260040160405180910390fd5b6001600160a01b038a163014156107c7576040516315bddb7b60e01b815260040160405180910390fd5b6001600160a01b0389163014610800576040516338a5c37560e01b81526001600160a01b038a1660048201526024015b60405180910390fd5b61080a8a89611787565b505050610817600160d255565b5050505050505050565b60006001600160e01b03198216635a05180f60e01b1480610846575061084682611a8a565b92915050565b60006108586001611abf565b90508015610870576000805461ff0019166101001790555b61087a8383611b47565b80156108c0576000805461ff0019169055604051600181527f7f26b83ff96e1f2b6a682f133852f6798a09c465da95921460cefb38474024989060200160405180910390a15b505050565b6000828152606560205260409020600101546108e081611b78565b6108c08383611b82565b6001600160a01b038116331461095a5760405162461bcd60e51b815260206004820152602f60248201527f416363657373436f6e74726f6c3a2063616e206f6e6c792072656e6f756e636560448201526e103937b632b9903337b91039b2b63360891b60648201526084016107f7565b6109648282611ba4565b5050565b6109706116db565b6109786116ff565b61098181611bc6565b61099e57604051637e868a7360e01b815260040160405180910390fd5b6109a8600160d255565b50565b60006109b681611b78565b6109be611de5565b60d1805460ff191690556040513381527f5db9ee0a495bf2e6ff9c91a7834c1ba4fdd244a5e8aa4e537bd38aeae4b073aa906020015b60405180910390a150565b6000610a0a81611b78565b610a1560ca83611e07565b6040517ffe891c6ab12cf73707f8deb6600c12ba382e4cc31eb2b0a2754cad13075ed2d190600090a15050565b610a4a6116db565b600080516020612c07833981519152610a6281611b78565b60c954604080516388d1161d60e01b815290516000926001600160a01b0316916388d1161d916004808301926020929190829003018186803b158015610aa757600080fd5b505afa158015610abb573d6000803e3d6000fd5b505050506040513d601f19601f82011682018060405250810190610adf9190612648565b6001600160a01b03166347066d026040518163ffffffff1660e01b8152600401602060405180830381600087803b158015610b1957600080fd5b505af1158015610b2d573d6000803e3d6000fd5b505050506040513d601f19601f82011682018060405250810190610b519190612881565b90508060d46000828254610b659190612ae4565b925050819055508060d56000828254610b7e9190612a99565b90915550506040518181527f31690952e66f4ee8423e3087dcbc0687ddee8d263986b865229aee4ebdbafea5906020015b60405180910390a15050565b610bc36116db565b600080516020612c07833981519152610bdb81611b78565b60ce54600090610beb9084611e1a565b90506000818460d660000154610c019190612a99565b610c0b9190612ae4565b60d754610c189084612ac5565b610c229190612ab1565b9050610c4f604051806040016040528086815260200183815250600060d6611e369092919063ffffffff16565b60c960009054906101000a90046001600160a01b03166001600160a01b031663e016dedc6040518163ffffffff1660e01b815260040160206040518083038186803b158015610c9d57600080fd5b505afa158015610cb1573d6000803e3d6000fd5b505050506040513d601f19601f82011682018060405250810190610cd59190612648565b6001600160a01b031663dcdc7dd060c960009054906101000a90046001600160a01b03166001600160a01b031663ec0f7cf06040518163ffffffff1660e01b815260040160206040518083038186803b158015610d3157600080fd5b505afa158015610d45573d6000803e3d6000fd5b505050506040513d601f19601f82011682018060405250810190610d699190612648565b836040518363ffffffff1660e01b8152600401610d8792919061293b565b600060405180830381600087803b158015610da157600080fd5b505af1158015610db5573d6000803e3d6000fd5b505060408051878152602081018590527fcb62e14f4587604f4099c842d98789e47ebdd0ccbf6fd86a0581aa337a602eb1935001905060405180910390a150505050565b6000806110046001600160a01b031663149d14d96040518163ffffffff1660e01b815260040160206040518083038186803b158015610e3757600080fd5b505afa158015610e4b573d6000803e3d6000fd5b505050506040513d601f19601f82011682018060405250810190610e6f9190612881565b90508060d554610e7f9190612a99565b471115610ea5578060d55447610e959190612ae4565b610e9f9190612ae4565b91505090565b600091505090565b6001600160a01b038316600090815260d860205260409020546060908310610eeb5760405163112517f360e21b8152600481018490526024016107f7565b818310610f1557604051630dfc263960e01b815260048101849052602481018390526044016107f7565b6001600160a01b038416600090815260d86020526040902054821115610f51576001600160a01b038416600090815260d8602052604090205491505b6000610f5d8484612ae4565b67ffffffffffffffff811115610f7557610f75612bdb565b604051908082528060200260200182016040528015610fba57816020015b6040805180820190915260008082526020820152815260200190600190039081610f935790505b50905060005b610fca8585612ae4565b811015611060576001600160a01b038616600090815260d860205260409020610ff38287612a99565b8154811061100357611003612bc5565b90600052602060002090600202016040518060400160405290816000820154815260200160018201548152505082828151811061104257611042612bc5565b6020026020010181905250808061105890612b3e565b915050610fc0565b50949350505050565b600061107481611b78565b61107c6116db565b60d1805460ff191660011790556040513381527f62e78cea01bee320cd4e420270b5ea74000d11b0c9f74754ebdbfc544b05a258906020016109f4565b6110c16116db565b600080516020612c078339815191526110d981611b78565b8160d360008282546110eb9190612ae4565b925050819055508160d460008282546111049190612a99565b90915550506040518281527ffcfebef86ea31f185fe5d81c5fe96ba3835d0e293f58bb5d33907c3c1522ba8790602001610baf565b60008281526097602052604081206111519083611ec9565b9392505050565b60009182526065602090815260408084206001600160a01b0393909316845291905290205460ff1690565b600081815260976020526040812061084690611ed5565b6111a26116db565b6111aa6116ff565b60408051808201909152600781526611195c1bdcda5d60ca1b602082015260cb54346111d783838361172a565b3460006111e560d683611edf565b60cf549091506000906111f89083611e1a565b905060006112068284612ae4565b9050611233604051806040016040528086815260200185815250600060d6611e369092919063ffffffff16565b60c95460408051633805b7b760e21b815290516000926001600160a01b03169163e016dedc916004808301926020929190829003018186803b15801561127857600080fd5b505afa15801561128c573d6000803e3d6000fd5b505050506040513d601f19601f820116820180604052508101906112b09190612648565b604051630dcdc7dd60e41b81529091506001600160a01b0382169063dcdc7dd0906112e1903390869060040161293b565b600060405180830381600087803b1580156112fb57600080fd5b505af115801561130f573d6000803e3d6000fd5b50505050600083111561140257806001600160a01b031663dcdc7dd060c960009054906101000a90046001600160a01b03166001600160a01b031663ec0f7cf06040518163ffffffff1660e01b815260040160206040518083038186803b15801561137957600080fd5b505afa15801561138d573d6000803e3d6000fd5b505050506040513d601f19601f820116820180604052508101906113b19190612648565b856040518363ffffffff1660e01b81526004016113cf92919061293b565b600060405180830381600087803b1580156113e957600080fd5b505af11580156113fd573d6000803e3d6000fd5b505050505b60408051348152602081018490524281830152905133917f36af321ec8d3c75236829c5317affd40ddb308863a1236d2d277a4025cccee1e919081900360600190a25050505050505050611456600160d255565b565b6114606116db565b6114686116ff565b33600090815260d86020526040812054905b818110156114b45761148b81611bc6565b156114a2578161149a81612b27565b92505061147a565b806114ac81612b3e565b91505061147a565b5050611456600160d255565b6000828152606560205260409020600101546114db81611b78565b6108c08383611ba4565b60d8602052816000526040600020818154811061150157600080fd5b600091825260209091206002909102018054600190910154909250905082565b600061152b6116db565b600080516020612c0783398151915261154381611b78565b60006110046001600160a01b031663149d14d96040518163ffffffff1660e01b815260040160206040518083038186803b15801561158057600080fd5b505afa158015611594573d6000803e3d6000fd5b505050506040513d601f19601f820116820180604052508101906115b89190612881565b905060006115c4610df9565b905080156116925761100463aa7415f56115de8484612a99565b60ca546000906001600160a01b0316856115fa42610e10612a99565b6040516001600160e01b031960e088901b1681526001600160a01b039485166004820152939092166024840152604483015267ffffffffffffffff1660648201526084016020604051808303818588803b15801561165757600080fd5b505af115801561166b573d6000803e3d6000fd5b50505050506040513d601f19601f820116820180604052508101906116909190612777565b505b6040518181527f2ca01315053cca0f4d111bf98e740fe5c02bc603936c60659c8502e644c2e7739060200160405180910390a19250505090565b6001600160a01b03163b151590565b60d15460ff16156114565760405163928dfa7760e01b815260040160405180910390fd5b600260d254141561172357604051633ee5aeb560e01b815260040160405180910390fd5b600260d255565b8181101561175157828282604051631a14281160e01b81526004016107f7939291906129db565b600061175d8383612b59565b9050801561178157604051634301c31b60e01b8152600481018290526024016107f7565b50505050565b60d0546000906117979083611e1a565b905060006117a58284612ae4565b905060006117b460d683611f0f565b6001600160a01b038616600090815260d86020908152604080832081518083019092528482524282840190815281546001818101845592865293852092516002909402909201928355905191015560d380549293508392909190611819908490612a99565b909155505060408051808201909152818152602081018390526118409060d6906001611e36565b60c95460408051633805b7b760e21b815290516000926001600160a01b03169163e016dedc916004808301926020929190829003018186803b15801561188557600080fd5b505afa158015611899573d6000803e3d6000fd5b505050506040513d601f19601f820116820180604052508101906118bd9190612648565b6040805163fe9d930360e01b8152600481018690526024810191909152600060448201529091506001600160a01b0382169063fe9d930390606401600060405180830381600087803b15801561191257600080fd5b505af1158015611926573d6000803e3d6000fd5b505050506000841115611a3757806001600160a01b0316639bd9bbc660c960009054906101000a90046001600160a01b03166001600160a01b031663ec0f7cf06040518163ffffffff1660e01b815260040160206040518083038186803b15801561199057600080fd5b505afa1580156119a4573d6000803e3d6000fd5b505050506040513d601f19601f820116820180604052508101906119c89190612648565b6040516001600160e01b031960e084901b1681526001600160a01b039091166004820152602481018790526060604482015260006064820152608401600060405180830381600087803b158015611a1e57600080fd5b505af1158015611a32573d6000803e3d6000fd5b505050505b6040805186815260208101849052428183015290516001600160a01b038816917f02f25270a4d87bea75db541cdfe559334a275b4a233520ed6c0a2429667cca94919081900360600190a2505050505050565b60006001600160e01b03198216637965db0b60e01b148061084657506301ffc9a760e01b6001600160e01b0319831614610846565b60008054610100900460ff1615611b06578160ff166001148015611ae25750303b155b611afe5760405162461bcd60e51b81526004016107f790612a00565b506000919050565b60005460ff808416911610611b2d5760405162461bcd60e51b81526004016107f790612a00565b506000805460ff191660ff92909216919091179055600190565b600054610100900460ff16611b6e5760405162461bcd60e51b81526004016107f790612a4e565b6109648282611f57565b6109a8813361206e565b611b8c82826120d2565b60008281526097602052604090206108c09082612158565b611bae828261216d565b60008281526097602052604090206108c090826121d4565b33600090815260d860205260408120548210611bf85760405163112517f360e21b8152600481018390526024016107f7565b33600090815260d860205260408120805484908110611c1957611c19612bc5565b9060005260206000209060020201604051806040016040529081600082015481526020016001820154815250509050611c51816121e9565b611c5e5750600092915050565b8051471015611c805760405163e723ea5960e01b815260040160405180910390fd5b805160d58054600090611c94908490612ae4565b909155505033600090815260d8602052604090208054611cb690600190612ae4565b81548110611cc657611cc6612bc5565b906000526020600020906002020160d86000336001600160a01b03166001600160a01b031681526020019081526020016000208481548110611d0a57611d0a612bc5565b600091825260208083208454600290930201918255600193840154939091019290925533815260d890915260409020805480611d4857611d48612baf565b60008281526020812060026000199093019283020181815560010181905591558151604051339282156108fc02929190818181858888f19350505050158015611d95573d6000803e3d6000fd5b506040805182518152602080840151908201524281830152905133917f68b2280298dbae04fabb3ba3aec3f939aebaf17f3b57811225a496cafee6f9c6919081900360600190a250600192915050565b60d15460ff166114565760405162c5619760e61b815260040160405180910390fd5b611e1081612205565b6109648282612211565b600064174876e800611e2c8484612ac5565b6111519190612ab1565b6000816001811115611e4a57611e4a612b99565b1415611e8d57815183548490600090611e64908490612a99565b90915550506020820151600184018054600090611e82908490612a99565b909155506108c09050565b815183548490600090611ea1908490612ae4565b90915550506020820151600184018054600090611ebf908490612ae4565b9091555050505050565b6000611151838361227c565b6000610846825490565b81546000901580611ef257506001830154155b15611efe575080610846565b82546001840154611e2c9084612ac5565b81546000908190611f209084612ac5565b600185015490915080821080611f34575080155b15611f4457600092505050610846565b611f4e8183612ab1565b95945050505050565b600054610100900460ff16611f7e5760405162461bcd60e51b81526004016107f790612a4e565b60c980546001600160a01b0319166001600160a01b038416179055611fa460ca82611e07565b60d1805460ff1916600190811790915560d255600060d381905560d481905560d581905560d681905560d7556040516329965a1d60e01b815230600482018190527fb281fc8c12954d22544db45de3159a39272895b169a852b314f9cc762e44c53b60248301526044820152731820a4b7618bde71dce8cdc73aab6c95905fad24906329965a1d90606401600060405180830381600087803b15801561204957600080fd5b505af115801561205d573d6000803e3d6000fd5b505050506109646000801b33611b82565b6120788282611158565b61096457612090816001600160a01b031660146122a6565b61209b8360206122a6565b6040516020016120ac9291906128c6565b60408051601f198184030181529082905262461bcd60e51b82526107f7916004016129c8565b6120dc8282611158565b6109645760008281526065602090815260408083206001600160a01b03851684529091529020805460ff191660011790556121143390565b6001600160a01b0316816001600160a01b0316837f2f8788117e7eff1d82e926ec794901d17c78024a50270940304540a733656f0d60405160405180910390a45050565b6000611151836001600160a01b038416612442565b6121778282611158565b156109645760008281526065602090815260408083206001600160a01b0385168085529252808320805460ff1916905551339285917ff6391f5c32d9c69d2a47ea670b442974b53935d1edc7fd64eb21e047a839171b9190a45050565b6000611151836001600160a01b038416612491565b60cd5460208201516000916121fd91612a99565b421192915050565b6109a881608001612584565b61221e602082018261262b565b82546001600160a01b0319166001600160a01b03919091161782556020810135600183015560408101356002830155606081013560038301556109646004830160808301803582556020810135600183015560400135600290910155565b600082600001828154811061229357612293612bc5565b9060005260206000200154905092915050565b606060006122b5836002612ac5565b6122c0906002612a99565b67ffffffffffffffff8111156122d8576122d8612bdb565b6040519080825280601f01601f191660200182016040528015612302576020820181803683370190505b509050600360fc1b8160008151811061231d5761231d612bc5565b60200101906001600160f81b031916908160001a905350600f60fb1b8160018151811061234c5761234c612bc5565b60200101906001600160f81b031916908160001a9053506000612370846002612ac5565b61237b906001612a99565b90505b60018111156123f3576f181899199a1a9b1b9c1cb0b131b232b360811b85600f16601081106123af576123af612bc5565b1a60f81b8282815181106123c5576123c5612bc5565b60200101906001600160f81b031916908160001a90535060049490941c936123ec81612b27565b905061237e565b5083156111515760405162461bcd60e51b815260206004820181905260248201527f537472696e67733a20686578206c656e67746820696e73756666696369656e7460448201526064016107f7565b600081815260018301602052604081205461248957508154600181810184556000848152602080822090930184905584548482528286019093526040902091909155610846565b506000610846565b6000818152600183016020526040812054801561257a5760006124b5600183612ae4565b85549091506000906124c990600190612ae4565b905081811461252e5760008660000182815481106124e9576124e9612bc5565b906000526020600020015490508087600001848154811061250c5761250c612bc5565b6000918252602080832090910192909255918252600188019052604090208390555b855486908061253f5761253f612baf565b600190038181906000526020600020016000905590558560010160008681526020019081526020016000206000905560019350505050610846565b6000915050610846565b61258e81356125a4565b61259b81602001356125a4565b6109a881604001355b64174876e8008111156109a85760405163c254ce4960e01b815260040160405180910390fd5b60008083601f8401126125dc57600080fd5b50813567ffffffffffffffff8111156125f457600080fd5b60208301915083602082850101111561260c57600080fd5b9250929050565b600060e0828403121561262557600080fd5b50919050565b60006020828403121561263d57600080fd5b813561115181612bf1565b60006020828403121561265a57600080fd5b815161115181612bf1565b60008060008060008060008060c0898b03121561268157600080fd5b883561268c81612bf1565b9750602089013561269c81612bf1565b965060408901356126ac81612bf1565b955060608901359450608089013567ffffffffffffffff808211156126d057600080fd5b6126dc8c838d016125ca565b909650945060a08b01359150808211156126f557600080fd5b506127028b828c016125ca565b999c989b5096995094979396929594505050565b6000806040838503121561272957600080fd5b823561273481612bf1565b946020939093013593505050565b60008060006060848603121561275757600080fd5b833561276281612bf1565b95602085013595506040909401359392505050565b60006020828403121561278957600080fd5b8151801515811461115157600080fd5b6000602082840312156127ab57600080fd5b5035919050565b600080604083850312156127c557600080fd5b8235915060208301356127d781612bf1565b809150509250929050565b600080604083850312156127f557600080fd5b50508035926020909101359150565b60006020828403121561281657600080fd5b81356001600160e01b03198116811461115157600080fd5b600080610100838503121561284257600080fd5b823561284d81612bf1565b915061285c8460208501612613565b90509250929050565b600060e0828403121561287757600080fd5b6111518383612613565b60006020828403121561289357600080fd5b5051919050565b600081518084526128b2816020860160208601612afb565b601f01601f19169290920160200192915050565b7f416363657373436f6e74726f6c3a206163636f756e74200000000000000000008152600083516128fe816017850160208801612afb565b7001034b99036b4b9b9b4b733903937b6329607d1b601791840191820152835161292f816028840160208801612afb565b01602801949350505050565b6001600160a01b039290921682526020820152608060408201819052600090820181905260a06060830181905282015260c00190565b602080825282518282018190526000919060409081850190868401855b828110156129bb576129ab84835180518252602090810151910152565b928401929085019060010161298e565b5091979650505050505050565b602081526000611151602083018461289a565b6060815260006129ee606083018661289a565b60208301949094525060400152919050565b6020808252602e908201527f496e697469616c697a61626c653a20636f6e747261637420697320616c72656160408201526d191e481a5b9a5d1a585b1a5e995960921b606082015260800190565b6020808252602b908201527f496e697469616c697a61626c653a20636f6e7472616374206973206e6f74206960408201526a6e697469616c697a696e6760a81b606082015260800190565b60008219821115612aac57612aac612b6d565b500190565b600082612ac057612ac0612b83565b500490565b6000816000190483118215151615612adf57612adf612b6d565b500290565b600082821015612af657612af6612b6d565b500390565b60005b83811015612b16578181015183820152602001612afe565b838111156117815750506000910152565b600081612b3657612b36612b6d565b506000190190565b6000600019821415612b5257612b52612b6d565b5060010190565b600082612b6857612b68612b83565b500690565b634e487b7160e01b600052601160045260246000fd5b634e487b7160e01b600052601260045260246000fd5b634e487b7160e01b600052602160045260246000fd5b634e487b7160e01b600052603160045260246000fd5b634e487b7160e01b600052603260045260246000fd5b634e487b7160e01b600052604160045260246000fd5b6001600160a01b03811681146109a857600080fdfe6d5c9827c1f410bbb61d3b2a0a34b6b30492d9a1fd38588edca7ec4562ab9c9ba264697066735822122043494a99fbf27b73ab3062e6ca57af2282a91b2984be82ae64eae0967b4c23af64736f6c63430008070033496e697469616c697a61626c653a20636f6e747261637420697320616c726561",
  "linkReferences": {},
  "deployedLinkReferences": {}
}