{
  "_format": "hh-sol-artifact-1",
  "contractName": "StakedBNBToken",
  "sourceName": "contracts/StakedBNBToken.sol",
  "abi": [
    {
      "inputs": [],
      "stateMutability": "nonpayable",
      "type": "constructor"
    },
    {
      "inputs": [],
      "name": "CallerIsNotTheOwner",
      "type": "error"
    },
    {
      "inputs": [],
      "name": "NewOwnerIsTheZeroAddress",
      "type": "error"
    },
    {
      "anonymous": false,
      "inputs": [
        {
          "indexed": true,
          "internalType": "address",
          "name": "owner",
          "type": "address"
        },
        {
          "indexed": true,
          "internalType": "address",
          "name": "spender",
          "type": "address"
        },
        {
          "indexed": false,
          "internalType": "uint256",
          "name": "value",
          "type": "uint256"
        }
      ],
      "name": "Approval",
      "type": "event"
    },
    {
      "anonymous": false,
      "inputs": [
        {
          "indexed": true,
          "internalType": "address",
          "name": "operator",
          "type": "address"
        },
        {
          "indexed": true,
          "internalType": "address",
          "name": "tokenHolder",
          "type": "address"
        }
      ],
      "name": "AuthorizedOperator",
      "type": "event"
    },
    {
      "anonymous": false,
      "inputs": [
        {
          "indexed": true,
          "internalType": "address",
          "name": "operator",
          "type": "address"
        },
        {
          "indexed": true,
          "internalType": "address",
          "name": "from",
          "type": "address"
        },
        {
          "indexed": false,
          "internalType": "uint256",
          "name": "amount",
          "type": "uint256"
        },
        {
          "indexed": false,
          "internalType": "bytes",
          "name": "data",
          "type": "bytes"
        },
        {
          "indexed": false,
          "internalType": "bytes",
          "name": "operatorData",
          "type": "bytes"
        }
      ],
      "name": "Burned",
      "type": "event"
    },
    {
      "anonymous": false,
      "inputs": [
        {
          "indexed": true,
          "internalType": "address",
          "name": "operator",
          "type": "address"
        },
        {
          "indexed": true,
          "internalType": "address",
          "name": "to",
          "type": "address"
        },
        {
          "indexed": false,
          "internalType": "uint256",
          "name": "amount",
          "type": "uint256"
        },
        {
          "indexed": false,
          "internalType": "bytes",
          "name": "data",
          "type": "bytes"
        },
        {
          "indexed": false,
          "internalType": "bytes",
          "name": "operatorData",
          "type": "bytes"
        }
      ],
      "name": "Minted",
      "type": "event"
    },
    {
      "anonymous": false,
      "inputs": [
        {
          "indexed": true,
          "internalType": "address",
          "name": "previousOwner",
          "type": "address"
        },
        {
          "indexed": true,
          "internalType": "address",
          "name": "newOwner",
          "type": "address"
        }
      ],
      "name": "OwnershipTransferred",
      "type": "event"
    },
    {
      "anonymous": false,
      "inputs": [
        {
          "indexed": false,
          "internalType": "address",
          "name": "account",
          "type": "address"
        }
      ],
      "name": "Paused",
      "type": "event"
    },
    {
      "anonymous": false,
      "inputs": [
        {
          "indexed": true,
          "internalType": "address",
          "name": "operator",
          "type": "address"
        },
        {
          "indexed": true,
          "internalType": "address",
          "name": "tokenHolder",
          "type": "address"
        }
      ],
      "name": "RevokedOperator",
      "type": "event"
    },
    {
      "anonymous": false,
      "inputs": [
        {
          "indexed": true,
          "internalType": "bytes32",
          "name": "role",
          "type": "bytes32"
        },
        {
          "indexed": true,
          "internalType": "bytes32",
          "name": "previousAdminRole",
          "type": "bytes32"
        },
        {
          "indexed": true,
          "internalType": "bytes32",
          "name": "newAdminRole",
          "type": "bytes32"
        }
      ],
      "name": "RoleAdminChanged",
      "type": "event"
    },
    {
      "anonymous": false,
      "inputs": [
        {
          "indexed": true,
          "internalType": "bytes32",
          "name": "role",
          "type": "bytes32"
        },
        {
          "indexed": true,
          "internalType": "address",
          "name": "account",
          "type": "address"
        },
        {
          "indexed": true,
          "internalType": "address",
          "name": "sender",
          "type": "address"
        }
      ],
      "name": "RoleGranted",
      "type": "event"
    },
    {
      "anonymous": false,
      "inputs": [
        {
          "indexed": true,
          "internalType": "bytes32",
          "name": "role",
          "type": "bytes32"
        },
        {
          "indexed": true,
          "internalType": "address",
          "name": "account",
          "type": "address"
        },
        {
          "indexed": true,
          "internalType": "address",
          "name": "sender",
          "type": "address"
        }
      ],
      "name": "RoleRevoked",
      "type": "event"
    },
    {
      "anonymous": false,
      "inputs": [
        {
          "indexed": true,
          "internalType": "address",
          "name": "operator",
          "type": "address"
        },
        {
          "indexed": true,
          "internalType": "address",
          "name": "from",
          "type": "address"
        },
        {
          "indexed": true,
          "internalType": "address",
          "name": "to",
          "type": "address"
        },
        {
          "indexed": false,
          "internalType": "uint256",
          "name": "amount",
          "type": "uint256"
        },
        {
          "indexed": false,
          "internalType": "bytes",
          "name": "data",
          "type": "bytes"
        },
        {
          "indexed": false,
          "internalType": "bytes",
          "name": "operatorData",
          "type": "bytes"
        }
      ],
      "name": "Sent",
      "type": "event"
    },
    {
      "anonymous": false,
      "inputs": [
        {
          "indexed": true,
          "internalType": "address",
          "name": "from",
          "type": "address"
        },
        {
          "indexed": true,
          "internalType": "address",
          "name": "to",
          "type": "address"
        },
        {
          "indexed": false,
          "internalType": "uint256",
          "name": "value",
          "type": "uint256"
        }
      ],
      "name": "Transfer",
      "type": "event"
    },
    {
      "anonymous": false,
      "inputs": [
        {
          "indexed": false,
          "internalType": "address",
          "name": "account",
          "type": "address"
        }
      ],
      "name": "Unpaused",
      "type": "event"
    },
    {
      "inputs": [],
      "name": "BURNER_ROLE",
      "outputs": [
        {
          "internalType": "bytes32",
          "name": "",
          "type": "bytes32"
        }
      ],
      "stateMutability": "view",
      "type": "function"
    },
    {
      "inputs": [],
      "name": "DEFAULT_ADMIN_ROLE",
      "outputs": [
        {
          "internalType": "bytes32",
          "name": "",
          "type": "bytes32"
        }
      ],
      "stateMutability": "view",
      "type": "function"
    },
    {
      "inputs": [],
      "name": "MINTER_ROLE",
      "outputs": [
        {
          "internalType": "bytes32",
          "name": "",
          "type": "bytes32"
        }
      ],
      "stateMutability": "view",
      "type": "function"
    },
    {
      "inputs": [
        {
          "internalType": "address",
          "name": "holder",
          "type": "address"
        },
        {
          "internalType": "address",
          "name": "spender",
          "type": "address"
        }
      ],
      "name": "allowance",
      "outputs": [
        {
          "internalType": "uint256",
          "name": "",
          "type": "uint256"
        }
      ],
      "stateMutability": "view",
      "type": "function"
    },
    {
      "inputs": [
        {
          "internalType": "address",
          "name": "spender",
          "type": "address"
        },
        {
          "internalType": "uint256",
          "name": "value",
          "type": "uint256"
        }
      ],
      "name": "approve",
      "outputs": [
        {
          "internalType": "bool",
          "name": "",
          "type": "bool"
        }
      ],
      "stateMutability": "nonpayable",
      "type": "function"
    },
    {
      "inputs": [
        {
          "internalType": "address",
          "name": "operator",
          "type": "address"
        }
      ],
      "name": "authorizeOperator",
      "outputs": [],
      "stateMutability": "nonpayable",
      "type": "function"
    },
    {
      "inputs": [
        {
          "internalType": "address",
          "name": "tokenHolder",
          "type": "address"
        }
      ],
      "name": "balanceOf",
      "outputs": [
        {
          "internalType": "uint256",
          "name": "",
          "type": "uint256"
        }
      ],
      "stateMutability": "view",
      "type": "function"
    },
    {
      "inputs": [
        {
          "internalType": "uint256",
          "name": "amount",
          "type": "uint256"
        },
        {
          "internalType": "bytes",
          "name": "data",
          "type": "bytes"
        }
      ],
      "name": "burn",
      "outputs": [],
      "stateMutability": "nonpayable",
      "type": "function"
    },
    {
      "inputs": [],
      "name": "decimals",
      "outputs": [
        {
          "internalType": "uint8",
          "name": "",
          "type": "uint8"
        }
      ],
      "stateMutability": "pure",
      "type": "function"
    },
    {
      "inputs": [],
      "name": "defaultOperators",
      "outputs": [
        {
          "internalType": "address[]",
          "name": "",
          "type": "address[]"
        }
      ],
      "stateMutability": "view",
      "type": "function"
    },
    {
      "inputs": [],
      "name": "getOwner",
      "outputs": [
        {
          "internalType": "address",
          "name": "",
          "type": "address"
        }
      ],
      "stateMutability": "view",
      "type": "function"
    },
    {
      "inputs": [
        {
          "internalType": "bytes32",
          "name": "role",
          "type": "bytes32"
        }
      ],
      "name": "getRoleAdmin",
      "outputs": [
        {
          "internalType": "bytes32",
          "name": "",
          "type": "bytes32"
        }
      ],
      "stateMutability": "view",
      "type": "function"
    },
    {
      "inputs": [
        {
          "internalType": "bytes32",
          "name": "role",
          "type": "bytes32"
        },
        {
          "internalType": "uint256",
          "name": "index",
          "type": "uint256"
        }
      ],
      "name": "getRoleMember",
      "outputs": [
        {
          "internalType": "address",
          "name": "",
          "type": "address"
        }
      ],
      "stateMutability": "view",
      "type": "function"
    },
    {
      "inputs": [
        {
          "internalType": "bytes32",
          "name": "role",
          "type": "bytes32"
        }
      ],
      "name": "getRoleMemberCount",
      "outputs": [
        {
          "internalType": "uint256",
          "name": "",
          "type": "uint256"
        }
      ],
      "stateMutability": "view",
      "type": "function"
    },
    {
      "inputs": [
        {
          "internalType": "bytes32",
          "name": "role",
          "type": "bytes32"
        },
        {
          "internalType": "address",
          "name": "account",
          "type": "address"
        }
      ],
      "name": "grantRole",
      "outputs": [],
      "stateMutability": "nonpayable",
      "type": "function"
    },
    {
      "inputs": [],
      "name": "granularity",
      "outputs": [
        {
          "internalType": "uint256",
          "name": "",
          "type": "uint256"
        }
      ],
      "stateMutability": "view",
      "type": "function"
    },
    {
      "inputs": [
        {
          "internalType": "bytes32",
          "name": "role",
          "type": "bytes32"
        },
        {
          "internalType": "address",
          "name": "account",
          "type": "address"
        }
      ],
      "name": "hasRole",
      "outputs": [
        {
          "internalType": "bool",
          "name": "",
          "type": "bool"
        }
      ],
      "stateMutability": "view",
      "type": "function"
    },
    {
      "inputs": [
        {
          "internalType": "address",
          "name": "operator",
          "type": "address"
        },
        {
          "internalType": "address",
          "name": "tokenHolder",
          "type": "address"
        }
      ],
      "name": "isOperatorFor",
      "outputs": [
        {
          "internalType": "bool",
          "name": "",
          "type": "bool"
        }
      ],
      "stateMutability": "view",
      "type": "function"
    },
    {
      "inputs": [
        {
          "internalType": "address",
          "name": "account",
          "type": "address"
        },
        {
          "internalType": "uint256",
          "name": "amount",
          "type": "uint256"
        },
        {
          "internalType": "bytes",
          "name": "userData",
          "type": "bytes"
        },
        {
          "internalType": "bytes",
          "name": "operatorData",
          "type": "bytes"
        }
      ],
      "name": "mint",
      "outputs": [],
      "stateMutability": "nonpayable",
      "type": "function"
    },
    {
      "inputs": [],
      "name": "name",
      "outputs": [
        {
          "internalType": "string",
          "name": "",
          "type": "string"
        }
      ],
      "stateMutability": "view",
      "type": "function"
    },
    {
      "inputs": [
        {
          "internalType": "address",
          "name": "account",
          "type": "address"
        },
        {
          "internalType": "uint256",
          "name": "amount",
          "type": "uint256"
        },
        {
          "internalType": "bytes",
          "name": "data",
          "type": "bytes"
        },
        {
          "internalType": "bytes",
          "name": "operatorData",
          "type": "bytes"
        }
      ],
      "name": "operatorBurn",
      "outputs": [],
      "stateMutability": "nonpayable",
      "type": "function"
    },
    {
      "inputs": [
        {
          "internalType": "address",
          "name": "sender",
          "type": "address"
        },
        {
          "internalType": "address",
          "name": "recipient",
          "type": "address"
        },
        {
          "internalType": "uint256",
          "name": "amount",
          "type": "uint256"
        },
        {
          "internalType": "bytes",
          "name": "data",
          "type": "bytes"
        },
        {
          "internalType": "bytes",
          "name": "operatorData",
          "type": "bytes"
        }
      ],
      "name": "operatorSend",
      "outputs": [],
      "stateMutability": "nonpayable",
      "type": "function"
    },
    {
      "inputs": [],
      "name": "pause",
      "outputs": [],
      "stateMutability": "nonpayable",
      "type": "function"
    },
    {
      "inputs": [],
      "name": "paused",
      "outputs": [
        {
          "internalType": "bool",
          "name": "",
          "type": "bool"
        }
      ],
      "stateMutability": "view",
      "type": "function"
    },
    {
      "inputs": [
        {
          "internalType": "bytes32",
          "name": "role",
          "type": "bytes32"
        },
        {
          "internalType": "address",
          "name": "account",
          "type": "address"
        }
      ],
      "name": "renounceRole",
      "outputs": [],
      "stateMutability": "nonpayable",
      "type": "function"
    },
    {
      "inputs": [
        {
          "internalType": "address",
          "name": "operator",
          "type": "address"
        }
      ],
      "name": "revokeOperator",
      "outputs": [],
      "stateMutability": "nonpayable",
      "type": "function"
    },
    {
      "inputs": [
        {
          "internalType": "bytes32",
          "name": "role",
          "type": "bytes32"
        },
        {
          "internalType": "address",
          "name": "account",
          "type": "address"
        }
      ],
      "name": "revokeRole",
      "outputs": [],
      "stateMutability": "nonpayable",
      "type": "function"
    },
    {
      "inputs": [
        {
          "internalType": "address",
          "name": "addr",
          "type": "address"
        }
      ],
      "name": "selfDestruct",
      "outputs": [],
      "stateMutability": "nonpayable",
      "type": "function"
    },
    {
      "inputs": [
        {
          "internalType": "address",
          "name": "recipient",
          "type": "address"
        },
        {
          "internalType": "uint256",
          "name": "amount",
          "type": "uint256"
        },
        {
          "internalType": "bytes",
          "name": "data",
          "type": "bytes"
        }
      ],
      "name": "send",
      "outputs": [],
      "stateMutability": "nonpayable",
      "type": "function"
    },
    {
      "inputs": [
        {
          "internalType": "bytes4",
          "name": "interfaceId",
          "type": "bytes4"
        }
      ],
      "name": "supportsInterface",
      "outputs": [
        {
          "internalType": "bool",
          "name": "",
          "type": "bool"
        }
      ],
      "stateMutability": "view",
      "type": "function"
    },
    {
      "inputs": [],
      "name": "symbol",
      "outputs": [
        {
          "internalType": "string",
          "name": "",
          "type": "string"
        }
      ],
      "stateMutability": "view",
      "type": "function"
    },
    {
      "inputs": [],
      "name": "totalSupply",
      "outputs": [
        {
          "internalType": "uint256",
          "name": "",
          "type": "uint256"
        }
      ],
      "stateMutability": "view",
      "type": "function"
    },
    {
      "inputs": [
        {
          "internalType": "address",
          "name": "recipient",
          "type": "address"
        },
        {
          "internalType": "uint256",
          "name": "amount",
          "type": "uint256"
        }
      ],
      "name": "transfer",
      "outputs": [
        {
          "internalType": "bool",
          "name": "",
          "type": "bool"
        }
      ],
      "stateMutability": "nonpayable",
      "type": "function"
    },
    {
      "inputs": [
        {
          "internalType": "address",
          "name": "holder",
          "type": "address"
        },
        {
          "internalType": "address",
          "name": "recipient",
          "type": "address"
        },
        {
          "internalType": "uint256",
          "name": "amount",
          "type": "uint256"
        }
      ],
      "name": "transferFrom",
      "outputs": [
        {
          "internalType": "bool",
          "name": "",
          "type": "bool"
        }
      ],
      "stateMutability": "nonpayable",
      "type": "function"
    },
    {
      "inputs": [
        {
          "internalType": "address",
          "name": "newOwner",
          "type": "address"
        }
      ],
      "name": "transferOwnership",
      "outputs": [],
      "stateMutability": "nonpayable",
      "type": "function"
    },
    {
      "inputs": [],
      "name": "unpause",
      "outputs": [],
      "stateMutability": "nonpayable",
      "type": "function"
    }
  ],
  "bytecode": "0x60806040523480156200001157600080fd5b50604080518082018252600a81526929ba30b5b2b21021272160b11b602080830191825283518085018552600681526539ba35a1272160d11b8183015284516000815291820190945282513394926200006e9160029190620003ce565b50815162000084906003906020850190620003ce565b5080516200009a9060049060208401906200045d565b5060005b81518110156200010a57600160056000848481518110620000c357620000c362000533565b6020908102919091018101516001600160a01b03168252810191909152604001600020805460ff191691151591909117905580620001018162000509565b9150506200009e565b506040516329965a1d60e01b815230600482018190527fac7fbab5f54a3ca8194167523c6753bfeb96a445279294b6125b68cce217705460248301526044820152731820a4b7618bde71dce8cdc73aab6c95905fad24906329965a1d90606401600060405180830381600087803b1580156200018557600080fd5b505af11580156200019a573d6000803e3d6000fd5b50506040516329965a1d60e01b815230600482018190527faea199e31a596269b42cdafd93407f14436db6e4cad65417994c2eb37381e05a60248301526044820152731820a4b7618bde71dce8cdc73aab6c95905fad2492506329965a1d9150606401600060405180830381600087803b1580156200021857600080fd5b505af11580156200022d573d6000803e3d6000fd5b5050600980546001600160a01b0319166001600160a01b0397909716969096179095555050600c805460ff19169055506200026e9150600090503362000274565b62000549565b6200028b8282620002b760201b62000cf01760201c565b6000828152600b60209081526040909120620002b291839062000d766200035c821b17901c565b505050565b6000828152600a602090815260408083206001600160a01b038516845290915290205460ff1662000358576000828152600a602090815260408083206001600160a01b03851684529091529020805460ff19166001179055620003173390565b6001600160a01b0316816001600160a01b0316837f2f8788117e7eff1d82e926ec794901d17c78024a50270940304540a733656f0d60405160405180910390a45b5050565b600062000373836001600160a01b0384166200037c565b90505b92915050565b6000818152600183016020526040812054620003c55750815460018181018455600084815260208082209093018490558454848252828601909352604090209190915562000376565b50600062000376565b828054620003dc90620004cc565b90600052602060002090601f0160209004810192826200040057600085556200044b565b82601f106200041b57805160ff19168380011785556200044b565b828001600101855582156200044b579182015b828111156200044b5782518255916020019190600101906200042e565b5062000459929150620004b5565b5090565b8280548282559060005260206000209081019282156200044b579160200282015b828111156200044b57825182546001600160a01b0319166001600160a01b039091161782556020909201916001909101906200047e565b5b80821115620004595760008155600101620004b6565b600181811c90821680620004e157607f821691505b602082108114156200050357634e487b7160e01b600052602260045260246000fd5b50919050565b60006000198214156200052c57634e487b7160e01b600052601160045260246000fd5b5060010190565b634e487b7160e01b600052603260045260246000fd5b61249380620005596000396000f3fe608060405234801561001057600080fd5b506004361061021c5760003560e01c8063893d20e811610125578063d5391393116100ad578063dd62ed3e1161007c578063dd62ed3e146104a4578063f2fde38b146104dd578063fad8b32a146104f0578063fc673c4f14610503578063fe9d93031461051657600080fd5b8063d539139314610444578063d547741f1461046b578063d95b63711461047e578063dcdc7dd01461049157600080fd5b806395d89b41116100f457806395d89b41146103fb5780639bd9bbc614610403578063a217fddf14610416578063a9059cbb1461041e578063ca15c8731461043157600080fd5b8063893d20e81461039d5780639010d07c146103c257806391d14854146103d5578063959b8c3f146103e857600080fd5b8063313ce567116101a8578063556f0dc711610177578063556f0dc7146103475780635c975abb1461034e57806362ad1b831461035957806370a082311461036c5780638456cb591461039557600080fd5b8063313ce5671461030a57806336568abe146103195780633f4ba83a1461032c5780633f5a0bdd1461033457600080fd5b806318160ddd116101ef57806318160ddd1461028657806323b872dd14610298578063248a9ca3146102ab578063282c51f3146102ce5780632f2ff15d146102f557600080fd5b806301ffc9a71461022157806306e485381461024957806306fdde031461025e578063095ea7b314610273575b600080fd5b61023461022f3660046120d7565b610529565b60405190151581526020015b60405180910390f35b610251610554565b6040516102409190612243565b6102666105b6565b6040516102409190612290565b610234610281366004611f72565b61063f565b6001545b604051908152602001610240565b6102346102a6366004611e9e565b610657565b61028a6102b9366004612077565b6000908152600a602052604090206001015490565b61028a7f3c11d16cbaffd01df69ce1c404f6340ee057498f5f00246190ea54220576a84881565b610308610303366004612090565b61069d565b005b60405160128152602001610240565b610308610327366004612090565b6106c7565b61030861074a565b610308610342366004611e2b565b610760565b600161028a565b600c5460ff16610234565b610308610367366004611edf565b61077f565b61028a61037a366004611e2b565b6001600160a01b031660009081526020819052604090205490565b6103086107bb565b6009546001600160a01b03165b6040516001600160a01b039091168152602001610240565b6103aa6103d03660046120b5565b6107ce565b6102346103e3366004612090565b6107ed565b6103086103f6366004611e2b565b610818565b610266610936565b610308610411366004611f9e565b610945565b61028a600081565b61023461042c366004611f72565b610963565b61028a61043f366004612077565b61099b565b61028a7f9f2df0fed2c77648de5860a4cc508cd0818c85b8b8a1ab4ceeef8d981c8956a681565b610308610479366004612090565b6109b2565b61023461048c366004611e65565b6109d7565b61030861049f366004611ff7565b610a78565b61028a6104b2366004611e65565b6001600160a01b03918216600090815260086020908152604080832093909416825291909152205490565b6103086104eb366004611e2b565b610ab6565b6103086104fe366004611e2b565b610b5a565b610308610511366004611ff7565b610c76565b610308610524366004612101565b610cb4565b60006001600160e01b03198216635a05180f60e01b148061054e575061054e82610d8b565b92915050565b606060048054806020026020016040519081016040528092919081815260200182805480156105ac57602002820191906000526020600020905b81546001600160a01b0316815260019091019060200180831161058e575b5050505050905090565b6060600280546105c5906123b5565b80601f01602080910402602001604051908101604052809291908181526020018280546105f1906123b5565b80156105ac5780601f10610613576101008083540402835291602001916105ac565b820191906000526020600020905b81548152906001019060200180831161062157509395945050505050565b60003361064d818585610dc0565b5060019392505050565b600033610665858285610ee7565b61069285858560405180602001604052806000815250604051806020016040528060008152506000610f79565b506001949350505050565b6000828152600a60205260409020600101546106b881611075565b6106c2838361107f565b505050565b6001600160a01b038116331461073c5760405162461bcd60e51b815260206004820152602f60248201527f416363657373436f6e74726f6c3a2063616e206f6e6c792072656e6f756e636560448201526e103937b632b9903337b91039b2b63360891b60648201526084015b60405180910390fd5b61074682826110a1565b5050565b600061075581611075565b61075d6110c3565b50565b600061076b81611075565b610773611115565b816001600160a01b0316ff5b61078933866109d7565b6107a55760405162461bcd60e51b8152600401610733906122a3565b6107b485858585856001610f79565b5050505050565b60006107c681611075565b61075d611160565b6000828152600b602052604081206107e6908361119d565b9392505050565b6000918252600a602090815260408084206001600160a01b0393909316845291905290205460ff1690565b336001600160a01b038216141561087d5760405162461bcd60e51b8152602060048201526024808201527f4552433737373a20617574686f72697a696e672073656c66206173206f70657260448201526330ba37b960e11b6064820152608401610733565b6001600160a01b03811660009081526005602052604090205460ff16156108ce573360009081526007602090815260408083206001600160a01b03851684529091529020805460ff191690556108fd565b3360009081526006602090815260408083206001600160a01b03851684529091529020805460ff191660011790555b60405133906001600160a01b038316907ff4caeb2d6ca8932a215a353d0703c326ec2d81fc68170f320eb2ab49e9df61f990600090a350565b6060600380546105c5906123b5565b6106c233848484604051806020016040528060008152506001610f79565b600061099233848460405180602001604052806000815250604051806020016040528060008152506000610f79565b50600192915050565b6000818152600b6020526040812061054e906111a9565b6000828152600a60205260409020600101546109cd81611075565b6106c283836110a1565b6000816001600160a01b0316836001600160a01b03161480610a4257506001600160a01b03831660009081526005602052604090205460ff168015610a4257506001600160a01b0380831660009081526007602090815260408083209387168352929052205460ff16155b806107e65750506001600160a01b0390811660009081526006602090815260408083209490931682529290925290205460ff1690565b7f9f2df0fed2c77648de5860a4cc508cd0818c85b8b8a1ab4ceeef8d981c8956a6610aa281611075565b610aaa6111b3565b6107b4858585856111f9565b6009546001600160a01b03163314610ae157604051633e8be92f60e01b815260040160405180910390fd5b6001600160a01b038116610b085760405163f82d512f60e01b815260040160405180910390fd5b600980546001600160a01b038381166001600160a01b0319831681179093556040519116919082907f8be0079c531659141344cd1fd0a4f28419497f9722a3daafe3b4186f6b6457e090600090a35050565b6001600160a01b038116331415610bbd5760405162461bcd60e51b815260206004820152602160248201527f4552433737373a207265766f6b696e672073656c66206173206f70657261746f6044820152603960f91b6064820152608401610733565b6001600160a01b03811660009081526005602052604090205460ff1615610c11573360009081526007602090815260408083206001600160a01b03851684529091529020805460ff19166001179055610c3d565b3360009081526006602090815260408083206001600160a01b03851684529091529020805460ff191690555b60405133906001600160a01b038316907f50546e66e5f44d728365dc3908c63bc5cfeeab470722c1677e3073a6ac294aa190600090a350565b7f3c11d16cbaffd01df69ce1c404f6340ee057498f5f00246190ea54220576a848610ca081611075565b610ca86111b3565b6107b485858585611207565b7f3c11d16cbaffd01df69ce1c404f6340ee057498f5f00246190ea54220576a848610cde81611075565b610ce66111b3565b6106c28383611239565b610cfa82826107ed565b610746576000828152600a602090815260408083206001600160a01b03851684529091529020805460ff19166001179055610d323390565b6001600160a01b0316816001600160a01b0316837f2f8788117e7eff1d82e926ec794901d17c78024a50270940304540a733656f0d60405160405180910390a45050565b60006107e6836001600160a01b038416611254565b60006001600160e01b03198216637965db0b60e01b148061054e57506301ffc9a760e01b6001600160e01b031983161461054e565b6001600160a01b038316610e245760405162461bcd60e51b815260206004820152602560248201527f4552433737373a20617070726f76652066726f6d20746865207a65726f206164604482015264647265737360d81b6064820152608401610733565b6001600160a01b038216610e865760405162461bcd60e51b815260206004820152602360248201527f4552433737373a20617070726f766520746f20746865207a65726f206164647260448201526265737360e81b6064820152608401610733565b6001600160a01b0383811660008181526008602090815260408083209487168084529482529182902085905590518481527f8c5be1e5ebec7d5bd14f71427d1e84f3dd0314c0f7b2291e5b200ac8c7c3b925910160405180910390a3505050565b6001600160a01b038381166000908152600860209081526040808320938616835292905220546000198114610f735781811015610f665760405162461bcd60e51b815260206004820152601e60248201527f4552433737373a20696e73756666696369656e7420616c6c6f77616e636500006044820152606401610733565b610f738484848403610dc0565b50505050565b6001600160a01b038616610fde5760405162461bcd60e51b815260206004820152602660248201527f4552433737373a207472616e736665722066726f6d20746865207a65726f206160448201526564647265737360d01b6064820152608401610733565b6001600160a01b0385166110405760405162461bcd60e51b8152602060048201526024808201527f4552433737373a207472616e7366657220746f20746865207a65726f206164646044820152637265737360e01b6064820152608401610733565b3361104f8188888888886112a3565b61105d8188888888886113d9565b61106c8188888888888861153f565b50505050505050565b61075d8133611713565b6110898282610cf0565b6000828152600b602052604090206106c29082610d76565b6110ab8282611777565b6000828152600b602052604090206106c290826117de565b6110cb611115565b600c805460ff191690557f5db9ee0a495bf2e6ff9c91a7834c1ba4fdd244a5e8aa4e537bd38aeae4b073aa335b6040516001600160a01b03909116815260200160405180910390a1565b600c5460ff1661115e5760405162461bcd60e51b815260206004820152601460248201527314185d5cd8589b194e881b9bdd081c185d5cd95960621b6044820152606401610733565b565b6111686111b3565b600c805460ff191660011790557f62e78cea01bee320cd4e420270b5ea74000d11b0c9f74754ebdbfc544b05a2586110f83390565b60006107e683836117f3565b600061054e825490565b600c5460ff161561115e5760405162461bcd60e51b815260206004820152601060248201526f14185d5cd8589b194e881c185d5cd95960821b6044820152606401610733565b610f7384848484600161181d565b61121133856109d7565b61122d5760405162461bcd60e51b8152600401610733906122a3565b610f7384848484611966565b61074633838360405180602001604052806000815250611966565b600081815260018301602052604081205461129b5750815460018181018455600084815260208082209093018490558454848252828601909352604090209190915561054e565b50600061054e565b60405163555ddc6560e11b81526001600160a01b03861660048201527f29ddb589b1fb5fc7cf394961c1adf5f8c6454761adf795e67fe149f658abe8956024820152600090731820a4b7618bde71dce8cdc73aab6c95905fad249063aabbb8ca9060440160206040518083038186803b15801561131f57600080fd5b505afa158015611333573d6000803e3d6000fd5b505050506040513d601f19601f820116820180604052508101906113579190611e48565b90506001600160a01b0381161561106c57604051633ad5cbc160e11b81526001600160a01b038216906375ab97829061139e908a908a908a908a908a908a906004016121e9565b600060405180830381600087803b1580156113b857600080fd5b505af11580156113cc573d6000803e3d6000fd5b5050505050505050505050565b6001600160a01b038516600090815260208190526040902054838110156114525760405162461bcd60e51b815260206004820152602760248201527f4552433737373a207472616e7366657220616d6f756e7420657863656564732060448201526662616c616e636560c81b6064820152608401610733565b6001600160a01b03808716600090815260208190526040808220878503905591871681529081208054869290611489908490612324565b92505081905550846001600160a01b0316866001600160a01b0316886001600160a01b03167f06b541ddaa720db2b10a4d0cdac39b8d360425fc073085fac19bc826146779878787876040516114e1939291906122ef565b60405180910390a4846001600160a01b0316866001600160a01b03167fddf252ad1be2c89b69c2b068fc378daa952ba7f163c4a11628f55a4df523b3ef8660405161152e91815260200190565b60405180910390a350505050505050565b60405163555ddc6560e11b81526001600160a01b03861660048201527fb281fc8c12954d22544db45de3159a39272895b169a852b314f9cc762e44c53b6024820152600090731820a4b7618bde71dce8cdc73aab6c95905fad249063aabbb8ca9060440160206040518083038186803b1580156115bb57600080fd5b505afa1580156115cf573d6000803e3d6000fd5b505050506040513d601f19601f820116820180604052508101906115f39190611e48565b90506001600160a01b0381161561166f576040516223de2960e01b81526001600160a01b038216906223de2990611638908b908b908b908b908b908b906004016121e9565b600060405180830381600087803b15801561165257600080fd5b505af1158015611666573d6000803e3d6000fd5b50505050611709565b8115611709576001600160a01b0386163b156117095760405162461bcd60e51b815260206004820152604d60248201527f4552433737373a20746f6b656e20726563697069656e7420636f6e747261637460448201527f20686173206e6f20696d706c656d656e74657220666f7220455243373737546f60648201526c1ad95b9cd49958da5c1a595b9d609a1b608482015260a401610733565b5050505050505050565b61171d82826107ed565b61074657611735816001600160a01b03166014611b0f565b611740836020611b0f565b604051602001611751929190612174565b60408051601f198184030181529082905262461bcd60e51b825261073391600401612290565b61178182826107ed565b15610746576000828152600a602090815260408083206001600160a01b0385168085529252808320805460ff1916905551339285917ff6391f5c32d9c69d2a47ea670b442974b53935d1edc7fd64eb21e047a839171b9190a45050565b60006107e6836001600160a01b038416611cab565b600082600001828154811061180a5761180a61241c565b9060005260206000200154905092915050565b6001600160a01b0385166118735760405162461bcd60e51b815260206004820181905260248201527f4552433737373a206d696e7420746f20746865207a65726f20616464726573736044820152606401610733565b6000339050846001600082825461188a9190612324565b90915550506001600160a01b038616600090815260208190526040812080548792906118b7908490612324565b909155506118cd9050816000888888888861153f565b856001600160a01b0316816001600160a01b03167f2fe5be0146f74c5bce36c0b80911af6c7d86ff27e89d5cfa61fc681327954e5d878787604051611914939291906122ef565b60405180910390a36040518581526001600160a01b038716906000907fddf252ad1be2c89b69c2b068fc378daa952ba7f163c4a11628f55a4df523b3ef906020015b60405180910390a3505050505050565b6001600160a01b0384166119c75760405162461bcd60e51b815260206004820152602260248201527f4552433737373a206275726e2066726f6d20746865207a65726f206164647265604482015261737360f01b6064820152608401610733565b336119d7818660008787876112a3565b6001600160a01b03851660009081526020819052604090205484811015611a4c5760405162461bcd60e51b815260206004820152602360248201527f4552433737373a206275726e20616d6f756e7420657863656564732062616c616044820152626e636560e81b6064820152608401610733565b6001600160a01b0386166000908152602081905260408120868303905560018054879290611a7b90849061235b565b92505081905550856001600160a01b0316826001600160a01b03167fa78a9be3a7b862d26933ad85fb11d80ef66b8f972d7cbba06621d583943a4098878787604051611ac9939291906122ef565b60405180910390a36040518581526000906001600160a01b038816907fddf252ad1be2c89b69c2b068fc378daa952ba7f163c4a11628f55a4df523b3ef90602001611956565b60606000611b1e83600261233c565b611b29906002612324565b67ffffffffffffffff811115611b4157611b41612432565b6040519080825280601f01601f191660200182016040528015611b6b576020820181803683370190505b509050600360fc1b81600081518110611b8657611b8661241c565b60200101906001600160f81b031916908160001a905350600f60fb1b81600181518110611bb557611bb561241c565b60200101906001600160f81b031916908160001a9053506000611bd984600261233c565b611be4906001612324565b90505b6001811115611c5c576f181899199a1a9b1b9c1cb0b131b232b360811b85600f1660108110611c1857611c1861241c565b1a60f81b828281518110611c2e57611c2e61241c565b60200101906001600160f81b031916908160001a90535060049490941c93611c558161239e565b9050611be7565b5083156107e65760405162461bcd60e51b815260206004820181905260248201527f537472696e67733a20686578206c656e67746820696e73756666696369656e746044820152606401610733565b60008181526001830160205260408120548015611d94576000611ccf60018361235b565b8554909150600090611ce39060019061235b565b9050818114611d48576000866000018281548110611d0357611d0361241c565b9060005260206000200154905080876000018481548110611d2657611d2661241c565b6000918252602080832090910192909255918252600188019052604090208390555b8554869080611d5957611d59612406565b60019003818190600052602060002001600090559055856001016000868152602001908152602001600020600090556001935050505061054e565b600091505061054e565b600082601f830112611daf57600080fd5b813567ffffffffffffffff80821115611dca57611dca612432565b604051601f8301601f19908116603f01168101908282118183101715611df257611df2612432565b81604052838152866020858801011115611e0b57600080fd5b836020870160208301376000602085830101528094505050505092915050565b600060208284031215611e3d57600080fd5b81356107e681612448565b600060208284031215611e5a57600080fd5b81516107e681612448565b60008060408385031215611e7857600080fd5b8235611e8381612448565b91506020830135611e9381612448565b809150509250929050565b600080600060608486031215611eb357600080fd5b8335611ebe81612448565b92506020840135611ece81612448565b929592945050506040919091013590565b600080600080600060a08688031215611ef757600080fd5b8535611f0281612448565b94506020860135611f1281612448565b935060408601359250606086013567ffffffffffffffff80821115611f3657600080fd5b611f4289838a01611d9e565b93506080880135915080821115611f5857600080fd5b50611f6588828901611d9e565b9150509295509295909350565b60008060408385031215611f8557600080fd5b8235611f9081612448565b946020939093013593505050565b600080600060608486031215611fb357600080fd5b8335611fbe81612448565b925060208401359150604084013567ffffffffffffffff811115611fe157600080fd5b611fed86828701611d9e565b9150509250925092565b6000806000806080858703121561200d57600080fd5b843561201881612448565b935060208501359250604085013567ffffffffffffffff8082111561203c57600080fd5b61204888838901611d9e565b9350606087013591508082111561205e57600080fd5b5061206b87828801611d9e565b91505092959194509250565b60006020828403121561208957600080fd5b5035919050565b600080604083850312156120a357600080fd5b823591506020830135611e9381612448565b600080604083850312156120c857600080fd5b50508035926020909101359150565b6000602082840312156120e957600080fd5b81356001600160e01b0319811681146107e657600080fd5b6000806040838503121561211457600080fd5b82359150602083013567ffffffffffffffff81111561213257600080fd5b61213e85828601611d9e565b9150509250929050565b60008151808452612160816020860160208601612372565b601f01601f19169290920160200192915050565b7f416363657373436f6e74726f6c3a206163636f756e74200000000000000000008152600083516121ac816017850160208801612372565b7001034b99036b4b9b9b4b733903937b6329607d1b60179184019182015283516121dd816028840160208801612372565b01602801949350505050565b6001600160a01b0387811682528681166020830152851660408201526060810184905260c06080820181905260009061222490830185612148565b82810360a08401526122368185612148565b9998505050505050505050565b6020808252825182820181905260009190848201906040850190845b818110156122845783516001600160a01b03168352928401929184019160010161225f565b50909695505050505050565b6020815260006107e66020830184612148565b6020808252602c908201527f4552433737373a2063616c6c6572206973206e6f7420616e206f70657261746f60408201526b39103337b9103437b63232b960a11b606082015260800190565b8381526060602082015260006123086060830185612148565b828103604084015261231a8185612148565b9695505050505050565b60008219821115612337576123376123f0565b500190565b6000816000190483118215151615612356576123566123f0565b500290565b60008282101561236d5761236d6123f0565b500390565b60005b8381101561238d578181015183820152602001612375565b83811115610f735750506000910152565b6000816123ad576123ad6123f0565b506000190190565b600181811c908216806123c957607f821691505b602082108114156123ea57634e487b7160e01b600052602260045260246000fd5b50919050565b634e487b7160e01b600052601160045260246000fd5b634e487b7160e01b600052603160045260246000fd5b634e487b7160e01b600052603260045260246000fd5b634e487b7160e01b600052604160045260246000fd5b6001600160a01b038116811461075d57600080fdfea2646970667358221220dd24febba183f244f74d287a7091038eee04d0bda0ee24239020fc3a4e932b9e64736f6c63430008070033",
  "linkReferences": {},
  "deployedLinkReferences": {}
}