{
  "_format": "hh-sol-artifact-1",
  "contractName": "StakePool",
  "sourceName": "contracts/StakePool.sol",
  "abi": [
    {
      "inputs": [],
      "stateMutability": "nonpayable",
      "type": "constructor"
    },
    {
      "inputs": [],
      "name": "BNBTransferToUserFailed",
      "type": "error"
    },
    {
      "inputs": [],
      "name": "CantBeMoreThan1e18",
      "type": "error"
    },
    {
      "inputs": [],
      "name": "CantClaimBeforeDeadline",
      "type": "error"
    },
    {
      "inputs": [],
      "name": "CantSetMoreThan30PercentFee",
      "type": "error"
    },
    {
      "inputs": [],
      "name": "CooldownPeriodCantBeMoreThan30Days",
      "type": "error"
    },
    {
      "inputs": [
        {
          "internalType": "uint256",
          "name": "dust",
          "type": "uint256"
        }
      ],
      "name": "DustNotAllowed",
      "type": "error"
    },
    {
      "inputs": [
        {
          "internalType": "uint256",
          "name": "index",
          "type": "uint256"
        }
      ],
      "name": "IndexOutOfBounds",
      "type": "error"
    },
    {
      "inputs": [],
      "name": "InsufficientClaimReserve",
      "type": "error"
    },
    {
      "inputs": [],
      "name": "InsufficientFundsToSatisfyClaim",
      "type": "error"
    },
    {
      "inputs": [
        {
          "internalType": "string",
          "name": "tag",
          "type": "string"
        },
        {
          "internalType": "uint256",
          "name": "expected",
          "type": "uint256"
        },
        {
          "internalType": "uint256",
          "name": "got",
          "type": "uint256"
        }
      ],
      "name": "LessThanMinimum",
      "type": "error"
    },
    {
      "inputs": [],
      "name": "MinCrossChainTransferMustBeGreaterThanZero",
      "type": "error"
    },
    {
      "inputs": [],
      "name": "NumeratorMoreThanBasis",
      "type": "error"
    },
    {
      "inputs": [],
      "name": "PausableNotPaused",
      "type": "error"
    },
    {
      "inputs": [],
      "name": "PausablePaused",
      "type": "error"
    },
    {
      "inputs": [],
      "name": "ReentrancyGuardReentrantCall",
      "type": "error"
    },
    {
      "inputs": [
        {
          "internalType": "uint256",
          "name": "from",
          "type": "uint256"
        },
        {
          "internalType": "uint256",
          "name": "to",
          "type": "uint256"
        }
      ],
      "name": "ToIndexMustBeGreaterThanFromIndex",
      "type": "error"
    },
    {
      "inputs": [],
      "name": "TokenMintingToSelfNotAllowed",
      "type": "error"
    },
    {
      "inputs": [],
      "name": "TokenTransferToSelfNotAllowed",
      "type": "error"
    },
    {
      "inputs": [],
      "name": "TransferOutFailed",
      "type": "error"
    },
    {
      "inputs": [
        {
          "internalType": "address",
          "name": "to",
          "type": "address"
        }
      ],
      "name": "UnexpectedlyReceivedTokensForSomeoneElse",
      "type": "error"
    },
    {
      "inputs": [],
      "name": "UnknownSender",
      "type": "error"
    },
    {
      "anonymous": false,
      "inputs": [
        {
          "indexed": true,
          "internalType": "address",
          "name": "user",
          "type": "address"
        },
        {
          "components": [
            {
              "internalType": "uint256",
              "name": "weiToReturn",
              "type": "uint256"
            },
            {
              "internalType": "uint256",
              "name": "createdAt",
              "type": "uint256"
            }
          ],
          "indexed": false,
          "internalType": "struct StakePool.ClaimRequest",
          "name": "req",
          "type": "tuple"
        },
        {
          "indexed": false,
          "internalType": "uint256",
          "name": "timestamp",
          "type": "uint256"
        }
      ],
      "name": "Claim",
      "type": "event"
    },
    {
      "anonymous": false,
      "inputs": [],
      "name": "ConfigUpdated",
      "type": "event"
    },
    {
      "anonymous": false,
      "inputs": [
        {
          "indexed": true,
          "internalType": "address",
          "name": "user",
          "type": "address"
        },
        {
          "indexed": false,
          "internalType": "uint256",
          "name": "bnbAmount",
          "type": "uint256"
        },
        {
          "indexed": false,
          "internalType": "uint256",
          "name": "poolTokenAmount",
          "type": "uint256"
        },
        {
          "indexed": false,
          "internalType": "uint256",
          "name": "timestamp",
          "type": "uint256"
        }
      ],
      "name": "Deposit",
      "type": "event"
    },
    {
      "anonymous": false,
      "inputs": [
        {
          "indexed": false,
          "internalType": "uint256",
          "name": "bnbRewards",
          "type": "uint256"
        },
        {
          "indexed": false,
          "internalType": "uint256",
          "name": "feeTokens",
          "type": "uint256"
        }
      ],
      "name": "EpochUpdate",
      "type": "event"
    },
    {
      "anonymous": false,
      "inputs": [
        {
          "indexed": false,
          "internalType": "uint8",
          "name": "version",
          "type": "uint8"
        }
      ],
      "name": "Initialized",
      "type": "event"
    },
    {
      "anonymous": false,
      "inputs": [
        {
          "indexed": false,
          "internalType": "uint256",
          "name": "shortCircuitAmount",
          "type": "uint256"
        }
      ],
      "name": "InitiateDelegation_ShortCircuit",
      "type": "event"
    },
    {
      "anonymous": false,
      "inputs": [],
      "name": "InitiateDelegation_Success",
      "type": "event"
    },
    {
      "anonymous": false,
      "inputs": [
        {
          "indexed": false,
          "internalType": "uint256",
          "name": "transferOutAmount",
          "type": "uint256"
        }
      ],
      "name": "InitiateDelegation_TransferOut",
      "type": "event"
    },
    {
      "anonymous": false,
      "inputs": [
        {
          "indexed": false,
          "internalType": "address",
          "name": "account",
          "type": "address"
        }
      ],
      "name": "Paused",
      "type": "event"
    },
    {
      "anonymous": false,
      "inputs": [
        {
          "indexed": true,
          "internalType": "bytes32",
          "name": "role",
          "type": "bytes32"
        },
        {
          "indexed": true,
          "internalType": "bytes32",
          "name": "previousAdminRole",
          "type": "bytes32"
        },
        {
          "indexed": true,
          "internalType": "bytes32",
          "name": "newAdminRole",
          "type": "bytes32"
        }
      ],
      "name": "RoleAdminChanged",
      "type": "event"
    },
    {
      "anonymous": false,
      "inputs": [
        {
          "indexed": true,
          "internalType": "bytes32",
          "name": "role",
          "type": "bytes32"
        },
        {
          "indexed": true,
          "internalType": "address",
          "name": "account",
          "type": "address"
        },
        {
          "indexed": true,
          "internalType": "address",
          "name": "sender",
          "type": "address"
        }
      ],
      "name": "RoleGranted",
      "type": "event"
    },
    {
      "anonymous": false,
      "inputs": [
        {
          "indexed": true,
          "internalType": "bytes32",
          "name": "role",
          "type": "bytes32"
        },
        {
          "indexed": true,
          "internalType": "address",
          "name": "account",
          "type": "address"
        },
        {
          "indexed": true,
          "internalType": "address",
          "name": "sender",
          "type": "address"
        }
      ],
      "name": "RoleRevoked",
      "type": "event"
    },
    {
      "anonymous": false,
      "inputs": [
        {
          "indexed": false,
          "internalType": "uint256",
          "name": "unbondedAmount",
          "type": "uint256"
        }
      ],
      "name": "UnbondingFinished",
      "type": "event"
    },
    {
      "anonymous": false,
      "inputs": [
        {
          "indexed": false,
          "internalType": "uint256",
          "name": "bnbUnbonding",
          "type": "uint256"
        }
      ],
      "name": "UnbondingInitiated",
      "type": "event"
    },
    {
      "anonymous": false,
      "inputs": [
        {
          "indexed": false,
          "internalType": "address",
          "name": "account",
          "type": "address"
        }
      ],
      "name": "Unpaused",
      "type": "event"
    },
    {
      "anonymous": false,
      "inputs": [
        {
          "indexed": true,
          "internalType": "address",
          "name": "user",
          "type": "address"
        },
        {
          "indexed": false,
          "internalType": "uint256",
          "name": "poolTokenAmount",
          "type": "uint256"
        },
        {
          "indexed": false,
          "internalType": "uint256",
          "name": "bnbAmount",
          "type": "uint256"
        },
        {
          "indexed": false,
          "internalType": "uint256",
          "name": "timestamp",
          "type": "uint256"
        }
      ],
      "name": "Withdraw",
      "type": "event"
    },
    {
      "inputs": [],
      "name": "BOT_ROLE",
      "outputs": [
        {
          "internalType": "bytes32",
          "name": "",
          "type": "bytes32"
        }
      ],
      "stateMutability": "view",
      "type": "function"
    },
    {
      "inputs": [],
      "name": "DEFAULT_ADMIN_ROLE",
      "outputs": [
        {
          "internalType": "bytes32",
          "name": "",
          "type": "bytes32"
        }
      ],
      "stateMutability": "view",
      "type": "function"
    },
    {
      "inputs": [],
      "name": "addressStore",
      "outputs": [
        {
          "internalType": "contract IAddressStore",
          "name": "",
          "type": "address"
        }
      ],
      "stateMutability": "view",
      "type": "function"
    },
    {
      "inputs": [],
      "name": "bnbToUnbond",
      "outputs": [
        {
          "internalType": "int256",
          "name": "",
          "type": "int256"
        }
      ],
      "stateMutability": "view",
      "type": "function"
    },
    {
      "inputs": [],
      "name": "bnbUnbonding",
      "outputs": [
        {
          "internalType": "uint256",
          "name": "",
          "type": "uint256"
        }
      ],
      "stateMutability": "view",
      "type": "function"
    },
    {
      "inputs": [
        {
          "internalType": "uint256",
          "name": "index",
          "type": "uint256"
        }
      ],
      "name": "claim",
      "outputs": [],
      "stateMutability": "nonpayable",
      "type": "function"
    },
    {
      "inputs": [],
      "name": "claimAll",
      "outputs": [],
      "stateMutability": "nonpayable",
      "type": "function"
    },
    {
      "inputs": [
        {
          "internalType": "address",
          "name": "",
          "type": "address"
        },
        {
          "internalType": "uint256",
          "name": "",
          "type": "uint256"
        }
      ],
      "name": "claimReqs",
      "outputs": [
        {
          "internalType": "uint256",
          "name": "weiToReturn",
          "type": "uint256"
        },
        {
          "internalType": "uint256",
          "name": "createdAt",
          "type": "uint256"
        }
      ],
      "stateMutability": "view",
      "type": "function"
    },
    {
      "inputs": [],
      "name": "claimReserve",
      "outputs": [
        {
          "internalType": "uint256",
          "name": "",
          "type": "uint256"
        }
      ],
      "stateMutability": "view",
      "type": "function"
    },
    {
      "inputs": [],
      "name": "config",
      "outputs": [
        {
          "internalType": "address",
          "name": "bcStakingWallet",
          "type": "address"
        },
        {
          "internalType": "uint256",
          "name": "minCrossChainTransfer",
          "type": "uint256"
        },
        {
          "internalType": "uint256",
          "name": "minBNBDeposit",
          "type": "uint256"
        },
        {
          "internalType": "uint256",
          "name": "minTokenWithdrawal",
          "type": "uint256"
        },
        {
          "internalType": "uint256",
          "name": "cooldownPeriod",
          "type": "uint256"
        },
        {
          "components": [
            {
              "internalType": "uint256",
              "name": "reward",
              "type": "uint256"
            },
            {
              "internalType": "uint256",
              "name": "deposit",
              "type": "uint256"
            },
            {
              "internalType": "uint256",
              "name": "withdraw",
              "type": "uint256"
            }
          ],
          "internalType": "struct FeeDistribution.Data",
          "name": "fee",
          "type": "tuple"
        }
      ],
      "stateMutability": "view",
      "type": "function"
    },
    {
      "inputs": [],
      "name": "deposit",
      "outputs": [],
      "stateMutability": "payable",
      "type": "function"
    },
    {
      "inputs": [
        {
          "internalType": "uint256",
          "name": "bnbRewards",
          "type": "uint256"
        }
      ],
      "name": "epochUpdate",
      "outputs": [],
      "stateMutability": "nonpayable",
      "type": "function"
    },
    {
      "inputs": [],
      "name": "exchangeRate",
      "outputs": [
        {
          "internalType": "uint256",
          "name": "totalWei",
          "type": "uint256"
        },
        {
          "internalType": "uint256",
          "name": "poolTokenSupply",
          "type": "uint256"
        }
      ],
      "stateMutability": "view",
      "type": "function"
    },
    {
      "inputs": [
        {
          "internalType": "address",
          "name": "user",
          "type": "address"
        }
      ],
      "name": "getClaimRequestCount",
      "outputs": [
        {
          "internalType": "uint256",
          "name": "",
          "type": "uint256"
        }
      ],
      "stateMutability": "view",
      "type": "function"
    },
    {
      "inputs": [
        {
          "internalType": "address",
          "name": "user",
          "type": "address"
        },
        {
          "internalType": "uint256",
          "name": "from",
          "type": "uint256"
        },
        {
          "internalType": "uint256",
          "name": "to",
          "type": "uint256"
        }
      ],
      "name": "getPaginatedClaimRequests",
      "outputs": [
        {
          "components": [
            {
              "internalType": "uint256",
              "name": "weiToReturn",
              "type": "uint256"
            },
            {
              "internalType": "uint256",
              "name": "createdAt",
              "type": "uint256"
            }
          ],
          "internalType": "struct StakePool.ClaimRequest[]",
          "name": "",
          "type": "tuple[]"
        }
      ],
      "stateMutability": "view",
      "type": "function"
    },
    {
      "inputs": [
        {
          "internalType": "bytes32",
          "name": "role",
          "type": "bytes32"
        }
      ],
      "name": "getRoleAdmin",
      "outputs": [
        {
          "internalType": "bytes32",
          "name": "",
          "type": "bytes32"
        }
      ],
      "stateMutability": "view",
      "type": "function"
    },
    {
      "inputs": [
        {
          "internalType": "bytes32",
          "name": "role",
          "type": "bytes32"
        },
        {
          "internalType": "uint256",
          "name": "index",
          "type": "uint256"
        }
      ],
      "name": "getRoleMember",
      "outputs": [
        {
          "internalType": "address",
          "name": "",
          "type": "address"
        }
      ],
      "stateMutability": "view",
      "type": "function"
    },
    {
      "inputs": [
        {
          "internalType": "bytes32",
          "name": "role",
          "type": "bytes32"
        }
      ],
      "name": "getRoleMemberCount",
      "outputs": [
        {
          "internalType": "uint256",
          "name": "",
          "type": "uint256"
        }
      ],
      "stateMutability": "view",
      "type": "function"
    },
    {
      "inputs": [
        {
          "internalType": "bytes32",
          "name": "role",
          "type": "bytes32"
        },
        {
          "internalType": "address",
          "name": "account",
          "type": "address"
        }
      ],
      "name": "grantRole",
      "outputs": [],
      "stateMutability": "nonpayable",
      "type": "function"
    },
    {
      "inputs": [
        {
          "internalType": "bytes32",
          "name": "role",
          "type": "bytes32"
        },
        {
          "internalType": "address",
          "name": "account",
          "type": "address"
        }
      ],
      "name": "hasRole",
      "outputs": [
        {
          "internalType": "bool",
          "name": "",
          "type": "bool"
        }
      ],
      "stateMutability": "view",
      "type": "function"
    },
    {
      "inputs": [
        {
          "internalType": "contract IAddressStore",
          "name": "addressStore_",
          "type": "address"
        },
        {
          "components": [
            {
              "internalType": "address",
              "name": "bcStakingWallet",
              "type": "address"
            },
            {
              "internalType": "uint256",
              "name": "minCrossChainTransfer",
              "type": "uint256"
            },
            {
              "internalType": "uint256",
              "name": "minBNBDeposit",
              "type": "uint256"
            },
            {
              "internalType": "uint256",
              "name": "minTokenWithdrawal",
              "type": "uint256"
            },
            {
              "internalType": "uint256",
              "name": "cooldownPeriod",
              "type": "uint256"
            },
            {
              "components": [
                {
                  "internalType": "uint256",
                  "name": "reward",
                  "type": "uint256"
                },
                {
                  "internalType": "uint256",
                  "name": "deposit",
                  "type": "uint256"
                },
                {
                  "internalType": "uint256",
                  "name": "withdraw",
                  "type": "uint256"
                }
              ],
              "internalType": "struct FeeDistribution.Data",
              "name": "fee",
              "type": "tuple"
            }
          ],
          "internalType": "struct Config.Data",
          "name": "config_",
          "type": "tuple"
        }
      ],
      "name": "initialize",
      "outputs": [],
      "stateMutability": "nonpayable",
      "type": "function"
    },
    {
      "inputs": [],
      "name": "initiateDelegation",
      "outputs": [],
      "stateMutability": "nonpayable",
      "type": "function"
    },
    {
      "inputs": [],
      "name": "pause",
      "outputs": [],
      "stateMutability": "nonpayable",
      "type": "function"
    },
    {
      "inputs": [],
      "name": "paused",
      "outputs": [
        {
          "internalType": "bool",
          "name": "",
          "type": "bool"
        }
      ],
      "stateMutability": "view",
      "type": "function"
    },
    {
      "inputs": [
        {
          "internalType": "bytes32",
          "name": "role",
          "type": "bytes32"
        },
        {
          "internalType": "address",
          "name": "account",
          "type": "address"
        }
      ],
      "name": "renounceRole",
      "outputs": [],
      "stateMutability": "nonpayable",
      "type": "function"
    },
    {
      "inputs": [
        {
          "internalType": "bytes32",
          "name": "role",
          "type": "bytes32"
        },
        {
          "internalType": "address",
          "name": "account",
          "type": "address"
        }
      ],
      "name": "revokeRole",
      "outputs": [],
      "stateMutability": "nonpayable",
      "type": "function"
    },
    {
      "inputs": [
        {
          "internalType": "bytes4",
          "name": "interfaceId",
          "type": "bytes4"
        }
      ],
      "name": "supportsInterface",
      "outputs": [
        {
          "internalType": "bool",
          "name": "",
          "type": "bool"
        }
      ],
      "stateMutability": "view",
      "type": "function"
    },
    {
      "inputs": [
        {
          "internalType": "address",
          "name": "",
          "type": "address"
        },
        {
          "internalType": "address",
          "name": "from",
          "type": "address"
        },
        {
          "internalType": "address",
          "name": "to",
          "type": "address"
        },
        {
          "internalType": "uint256",
          "name": "amount",
          "type": "uint256"
        },
        {
          "internalType": "bytes",
          "name": "",
          "type": "bytes"
        },
        {
          "internalType": "bytes",
          "name": "",
          "type": "bytes"
        }
      ],
      "name": "tokensReceived",
      "outputs": [],
      "stateMutability": "nonpayable",
      "type": "function"
    },
    {
      "inputs": [],
      "name": "unbondingFinished",
      "outputs": [],
      "stateMutability": "nonpayable",
      "type": "function"
    },
    {
      "inputs": [
        {
          "internalType": "uint256",
          "name": "bnbUnbonding_",
          "type": "uint256"
        }
      ],
      "name": "unbondingInitiated",
      "outputs": [],
      "stateMutability": "nonpayable",
      "type": "function"
    },
    {
      "inputs": [],
      "name": "unpause",
      "outputs": [],
      "stateMutability": "nonpayable",
      "type": "function"
    },
    {
      "inputs": [
        {
          "components": [
            {
              "internalType": "address",
              "name": "bcStakingWallet",
              "type": "address"
            },
            {
              "internalType": "uint256",
              "name": "minCrossChainTransfer",
              "type": "uint256"
            },
            {
              "internalType": "uint256",
              "name": "minBNBDeposit",
              "type": "uint256"
            },
            {
              "internalType": "uint256",
              "name": "minTokenWithdrawal",
              "type": "uint256"
            },
            {
              "internalType": "uint256",
              "name": "cooldownPeriod",
              "type": "uint256"
            },
            {
              "components": [
                {
                  "internalType": "uint256",
                  "name": "reward",
                  "type": "uint256"
                },
                {
                  "internalType": "uint256",
                  "name": "deposit",
                  "type": "uint256"
                },
                {
                  "internalType": "uint256",
                  "name": "withdraw",
                  "type": "uint256"
                }
              ],
              "internalType": "struct FeeDistribution.Data",
              "name": "fee",
              "type": "tuple"
            }
          ],
          "internalType": "struct Config.Data",
          "name": "config_",
          "type": "tuple"
        }
      ],
      "name": "updateConfig",
      "outputs": [],
      "stateMutability": "nonpayable",
      "type": "function"
    },
    {
      "stateMutability": "payable",
      "type": "receive"
    }
  ],
  "bytecode": "0x60806040523480156200001157600080fd5b506200001c62000022565b620000e4565b600054610100900460ff16156200008f5760405162461bcd60e51b815260206004820152602760248201527f496e697469616c697a61626c653a20636f6e747261637420697320696e697469604482015266616c697a696e6760c81b606482015260840160405180910390fd5b60005460ff9081161015620000e2576000805460ff191660ff9081179091556040519081527f7f26b83ff96e1f2b6a682f133852f6798a09c465da95921460cefb38474024989060200160405180910390a15b565b612f5d80620000f46000396000f3fe6080604052600436106101e65760003560e01c806379502c5511610102578063b150377411610095578063d1058e5911610064578063d1058e59146106c2578063d547741f146106d7578063f773d87d146106f7578063fa6c2f7d1461071757600080fd5b8063b15037741461065a578063c773c8f71461067c578063ca15c8731461069a578063d0e30db0146106ba57600080fd5b80639010d07c116100d15780639010d07c146105cd57806391d14854146106055780639c0cced114610625578063a217fddf1461064557600080fd5b806379502c55146104c25780638456cb59146105625780638b2bf29f146105775780638be780831461059757600080fd5b80633f4ba83a1161017a5780635d97914c116101495780635d97914c1461044b5780636eb959401461046057806372bd5c941461047557806375ccc37a1461049557600080fd5b80633f4ba83a146103f45780633fe5f0541461040957806354cc6d9d1461041e5780635c975abb1461043357600080fd5b80632ff761d8116101b65780632ff761d81461036457806336568abe14610384578063379607f5146103a45780633ba0b9a9146103c457600080fd5b806223de29146102b157806301ffc9a7146102d1578063248a9ca3146103065780632f2ff15d1461034457600080fd5b366102ac576101f361072c565b60c960009054906101000a90046001600160a01b03166001600160a01b03166388d1161d6040518163ffffffff1660e01b815260040160206040518083038186803b15801561024157600080fd5b505afa158015610255573d6000803e3d6000fd5b505050506040513d601f19601f820116820180604052508101906102799190612916565b6001600160a01b0316336001600160a01b0316146102aa5760405163399a77fd60e01b815260040160405180910390fd5b005b600080fd5b3480156102bd57600080fd5b506102aa6102cc366004612933565b610752565b3480156102dd57600080fd5b506102f16102ec366004612ad2565b6108f4565b60405190151581526020015b60405180910390f35b34801561031257600080fd5b50610336610321366004612a67565b60009081526065602052604090206001015490565b6040519081526020016102fd565b34801561035057600080fd5b506102aa61035f366004612a80565b61091f565b34801561037057600080fd5b506102aa61037f366004612afc565b610949565b34801561039057600080fd5b506102aa61039f366004612a80565b610a5d565b3480156103b057600080fd5b506102aa6103bf366004612a67565b610adb565b3480156103d057600080fd5b5060d75460d8546103df919082565b604080519283526020830191909152016102fd565b34801561040057600080fd5b506102aa610b1e565b34801561041557600080fd5b5060d654610336565b34801561042a57600080fd5b506102aa610b72565b34801561043f57600080fd5b5060d25460ff166102f1565b34801561045757600080fd5b5060d454610336565b34801561046c57600080fd5b5060d554610336565b34801561048157600080fd5b506102aa610490366004612a67565b610ceb565b3480156104a157600080fd5b506104b56104b0366004612a10565b610f29565b6040516102fd9190612c40565b3480156104ce57600080fd5b5060ca5460cb5460cc5460cd5460ce546040805160608101825260cf54815260d054602082015260d15491810191909152610514956001600160a01b0316949392919086565b604080516001600160a01b0390971687526020808801969096528681019490945260608601929092526080850152805160a08501529182015160c0840152015160e0820152610100016102fd565b34801561056e57600080fd5b506102aa6110e3565b34801561058357600080fd5b506102aa610592366004612a67565b611133565b3480156105a357600080fd5b506103366105b23660046128f9565b6001600160a01b0316600090815260d9602052604090205490565b3480156105d957600080fd5b506105ed6105e8366004612ab0565b6111bb565b6040516001600160a01b0390911681526020016102fd565b34801561061157600080fd5b506102f1610620366004612a80565b6111da565b34801561063157600080fd5b506102aa610640366004612b33565b611205565b34801561065157600080fd5b50610336600081565b34801561066657600080fd5b50610336600080516020612f0883398151915281565b34801561068857600080fd5b5060c9546001600160a01b03166105ed565b3480156106a657600080fd5b506103366106b5366004612a67565b611248565b6102aa61125f565b3480156106ce57600080fd5b506102aa61151b565b3480156106e357600080fd5b506102aa6106f2366004612a80565b61157f565b34801561070357600080fd5b506103df6107123660046129e4565b6115a4565b34801561072357600080fd5b506102aa6115e0565b60d25460ff16156107505760405163928dfa7760e01b815260040160405180910390fd5b565b61075a61072c565b610762611898565b60408051808201909152600a81526915da5d1a191c985dd85b60b21b602082015260cd54866107928383836118c3565b60c960009054906101000a90046001600160a01b03166001600160a01b031663e016dedc6040518163ffffffff1660e01b815260040160206040518083038186803b1580156107e057600080fd5b505afa1580156107f4573d6000803e3d6000fd5b505050506040513d601f19601f820116820180604052508101906108189190612916565b6001600160a01b0316336001600160a01b0316146108495760405163399a77fd60e01b815260040160405180910390fd5b6001600160a01b038a166108705760405163eb577da760e01b815260040160405180910390fd5b6001600160a01b038a1630141561089a576040516315bddb7b60e01b815260040160405180910390fd5b6001600160a01b03891630146108d3576040516338a5c37560e01b81526001600160a01b038a1660048201526024015b60405180910390fd5b6108dd8a89611920565b5050506108ea600160d355565b5050505050505050565b60006001600160e01b03198216635a05180f60e01b1480610919575061091982611c29565b92915050565b60008281526065602052604090206001015461093a81611c5e565b6109448383611c68565b505050565b600054610100900460ff16158080156109695750600054600160ff909116105b806109835750303b158015610983575060005460ff166001145b6109e65760405162461bcd60e51b815260206004820152602e60248201527f496e697469616c697a61626c653a20636f6e747261637420697320616c72656160448201526d191e481a5b9a5d1a585b1a5e995960921b60648201526084016108ca565b6000805460ff191660011790558015610a09576000805461ff0019166101001790555b610a138383611c8a565b8015610944576000805461ff0019169055604051600181527f7f26b83ff96e1f2b6a682f133852f6798a09c465da95921460cefb38474024989060200160405180910390a1505050565b6001600160a01b0381163314610acd5760405162461bcd60e51b815260206004820152602f60248201527f416363657373436f6e74726f6c3a2063616e206f6e6c792072656e6f756e636560448201526e103937b632b9903337b91039b2b63360891b60648201526084016108ca565b610ad78282611cbb565b5050565b610ae361072c565b610aeb611898565b610af481611cdd565b610b1157604051637e868a7360e01b815260040160405180910390fd5b610b1b600160d355565b50565b6000610b2981611c5e565b610b31611f5b565b60d2805460ff191690556040513381527f5db9ee0a495bf2e6ff9c91a7834c1ba4fdd244a5e8aa4e537bd38aeae4b073aa906020015b60405180910390a150565b610b7a61072c565b600080516020612f08833981519152610b9281611c5e565b60c954604080516388d1161d60e01b815290516000926001600160a01b0316916388d1161d916004808301926020929190829003018186803b158015610bd757600080fd5b505afa158015610beb573d6000803e3d6000fd5b505050506040513d601f19601f82011682018060405250810190610c0f9190612916565b6001600160a01b03166347066d026040518163ffffffff1660e01b8152600401602060405180830381600087803b158015610c4957600080fd5b505af1158015610c5d573d6000803e3d6000fd5b505050506040513d601f19601f82011682018060405250810190610c819190612b50565b90508060d56000828254610c959190612de5565b925050819055508060d66000828254610cae9190612d5b565b90915550506040518181527f31690952e66f4ee8423e3087dcbc0687ddee8d263986b865229aee4ebdbafea5906020015b60405180910390a15050565b610cf361072c565b600080516020612f08833981519152610d0b81611c5e565b60cf54600090610d1b9084611f7d565b90506000818460d760000154610d319190612d5b565b610d3b9190612de5565b60d854610d489084612d87565b610d529190612d73565b9050610d7f604051806040016040528086815260200183815250600060d7611f999092919063ffffffff16565b60c960009054906101000a90046001600160a01b03166001600160a01b031663e016dedc6040518163ffffffff1660e01b815260040160206040518083038186803b158015610dcd57600080fd5b505afa158015610de1573d6000803e3d6000fd5b505050506040513d601f19601f82011682018060405250810190610e059190612916565b6001600160a01b031663dcdc7dd060c960009054906101000a90046001600160a01b03166001600160a01b031663ec0f7cf06040518163ffffffff1660e01b815260040160206040518083038186803b158015610e6157600080fd5b505afa158015610e75573d6000803e3d6000fd5b505050506040513d601f19601f82011682018060405250810190610e999190612916565b836040518363ffffffff1660e01b8152600401610eb7929190612c0a565b600060405180830381600087803b158015610ed157600080fd5b505af1158015610ee5573d6000803e3d6000fd5b505060408051878152602081018590527fcb62e14f4587604f4099c842d98789e47ebdd0ccbf6fd86a0581aa337a602eb1935001905060405180910390a150505050565b6001600160a01b038316600090815260d960205260409020546060908310610f675760405163112517f360e21b8152600481018490526024016108ca565b818310610f9157604051630dfc263960e01b815260048101849052602481018390526044016108ca565b6001600160a01b038416600090815260d96020526040902054821115610fcd576001600160a01b038416600090815260d9602052604090205491505b6000610fd98484612de5565b67ffffffffffffffff811115610ff157610ff1612edc565b60405190808252806020026020018201604052801561103657816020015b604080518082019091526000808252602082015281526020019060019003908161100f5790505b50905060005b6110468585612de5565b8110156110da576001600160a01b038616600090815260d96020526040902061106f8287612d5b565b8154811061107f5761107f612ec6565b9060005260206000209060020201604051806040016040529081600082015481526020016001820154815250508282815181106110be576110be612ec6565b6020026020010181905250806110d390612e3f565b905061103c565b50949350505050565b60006110ee81611c5e565b6110f661072c565b60d2805460ff191660011790556040513381527f62e78cea01bee320cd4e420270b5ea74000d11b0c9f74754ebdbfc544b05a25890602001610b67565b61113b61072c565b600080516020612f0883398151915261115381611c5e565b61115c8261202c565b60d4600082825461116d9190612da6565b925050819055508160d560008282546111869190612d5b565b90915550506040518281527ffcfebef86ea31f185fe5d81c5fe96ba3835d0e293f58bb5d33907c3c1522ba8790602001610cdf565b60008281526097602052604081206111d3908361209a565b9392505050565b60009182526065602090815260408084206001600160a01b0393909316845291905290205460ff1690565b600061121081611c5e565b61121b60ca836120a6565b6040517ffe891c6ab12cf73707f8deb6600c12ba382e4cc31eb2b0a2754cad13075ed2d190600090a15050565b6000818152609760205260408120610919906120b9565b61126761072c565b61126f611898565b60408051808201909152600781526611195c1bdcda5d60ca1b602082015260cc543461129c8383836118c3565b3460006112aa60d7836120c3565b60d0549091506000906112bd9083611f7d565b905060006112cb8284612de5565b90506112f8604051806040016040528086815260200185815250600060d7611f999092919063ffffffff16565b60c95460408051633805b7b760e21b815290516000926001600160a01b03169163e016dedc916004808301926020929190829003018186803b15801561133d57600080fd5b505afa158015611351573d6000803e3d6000fd5b505050506040513d601f19601f820116820180604052508101906113759190612916565b604051630dcdc7dd60e41b81529091506001600160a01b0382169063dcdc7dd0906113a69033908690600401612c0a565b600060405180830381600087803b1580156113c057600080fd5b505af11580156113d4573d6000803e3d6000fd5b5050505060008311156114c757806001600160a01b031663dcdc7dd060c960009054906101000a90046001600160a01b03166001600160a01b031663ec0f7cf06040518163ffffffff1660e01b815260040160206040518083038186803b15801561143e57600080fd5b505afa158015611452573d6000803e3d6000fd5b505050506040513d601f19601f820116820180604052508101906114769190612916565b856040518363ffffffff1660e01b8152600401611494929190612c0a565b600060405180830381600087803b1580156114ae57600080fd5b505af11580156114c2573d6000803e3d6000fd5b505050505b60408051348152602081018490524281830152905133917f36af321ec8d3c75236829c5317affd40ddb308863a1236d2d277a4025cccee1e919081900360600190a25050505050505050610750600160d355565b61152361072c565b61152b611898565b33600090815260d96020526040812054905b818110156115735761154e81611cdd565b156115635761155c82612e28565b915061153d565b61156c81612e3f565b905061153d565b5050610750600160d355565b60008281526065602052604090206001015461159a81611c5e565b6109448383611cbb565b60d960205281600052604060002081815481106115c057600080fd5b600091825260209091206002909102018054600190910154909250905082565b6115e861072c565b600080516020612f0883398151915261160081611c5e565b600060d654476116109190612de5565b905060006110046001600160a01b031663149d14d96040518163ffffffff1660e01b815260040160206040518083038186803b15801561164f57600080fd5b505afa158015611663573d6000803e3d6000fd5b505050506040513d601f19601f820116820180604052508101906116879190612b50565b60cb549091506116979082612d5b565b82106117c65760006116a98284612de5565b60ca549091506000906110049063aa7415f590869084906001600160a01b0316866116d642610e10612d5b565b6040516001600160e01b031960e088901b1681526001600160a01b039485166004820152939092166024840152604483015267ffffffffffffffff1660648201526084016020604051808303818588803b15801561173357600080fd5b505af1158015611747573d6000803e3d6000fd5b50505050506040513d601f19601f8201168201806040525081019061176c9190612a45565b90508061178c5760405163cefaffeb60e01b815260040160405180910390fd5b6040518281527f12ba36faeb29044a46a4f5a2b0a55480ca8c22bd52e1bad4f913cd1c6a2811fa9060200160405180910390a1505061186a565b6000821180156117d85750600060d454135b1561186a5760006117e88361202c565b60d45413156117f85750816117fd565b5060d4545b6118068161202c565b60d460008282546118179190612da6565b925050819055508060d660008282546118309190612d5b565b90915550506040518181527f398a2b33a17101f76ac0227b1c277b01d5ce921579fc0ebcc8a10083ba53fcd19060200160405180910390a1505b6040517fab39d195fb15cf2b785ee487c131ff8eb2b3c97d2750756b63e3b11e81a11cfb90600090a1505050565b600260d35414156118bc57604051633ee5aeb560e01b815260040160405180910390fd5b600260d355565b818110156118ea57828282604051631a14281160e01b81526004016108ca93929190612caa565b60006118f68383612e5a565b9050801561191a57604051634301c31b60e01b8152600481018290526024016108ca565b50505050565b60d1546000906119309083611f7d565b9050600061193e8284612de5565b9050600061194d60d7836120f3565b6001600160a01b038616600090815260d9602090815260408083208151808301909252848252428284019081528154600181810184559286529390942091516002909302909101918255915191015590506119a78161202c565b60d460008282546119b89190612d1a565b909155505060408051808201909152818152602081018390526119df9060d7906001611f99565b60c95460408051633805b7b760e21b815290516000926001600160a01b03169163e016dedc916004808301926020929190829003018186803b158015611a2457600080fd5b505afa158015611a38573d6000803e3d6000fd5b505050506040513d601f19601f82011682018060405250810190611a5c9190612916565b6040805163fe9d930360e01b8152600481018690526024810191909152600060448201529091506001600160a01b0382169063fe9d930390606401600060405180830381600087803b158015611ab157600080fd5b505af1158015611ac5573d6000803e3d6000fd5b505050506000841115611bd657806001600160a01b0316639bd9bbc660c960009054906101000a90046001600160a01b03166001600160a01b031663ec0f7cf06040518163ffffffff1660e01b815260040160206040518083038186803b158015611b2f57600080fd5b505afa158015611b43573d6000803e3d6000fd5b505050506040513d601f19601f82011682018060405250810190611b679190612916565b6040516001600160e01b031960e084901b1681526001600160a01b039091166004820152602481018790526060604482015260006064820152608401600060405180830381600087803b158015611bbd57600080fd5b505af1158015611bd1573d6000803e3d6000fd5b505050505b6040805186815260208101849052428183015290516001600160a01b038816917f02f25270a4d87bea75db541cdfe559334a275b4a233520ed6c0a2429667cca94919081900360600190a2505050505050565b60006001600160e01b03198216637965db0b60e01b148061091957506301ffc9a760e01b6001600160e01b0319831614610919565b610b1b813361213b565b611c72828261219f565b60008281526097602052604090206109449082612225565b600054610100900460ff16611cb15760405162461bcd60e51b81526004016108ca90612ccf565b610ad7828261223a565b611cc58282612351565b600082815260976020526040902061094490826123b8565b33600090815260d960205260408120548210611d0f5760405163112517f360e21b8152600481018390526024016108ca565b33600090815260d960205260408120805484908110611d3057611d30612ec6565b9060005260206000209060020201604051806040016040529081600082015481526020016001820154815250509050611d68816123cd565b611d755750600092915050565b8051471015611d975760405163e723ea5960e01b815260040160405180910390fd5b805160d6541015611dbb5760405163df536f6160e01b815260040160405180910390fd5b805160d68054600090611dcf908490612de5565b909155505033600090815260d9602052604090208054611df190600190612de5565b81548110611e0157611e01612ec6565b906000526020600020906002020160d96000336001600160a01b03166001600160a01b031681526020019081526020016000208481548110611e4557611e45612ec6565b600091825260208083208454600290930201918255600193840154939091019290925533815260d990915260409020805480611e8357611e83612eb0565b60008281526020812060026000199390930192830201818155600101819055915581516040513391908381818185875af1925050503d8060008114611ee4576040519150601f19603f3d011682016040523d82523d6000602084013e611ee9565b606091505b5050905080611f0b5760405163243d868360e11b815260040160405180910390fd5b6040805183518152602080850151908201524281830152905133917f68b2280298dbae04fabb3ba3aec3f939aebaf17f3b57811225a496cafee6f9c6919081900360600190a25060019392505050565b60d25460ff166107505760405162c5619760e61b815260040160405180910390fd5b600064174876e800611f8f8484612d87565b6111d39190612d73565b6000816001811115611fad57611fad612e9a565b1415611ff057815183548490600090611fc7908490612d5b565b90915550506020820151600184018054600090611fe5908490612d5b565b909155506109449050565b815183548490600090612004908490612de5565b90915550506020820151600184018054600090612022908490612de5565b9091555050505050565b60006001600160ff1b038211156120965760405162461bcd60e51b815260206004820152602860248201527f53616665436173743a2076616c756520646f65736e27742066697420696e2061604482015267371034b73a191a9b60c11b60648201526084016108ca565b5090565b60006111d383836123e9565b6120af81612413565b610ad782826124c3565b6000610919825490565b815460009015806120d657506001830154155b156120e2575080610919565b82546001840154611f8f9084612d87565b815460009081906121049084612d87565b600185015490915080821080612118575080155b1561212857600092505050610919565b6121328183612d73565b95945050505050565b61214582826111da565b610ad75761215d816001600160a01b03166014612538565b612168836020612538565b604051602001612179929190612b95565b60408051601f198184030181529082905262461bcd60e51b82526108ca91600401612c97565b6121a982826111da565b610ad75760008281526065602090815260408083206001600160a01b03851684529091529020805460ff191660011790556121e13390565b6001600160a01b0316816001600160a01b0316837f2f8788117e7eff1d82e926ec794901d17c78024a50270940304540a733656f0d60405160405180910390a45050565b60006111d3836001600160a01b0384166126d4565b600054610100900460ff166122615760405162461bcd60e51b81526004016108ca90612ccf565b60c980546001600160a01b0319166001600160a01b03841617905561228760ca826120a6565b60d2805460ff1916600190811790915560d355600060d481905560d581905560d681905560d781905560d8556040516329965a1d60e01b815230600482018190527fb281fc8c12954d22544db45de3159a39272895b169a852b314f9cc762e44c53b60248301526044820152731820a4b7618bde71dce8cdc73aab6c95905fad24906329965a1d90606401600060405180830381600087803b15801561232c57600080fd5b505af1158015612340573d6000803e3d6000fd5b50505050610ad76000801b33611c68565b61235b82826111da565b15610ad75760008281526065602090815260408083206001600160a01b0385168085529252808320805460ff1916905551339285917ff6391f5c32d9c69d2a47ea670b442974b53935d1edc7fd64eb21e047a839171b9190a45050565b60006111d3836001600160a01b038416612723565b60ce5460208201516000916123e191612d5b565b421192915050565b600082600001828154811061240057612400612ec6565b9060005260206000200154905092915050565b61241f8160a001612816565b602081013561244157604051630334eb0560e51b815260040160405180910390fd5b670de0b6b3a76400008160400135111561246e57604051630383d89960e11b815260040160405180910390fd5b670de0b6b3a76400008160600135111561249b57604051630383d89960e11b815260040160405180910390fd5b62278d0081608001351115610b1b57604051633c77abc560e21b815260040160405180910390fd5b6124d060208201826128f9565b82546001600160a01b0319166001600160a01b039190911617825560208101356001830155604081013560028301556060810135600383015560808101356004830155610ad76005830160a08301803582556020810135600183015560400135600290910155565b60606000612547836002612d87565b612552906002612d5b565b67ffffffffffffffff81111561256a5761256a612edc565b6040519080825280601f01601f191660200182016040528015612594576020820181803683370190505b509050600360fc1b816000815181106125af576125af612ec6565b60200101906001600160f81b031916908160001a905350600f60fb1b816001815181106125de576125de612ec6565b60200101906001600160f81b031916908160001a9053506000612602846002612d87565b61260d906001612d5b565b90505b6001811115612685576f181899199a1a9b1b9c1cb0b131b232b360811b85600f166010811061264157612641612ec6565b1a60f81b82828151811061265757612657612ec6565b60200101906001600160f81b031916908160001a90535060049490941c9361267e81612e28565b9050612610565b5083156111d35760405162461bcd60e51b815260206004820181905260248201527f537472696e67733a20686578206c656e67746820696e73756666696369656e7460448201526064016108ca565b600081815260018301602052604081205461271b57508154600181810184556000848152602080822090930184905584548482528286019093526040902091909155610919565b506000610919565b6000818152600183016020526040812054801561280c576000612747600183612de5565b855490915060009061275b90600190612de5565b90508181146127c057600086600001828154811061277b5761277b612ec6565b906000526020600020015490508087600001848154811061279e5761279e612ec6565b6000918252602080832090910192909255918252600188019052604090208390555b85548690806127d1576127d1612eb0565b600190038181906000526020600020016000905590558560010160008681526020019081526020016000206000905560019350505050610919565b6000915050610919565b6128208135612836565b61282d8160200135612836565b610b1b81604001355b64174876e80081111561285c5760405163c254ce4960e01b815260040160405180910390fd5b61286c606464174876e800612d73565b61287790601e612d87565b811115610b1b5760405163b358944160e01b815260040160405180910390fd5b60008083601f8401126128a957600080fd5b50813567ffffffffffffffff8111156128c157600080fd5b6020830191508360208285010111156128d957600080fd5b9250929050565b600061010082840312156128f357600080fd5b50919050565b60006020828403121561290b57600080fd5b81356111d381612ef2565b60006020828403121561292857600080fd5b81516111d381612ef2565b60008060008060008060008060c0898b03121561294f57600080fd5b883561295a81612ef2565b9750602089013561296a81612ef2565b9650604089013561297a81612ef2565b955060608901359450608089013567ffffffffffffffff8082111561299e57600080fd5b6129aa8c838d01612897565b909650945060a08b01359150808211156129c357600080fd5b506129d08b828c01612897565b999c989b5096995094979396929594505050565b600080604083850312156129f757600080fd5b8235612a0281612ef2565b946020939093013593505050565b600080600060608486031215612a2557600080fd5b8335612a3081612ef2565b95602085013595506040909401359392505050565b600060208284031215612a5757600080fd5b815180151581146111d357600080fd5b600060208284031215612a7957600080fd5b5035919050565b60008060408385031215612a9357600080fd5b823591506020830135612aa581612ef2565b809150509250929050565b60008060408385031215612ac357600080fd5b50508035926020909101359150565b600060208284031215612ae457600080fd5b81356001600160e01b0319811681146111d357600080fd5b6000806101208385031215612b1057600080fd5b8235612b1b81612ef2565b9150612b2a84602085016128e0565b90509250929050565b60006101008284031215612b4657600080fd5b6111d383836128e0565b600060208284031215612b6257600080fd5b5051919050565b60008151808452612b81816020860160208601612dfc565b601f01601f19169290920160200192915050565b7f416363657373436f6e74726f6c3a206163636f756e7420000000000000000000815260008351612bcd816017850160208801612dfc565b7001034b99036b4b9b9b4b733903937b6329607d1b6017918401918201528351612bfe816028840160208801612dfc565b01602801949350505050565b6001600160a01b039290921682526020820152608060408201819052600090820181905260a06060830181905282015260c00190565b602080825282518282018190526000919060409081850190868401855b82811015612c8a57612c7a84835180518252602090810151910152565b9284019290850190600101612c5d565b5091979650505050505050565b6020815260006111d36020830184612b69565b606081526000612cbd6060830186612b69565b60208301949094525060400152919050565b6020808252602b908201527f496e697469616c697a61626c653a20636f6e7472616374206973206e6f74206960408201526a6e697469616c697a696e6760a81b606082015260800190565b600080821280156001600160ff1b0384900385131615612d3c57612d3c612e6e565b600160ff1b8390038412811615612d5557612d55612e6e565b50500190565b60008219821115612d6e57612d6e612e6e565b500190565b600082612d8257612d82612e84565b500490565b6000816000190483118215151615612da157612da1612e6e565b500290565b60008083128015600160ff1b850184121615612dc457612dc4612e6e565b6001600160ff1b0384018313811615612ddf57612ddf612e6e565b50500390565b600082821015612df757612df7612e6e565b500390565b60005b83811015612e17578181015183820152602001612dff565b8381111561191a5750506000910152565b600081612e3757612e37612e6e565b506000190190565b6000600019821415612e5357612e53612e6e565b5060010190565b600082612e6957612e69612e84565b500690565b634e487b7160e01b600052601160045260246000fd5b634e487b7160e01b600052601260045260246000fd5b634e487b7160e01b600052602160045260246000fd5b634e487b7160e01b600052603160045260246000fd5b634e487b7160e01b600052603260045260246000fd5b634e487b7160e01b600052604160045260246000fd5b6001600160a01b0381168114610b1b57600080fdfe6d5c9827c1f410bbb61d3b2a0a34b6b30492d9a1fd38588edca7ec4562ab9c9ba2646970667358221220d4d5df3b894c9fc34f157c66de24cf6c8e45dfc1dccc2c002bff48a93e3cfda164736f6c63430008070033",
  "linkReferences": {},
  "deployedLinkReferences": {}
}