{
  "_format": "hh-sol-artifact-1",
  "contractName": "StakePool",
  "sourceName": "contracts/StakePool.sol",
  "abi": [
    {
      "inputs": [],
      "stateMutability": "nonpayable",
      "type": "constructor"
    },
    {
      "inputs": [],
      "name": "CantClaimBeforeDeadline",
      "type": "error"
    },
    {
      "inputs": [
        {
          "internalType": "uint256",
          "name": "index",
          "type": "uint256"
        }
      ],
      "name": "IndexOutOfBounds",
      "type": "error"
    },
    {
      "inputs": [],
      "name": "InsufficientFundsToSatisfyClaim",
      "type": "error"
    },
    {
      "inputs": [
        {
          "internalType": "string",
          "name": "tag",
          "type": "string"
        },
        {
          "internalType": "uint256",
          "name": "expected",
          "type": "uint256"
        },
        {
          "internalType": "uint256",
          "name": "got",
          "type": "uint256"
        }
      ],
      "name": "LessThanMinimum",
      "type": "error"
    },
    {
      "inputs": [],
      "name": "NumeratorMoreThanBasis",
      "type": "error"
    },
    {
      "inputs": [],
      "name": "PausableNotPaused",
      "type": "error"
    },
    {
      "inputs": [],
      "name": "PausablePaused",
      "type": "error"
    },
    {
      "inputs": [],
      "name": "ReentrancyGuardReentrantCall",
      "type": "error"
    },
    {
      "inputs": [
        {
          "internalType": "uint256",
          "name": "from",
          "type": "uint256"
        },
        {
          "internalType": "uint256",
          "name": "to",
          "type": "uint256"
        }
      ],
      "name": "ToIndexMustBeGreaterThanFromIndex",
      "type": "error"
    },
    {
      "inputs": [],
      "name": "TokenMintingToSelfNotAllowed",
      "type": "error"
    },
    {
      "inputs": [],
      "name": "TokenTransferToSelfNotAllowed",
      "type": "error"
    },
    {
      "inputs": [
        {
          "internalType": "address",
          "name": "to",
          "type": "address"
        }
      ],
      "name": "UnexpectedlyReceivedTokensForSomeoneElse",
      "type": "error"
    },
    {
      "inputs": [],
      "name": "UnknownSender",
      "type": "error"
    },
    {
      "anonymous": false,
      "inputs": [
        {
          "indexed": true,
          "internalType": "address",
          "name": "user",
          "type": "address"
        },
        {
          "components": [
            {
              "internalType": "uint256",
              "name": "weiToReturn",
              "type": "uint256"
            },
            {
              "internalType": "uint256",
              "name": "createdAt",
              "type": "uint256"
            }
          ],
          "indexed": false,
          "internalType": "struct StakePool.ClaimRequest",
          "name": "req",
          "type": "tuple"
        },
        {
          "indexed": false,
          "internalType": "uint256",
          "name": "timestamp",
          "type": "uint256"
        }
      ],
      "name": "Claim",
      "type": "event"
    },
    {
      "anonymous": false,
      "inputs": [],
      "name": "ConfigUpdated",
      "type": "event"
    },
    {
      "anonymous": false,
      "inputs": [
        {
          "indexed": true,
          "internalType": "address",
          "name": "user",
          "type": "address"
        },
        {
          "indexed": false,
          "internalType": "uint256",
          "name": "bnbAmount",
          "type": "uint256"
        },
        {
          "indexed": false,
          "internalType": "uint256",
          "name": "poolTokenAmount",
          "type": "uint256"
        },
        {
          "indexed": false,
          "internalType": "uint256",
          "name": "timestamp",
          "type": "uint256"
        }
      ],
      "name": "Deposit",
      "type": "event"
    },
    {
      "anonymous": false,
      "inputs": [
        {
          "indexed": false,
          "internalType": "uint8",
          "name": "version",
          "type": "uint8"
        }
      ],
      "name": "Initialized",
      "type": "event"
    },
    {
      "anonymous": false,
      "inputs": [
        {
          "indexed": false,
          "internalType": "address",
          "name": "account",
          "type": "address"
        }
      ],
      "name": "Paused",
      "type": "event"
    },
    {
      "anonymous": false,
      "inputs": [
        {
          "indexed": false,
          "internalType": "uint256",
          "name": "amount",
          "type": "uint256"
        }
      ],
      "name": "ReceivedRewards",
      "type": "event"
    },
    {
      "anonymous": false,
      "inputs": [
        {
          "indexed": true,
          "internalType": "bytes32",
          "name": "role",
          "type": "bytes32"
        },
        {
          "indexed": true,
          "internalType": "bytes32",
          "name": "previousAdminRole",
          "type": "bytes32"
        },
        {
          "indexed": true,
          "internalType": "bytes32",
          "name": "newAdminRole",
          "type": "bytes32"
        }
      ],
      "name": "RoleAdminChanged",
      "type": "event"
    },
    {
      "anonymous": false,
      "inputs": [
        {
          "indexed": true,
          "internalType": "bytes32",
          "name": "role",
          "type": "bytes32"
        },
        {
          "indexed": true,
          "internalType": "address",
          "name": "account",
          "type": "address"
        },
        {
          "indexed": true,
          "internalType": "address",
          "name": "sender",
          "type": "address"
        }
      ],
      "name": "RoleGranted",
      "type": "event"
    },
    {
      "anonymous": false,
      "inputs": [
        {
          "indexed": true,
          "internalType": "bytes32",
          "name": "role",
          "type": "bytes32"
        },
        {
          "indexed": true,
          "internalType": "address",
          "name": "account",
          "type": "address"
        },
        {
          "indexed": true,
          "internalType": "address",
          "name": "sender",
          "type": "address"
        }
      ],
      "name": "RoleRevoked",
      "type": "event"
    },
    {
      "anonymous": false,
      "inputs": [
        {
          "indexed": false,
          "internalType": "address",
          "name": "account",
          "type": "address"
        }
      ],
      "name": "Unpaused",
      "type": "event"
    },
    {
      "anonymous": false,
      "inputs": [
        {
          "indexed": true,
          "internalType": "address",
          "name": "user",
          "type": "address"
        },
        {
          "indexed": false,
          "internalType": "uint256",
          "name": "poolTokenAmount",
          "type": "uint256"
        },
        {
          "indexed": false,
          "internalType": "uint256",
          "name": "bnbAmount",
          "type": "uint256"
        },
        {
          "indexed": false,
          "internalType": "uint256",
          "name": "timestamp",
          "type": "uint256"
        }
      ],
      "name": "Withdraw",
      "type": "event"
    },
    {
      "inputs": [],
      "name": "BOT_ROLE",
      "outputs": [
        {
          "internalType": "bytes32",
          "name": "",
          "type": "bytes32"
        }
      ],
      "stateMutability": "view",
      "type": "function"
    },
    {
      "inputs": [],
      "name": "DEFAULT_ADMIN_ROLE",
      "outputs": [
        {
          "internalType": "bytes32",
          "name": "",
          "type": "bytes32"
        }
      ],
      "stateMutability": "view",
      "type": "function"
    },
    {
      "inputs": [],
      "name": "addressStore",
      "outputs": [
        {
          "internalType": "contract IAddressStore",
          "name": "",
          "type": "address"
        }
      ],
      "stateMutability": "view",
      "type": "function"
    },
    {
      "inputs": [],
      "name": "bnbToUnbond",
      "outputs": [
        {
          "internalType": "uint256",
          "name": "",
          "type": "uint256"
        }
      ],
      "stateMutability": "view",
      "type": "function"
    },
    {
      "inputs": [],
      "name": "bnbUnbonding",
      "outputs": [
        {
          "internalType": "uint256",
          "name": "",
          "type": "uint256"
        }
      ],
      "stateMutability": "view",
      "type": "function"
    },
    {
      "inputs": [
        {
          "internalType": "uint256",
          "name": "index",
          "type": "uint256"
        }
      ],
      "name": "claim",
      "outputs": [],
      "stateMutability": "nonpayable",
      "type": "function"
    },
    {
      "inputs": [],
      "name": "claimAll",
      "outputs": [],
      "stateMutability": "nonpayable",
      "type": "function"
    },
    {
      "inputs": [
        {
          "internalType": "address",
          "name": "",
          "type": "address"
        },
        {
          "internalType": "uint256",
          "name": "",
          "type": "uint256"
        }
      ],
      "name": "claimReqs",
      "outputs": [
        {
          "internalType": "uint256",
          "name": "weiToReturn",
          "type": "uint256"
        },
        {
          "internalType": "uint256",
          "name": "createdAt",
          "type": "uint256"
        }
      ],
      "stateMutability": "view",
      "type": "function"
    },
    {
      "inputs": [],
      "name": "claimReserve",
      "outputs": [
        {
          "internalType": "uint256",
          "name": "",
          "type": "uint256"
        }
      ],
      "stateMutability": "view",
      "type": "function"
    },
    {
      "inputs": [],
      "name": "config",
      "outputs": [
        {
          "internalType": "address",
          "name": "bcStakingWallet",
          "type": "address"
        },
        {
          "internalType": "uint256",
          "name": "minBNBDeposit",
          "type": "uint256"
        },
        {
          "internalType": "uint256",
          "name": "minTokenWithdrawal",
          "type": "uint256"
        },
        {
          "internalType": "uint256",
          "name": "cooldownPeriod",
          "type": "uint256"
        },
        {
          "components": [
            {
              "internalType": "uint256",
              "name": "reward",
              "type": "uint256"
            },
            {
              "internalType": "uint256",
              "name": "deposit",
              "type": "uint256"
            },
            {
              "internalType": "uint256",
              "name": "withdraw",
              "type": "uint256"
            }
          ],
          "internalType": "struct FeeDistribution.Data",
          "name": "fee",
          "type": "tuple"
        }
      ],
      "stateMutability": "view",
      "type": "function"
    },
    {
      "inputs": [],
      "name": "deposit",
      "outputs": [],
      "stateMutability": "payable",
      "type": "function"
    },
    {
      "inputs": [],
      "name": "exchangeRate",
      "outputs": [
        {
          "internalType": "uint256",
          "name": "totalWei",
          "type": "uint256"
        },
        {
          "internalType": "uint256",
          "name": "poolTokenSupply",
          "type": "uint256"
        }
      ],
      "stateMutability": "view",
      "type": "function"
    },
    {
      "inputs": [
        {
          "internalType": "address",
          "name": "user",
          "type": "address"
        }
      ],
      "name": "getClaimRequestCount",
      "outputs": [
        {
          "internalType": "uint256",
          "name": "",
          "type": "uint256"
        }
      ],
      "stateMutability": "view",
      "type": "function"
    },
    {
      "inputs": [
        {
          "internalType": "address",
          "name": "user",
          "type": "address"
        },
        {
          "internalType": "uint256",
          "name": "from",
          "type": "uint256"
        },
        {
          "internalType": "uint256",
          "name": "to",
          "type": "uint256"
        }
      ],
      "name": "getPaginatedClaimRequests",
      "outputs": [
        {
          "components": [
            {
              "internalType": "uint256",
              "name": "weiToReturn",
              "type": "uint256"
            },
            {
              "internalType": "uint256",
              "name": "createdAt",
              "type": "uint256"
            }
          ],
          "internalType": "struct StakePool.ClaimRequest[]",
          "name": "",
          "type": "tuple[]"
        }
      ],
      "stateMutability": "view",
      "type": "function"
    },
    {
      "inputs": [
        {
          "internalType": "bytes32",
          "name": "role",
          "type": "bytes32"
        }
      ],
      "name": "getRoleAdmin",
      "outputs": [
        {
          "internalType": "bytes32",
          "name": "",
          "type": "bytes32"
        }
      ],
      "stateMutability": "view",
      "type": "function"
    },
    {
      "inputs": [
        {
          "internalType": "bytes32",
          "name": "role",
          "type": "bytes32"
        },
        {
          "internalType": "uint256",
          "name": "index",
          "type": "uint256"
        }
      ],
      "name": "getRoleMember",
      "outputs": [
        {
          "internalType": "address",
          "name": "",
          "type": "address"
        }
      ],
      "stateMutability": "view",
      "type": "function"
    },
    {
      "inputs": [
        {
          "internalType": "bytes32",
          "name": "role",
          "type": "bytes32"
        }
      ],
      "name": "getRoleMemberCount",
      "outputs": [
        {
          "internalType": "uint256",
          "name": "",
          "type": "uint256"
        }
      ],
      "stateMutability": "view",
      "type": "function"
    },
    {
      "inputs": [],
      "name": "getStakableBNB",
      "outputs": [
        {
          "internalType": "uint256",
          "name": "",
          "type": "uint256"
        }
      ],
      "stateMutability": "view",
      "type": "function"
    },
    {
      "inputs": [
        {
          "internalType": "bytes32",
          "name": "role",
          "type": "bytes32"
        },
        {
          "internalType": "address",
          "name": "account",
          "type": "address"
        }
      ],
      "name": "grantRole",
      "outputs": [],
      "stateMutability": "nonpayable",
      "type": "function"
    },
    {
      "inputs": [
        {
          "internalType": "bytes32",
          "name": "role",
          "type": "bytes32"
        },
        {
          "internalType": "address",
          "name": "account",
          "type": "address"
        }
      ],
      "name": "hasRole",
      "outputs": [
        {
          "internalType": "bool",
          "name": "",
          "type": "bool"
        }
      ],
      "stateMutability": "view",
      "type": "function"
    },
    {
      "inputs": [
        {
          "internalType": "contract IAddressStore",
          "name": "addressStore_",
          "type": "address"
        },
        {
          "components": [
            {
              "internalType": "address",
              "name": "bcStakingWallet",
              "type": "address"
            },
            {
              "internalType": "uint256",
              "name": "minBNBDeposit",
              "type": "uint256"
            },
            {
              "internalType": "uint256",
              "name": "minTokenWithdrawal",
              "type": "uint256"
            },
            {
              "internalType": "uint256",
              "name": "cooldownPeriod",
              "type": "uint256"
            },
            {
              "components": [
                {
                  "internalType": "uint256",
                  "name": "reward",
                  "type": "uint256"
                },
                {
                  "internalType": "uint256",
                  "name": "deposit",
                  "type": "uint256"
                },
                {
                  "internalType": "uint256",
                  "name": "withdraw",
                  "type": "uint256"
                }
              ],
              "internalType": "struct FeeDistribution.Data",
              "name": "fee",
              "type": "tuple"
            }
          ],
          "internalType": "struct Config.Data",
          "name": "config_",
          "type": "tuple"
        }
      ],
      "name": "initialize",
      "outputs": [],
      "stateMutability": "nonpayable",
      "type": "function"
    },
    {
      "inputs": [],
      "name": "initiateDelegation",
      "outputs": [
        {
          "internalType": "uint256",
          "name": "",
          "type": "uint256"
        }
      ],
      "stateMutability": "nonpayable",
      "type": "function"
    },
    {
      "inputs": [
        {
          "internalType": "uint256",
          "name": "bnbRewards",
          "type": "uint256"
        }
      ],
      "name": "notifyRewards",
      "outputs": [],
      "stateMutability": "nonpayable",
      "type": "function"
    },
    {
      "inputs": [],
      "name": "pause",
      "outputs": [],
      "stateMutability": "nonpayable",
      "type": "function"
    },
    {
      "inputs": [],
      "name": "paused",
      "outputs": [
        {
          "internalType": "bool",
          "name": "",
          "type": "bool"
        }
      ],
      "stateMutability": "view",
      "type": "function"
    },
    {
      "inputs": [
        {
          "internalType": "bytes32",
          "name": "role",
          "type": "bytes32"
        },
        {
          "internalType": "address",
          "name": "account",
          "type": "address"
        }
      ],
      "name": "renounceRole",
      "outputs": [],
      "stateMutability": "nonpayable",
      "type": "function"
    },
    {
      "inputs": [
        {
          "internalType": "bytes32",
          "name": "role",
          "type": "bytes32"
        },
        {
          "internalType": "address",
          "name": "account",
          "type": "address"
        }
      ],
      "name": "revokeRole",
      "outputs": [],
      "stateMutability": "nonpayable",
      "type": "function"
    },
    {
      "inputs": [
        {
          "internalType": "bytes4",
          "name": "interfaceId",
          "type": "bytes4"
        }
      ],
      "name": "supportsInterface",
      "outputs": [
        {
          "internalType": "bool",
          "name": "",
          "type": "bool"
        }
      ],
      "stateMutability": "view",
      "type": "function"
    },
    {
      "inputs": [
        {
          "internalType": "address",
          "name": "",
          "type": "address"
        },
        {
          "internalType": "address",
          "name": "from",
          "type": "address"
        },
        {
          "internalType": "address",
          "name": "to",
          "type": "address"
        },
        {
          "internalType": "uint256",
          "name": "amount",
          "type": "uint256"
        },
        {
          "internalType": "bytes",
          "name": "",
          "type": "bytes"
        },
        {
          "internalType": "bytes",
          "name": "",
          "type": "bytes"
        }
      ],
      "name": "tokensReceived",
      "outputs": [],
      "stateMutability": "nonpayable",
      "type": "function"
    },
    {
      "inputs": [],
      "name": "unbondingFinished",
      "outputs": [],
      "stateMutability": "nonpayable",
      "type": "function"
    },
    {
      "inputs": [
        {
          "internalType": "uint256",
          "name": "_bnbUnbonding",
          "type": "uint256"
        }
      ],
      "name": "unbondingInitiated",
      "outputs": [],
      "stateMutability": "nonpayable",
      "type": "function"
    },
    {
      "inputs": [],
      "name": "unpause",
      "outputs": [],
      "stateMutability": "nonpayable",
      "type": "function"
    },
    {
      "inputs": [
        {
          "components": [
            {
              "internalType": "address",
              "name": "bcStakingWallet",
              "type": "address"
            },
            {
              "internalType": "uint256",
              "name": "minBNBDeposit",
              "type": "uint256"
            },
            {
              "internalType": "uint256",
              "name": "minTokenWithdrawal",
              "type": "uint256"
            },
            {
              "internalType": "uint256",
              "name": "cooldownPeriod",
              "type": "uint256"
            },
            {
              "components": [
                {
                  "internalType": "uint256",
                  "name": "reward",
                  "type": "uint256"
                },
                {
                  "internalType": "uint256",
                  "name": "deposit",
                  "type": "uint256"
                },
                {
                  "internalType": "uint256",
                  "name": "withdraw",
                  "type": "uint256"
                }
              ],
              "internalType": "struct FeeDistribution.Data",
              "name": "fee",
              "type": "tuple"
            }
          ],
          "internalType": "struct Config.Data",
          "name": "config_",
          "type": "tuple"
        }
      ],
      "name": "updateConfig",
      "outputs": [],
      "stateMutability": "nonpayable",
      "type": "function"
    }
  ],
  "bytecode": "0x60806040523480156200001157600080fd5b506200001c62000022565b62000152565b6200002e60ff62000031565b50565b60008054610100900460ff1615620000ca578160ff1660011480156200006a575062000068306200014360201b6200162f1760201c565b155b620000c25760405162461bcd60e51b815260206004820152602e602482015260008051602062002cd383398151915260448201526d191e481a5b9a5d1a585b1a5e995960921b60648201526084015b60405180910390fd5b506000919050565b60005460ff808416911610620001295760405162461bcd60e51b815260206004820152602e602482015260008051602062002cd383398151915260448201526d191e481a5b9a5d1a585b1a5e995960921b6064820152608401620000b9565b506000805460ff191660ff92909216919091179055600190565b6001600160a01b03163b151590565b612b7180620001626000396000f3fe6080604052600436106101ed5760003560e01c806375ccc37a1161010d578063b1503774116100a0578063d1058e591161006f578063d1058e59146105f5578063d3512cef1461060a578063d547741f1461062a578063f773d87d1461064a578063fa6c2f7d1461066a57600080fd5b8063b15037741461058b578063c773c8f7146105ad578063ca15c873146105cd578063d0e30db0146105ed57600080fd5b80638be78083116100dc5780638be78083146104e85780639010d07c1461051e57806391d1485414610556578063a217fddf1461057657600080fd5b806375ccc37a146103f057806379502c551461041d5780638456cb59146104b35780638b2bf29f146104c857600080fd5b80633f4ba83a116101855780635c975abb116101545780635c975abb146103975780635d97914c146103af5780636eb95940146103c55780637550c050146103db57600080fd5b80633f4ba83a146103375780633fe5f0541461034c57806340f63e481461036257806354cc6d9d1461038257600080fd5b80632f2ff15d116101c15780632f2ff15d146102a757806336568abe146102c7578063379607f5146102e75780633ba0b9a91461030757600080fd5b806223de29146101f257806301ffc9a7146102145780631bdac81a14610249578063248a9ca314610269575b600080fd5b3480156101fe57600080fd5b5061021261020d366004612592565b61067f565b005b34801561022057600080fd5b5061023461022f366004612731565b610821565b60405190151581526020015b60405180910390f35b34801561025557600080fd5b5061021261026436600461275b565b61084c565b34801561027557600080fd5b506102996102843660046126c6565b60009081526065602052604090206001015490565b604051908152602001610240565b3480156102b357600080fd5b506102126102c23660046126df565b6108c5565b3480156102d357600080fd5b506102126102e23660046126df565b6108ea565b3480156102f357600080fd5b506102126103023660046126c6565b610968565b34801561031357600080fd5b5060d65460d754610322919082565b60408051928352602083019190915201610240565b34801561034357600080fd5b506102126109ab565b34801561035857600080fd5b5061029960d55481565b34801561036e57600080fd5b5061021261037d366004612792565b6109ff565b34801561038e57600080fd5b50610212610a42565b3480156103a357600080fd5b5060d15460ff16610234565b3480156103bb57600080fd5b5061029960d35481565b3480156103d157600080fd5b5061029960d45481565b3480156103e757600080fd5b50610299610b87565b3480156103fc57600080fd5b5061041061040b36600461266f565b610c3b565b604051610240919061289e565b34801561042957600080fd5b5060ca5460cb5460cc5460cd546040805160608101825260ce54815260cf54602082015260d0549181019190915261046b946001600160a01b03169392919085565b604080516001600160a01b039096168652602080870195909552858101939093526060850191909152805160808501529182015160a0840152015160c082015260e001610240565b3480156104bf57600080fd5b50610212610df7565b3480156104d457600080fd5b506102126104e33660046126c6565b610e47565b3480156104f457600080fd5b50610299610503366004612558565b6001600160a01b0316600090815260d8602052604090205490565b34801561052a57600080fd5b5061053e61053936600461270f565b610e92565b6040516001600160a01b039091168152602001610240565b34801561056257600080fd5b506102346105713660046126df565b610eb1565b34801561058257600080fd5b50610299600081565b34801561059757600080fd5b50610299600080516020612b1c83398151915281565b3480156105b957600080fd5b5060c95461053e906001600160a01b031681565b3480156105d957600080fd5b506102996105e83660046126c6565b610edc565b610212610ef3565b34801561060157600080fd5b506102126111b1565b34801561061657600080fd5b506102126106253660046126c6565b611219565b34801561063657600080fd5b506102126106453660046126df565b611456565b34801561065657600080fd5b50610322610665366004612643565b61147b565b34801561067657600080fd5b506102996114b7565b61068761163e565b61068f611662565b60408051808201909152600a81526915da5d1a191c985dd85b60b21b602082015260cc54866106bf83838361168d565b60c960009054906101000a90046001600160a01b03166001600160a01b031663e016dedc6040518163ffffffff1660e01b815260040160206040518083038186803b15801561070d57600080fd5b505afa158015610721573d6000803e3d6000fd5b505050506040513d601f19601f820116820180604052508101906107459190612575565b6001600160a01b0316336001600160a01b0316146107765760405163399a77fd60e01b815260040160405180910390fd5b6001600160a01b038a1661079d5760405163eb577da760e01b815260040160405180910390fd5b6001600160a01b038a163014156107c7576040516315bddb7b60e01b815260040160405180910390fd5b6001600160a01b0389163014610800576040516338a5c37560e01b81526001600160a01b038a1660048201526024015b60405180910390fd5b61080a8a896116b4565b505050610817600160d255565b5050505050505050565b60006001600160e01b03198216635a05180f60e01b14806108465750610846826119b7565b92915050565b600061085860016119ec565b90508015610870576000805461ff0019166101001790555b61087a8383611a74565b80156108c0576000805461ff0019169055604051600181527f7f26b83ff96e1f2b6a682f133852f6798a09c465da95921460cefb38474024989060200160405180910390a15b505050565b6000828152606560205260409020600101546108e081611aa5565b6108c08383611aaf565b6001600160a01b038116331461095a5760405162461bcd60e51b815260206004820152602f60248201527f416363657373436f6e74726f6c3a2063616e206f6e6c792072656e6f756e636560448201526e103937b632b9903337b91039b2b63360891b60648201526084016107f7565b6109648282611ad1565b5050565b61097061163e565b610978611662565b61098181611af3565b61099e57604051637e868a7360e01b815260040160405180910390fd5b6109a8600160d255565b50565b60006109b681611aa5565b6109be611d12565b60d1805460ff191690556040513381527f5db9ee0a495bf2e6ff9c91a7834c1ba4fdd244a5e8aa4e537bd38aeae4b073aa906020015b60405180910390a150565b6000610a0a81611aa5565b610a1560ca83611d34565b6040517ffe891c6ab12cf73707f8deb6600c12ba382e4cc31eb2b0a2754cad13075ed2d190600090a15050565b610a4a61163e565b600080516020612b1c833981519152610a6281611aa5565b60c954604080516388d1161d60e01b815290516000926001600160a01b0316916388d1161d916004808301926020929190829003018186803b158015610aa757600080fd5b505afa158015610abb573d6000803e3d6000fd5b505050506040513d601f19601f82011682018060405250810190610adf9190612575565b6001600160a01b03166347066d026040518163ffffffff1660e01b8152600401602060405180830381600087803b158015610b1957600080fd5b505af1158015610b2d573d6000803e3d6000fd5b505050506040513d601f19601f82011682018060405250810190610b5191906127ae565b90508060d46000828254610b659190612a1f565b925050819055508060d56000828254610b7e91906129c6565b90915550505050565b6000806110046001600160a01b031663149d14d96040518163ffffffff1660e01b815260040160206040518083038186803b158015610bc557600080fd5b505afa158015610bd9573d6000803e3d6000fd5b505050506040513d601f19601f82011682018060405250810190610bfd91906127ae565b90508060d554610c0d91906129c6565b471115610c33578060d55447610c239190612a1f565b610c2d9190612a1f565b91505090565b600091505090565b6001600160a01b038316600090815260d860205260409020546060908310610c795760405163112517f360e21b8152600481018490526024016107f7565b818310610ca357604051630dfc263960e01b815260048101849052602481018390526044016107f7565b6001600160a01b038416600090815260d86020526040902054821115610cdf576001600160a01b038416600090815260d8602052604090205491505b6000610ceb8484612a1f565b67ffffffffffffffff811115610d0357610d03612af0565b604051908082528060200260200182016040528015610d4857816020015b6040805180820190915260008082526020820152815260200190600190039081610d215790505b50905060005b610d588585612a1f565b811015610dee576001600160a01b038616600090815260d860205260409020610d8182876129c6565b81548110610d9157610d91612ada565b906000526020600020906002020160405180604001604052908160008201548152602001600182015481525050828281518110610dd057610dd0612ada565b60200260200101819052508080610de690612a7d565b915050610d4e565b50949350505050565b6000610e0281611aa5565b610e0a61163e565b60d1805460ff191660011790556040513381527f62e78cea01bee320cd4e420270b5ea74000d11b0c9f74754ebdbfc544b05a258906020016109f4565b610e4f61163e565b600080516020612b1c833981519152610e6781611aa5565b8160d36000828254610e799190612a1f565b925050819055508160d46000828254610b7e91906129c6565b6000828152609760205260408120610eaa9083611d47565b9392505050565b60009182526065602090815260408084206001600160a01b0393909316845291905290205460ff1690565b600081815260976020526040812061084690611d53565b610efb61163e565b610f03611662565b60408051808201909152600781526611195c1bdcda5d60ca1b602082015260cb5434610f3083838361168d565b346000610f3e60d683611d5d565b60cf54909150600090610f519083611d97565b90506000610f5f8284612a1f565b9050610f8c604051806040016040528086815260200185815250600060d6611da99092919063ffffffff16565b60c95460408051633805b7b760e21b815290516000926001600160a01b03169163e016dedc916004808301926020929190829003018186803b158015610fd157600080fd5b505afa158015610fe5573d6000803e3d6000fd5b505050506040513d601f19601f820116820180604052508101906110099190612575565b604051630dcdc7dd60e41b81529091506001600160a01b0382169063dcdc7dd09061103a9033908690600401612868565b600060405180830381600087803b15801561105457600080fd5b505af1158015611068573d6000803e3d6000fd5b50505050600083111561115b57806001600160a01b031663dcdc7dd060c960009054906101000a90046001600160a01b03166001600160a01b031663ec0f7cf06040518163ffffffff1660e01b815260040160206040518083038186803b1580156110d257600080fd5b505afa1580156110e6573d6000803e3d6000fd5b505050506040513d601f19601f8201168201806040525081019061110a9190612575565b856040518363ffffffff1660e01b8152600401611128929190612868565b600060405180830381600087803b15801561114257600080fd5b505af1158015611156573d6000803e3d6000fd5b505050505b60408051348152602081018490524281830152905133917f36af321ec8d3c75236829c5317affd40ddb308863a1236d2d277a4025cccee1e919081900360600190a250505050505050506111af600160d255565b565b6111b961163e565b6111c1611662565b33600090815260d86020526040812054905b8181101561120d576111e481611af3565b156111fb57816111f381612a66565b9250506111d3565b8061120581612a7d565b9150506111d3565b50506111af600160d255565b61122161163e565b600080516020612b1c83398151915261123981611aa5565b60ce546000906112499084611d97565b90506000818460d66000015461125f91906129c6565b6112699190612a1f565b60d7546112769084612a00565b61128091906129de565b90506112ad604051806040016040528086815260200183815250600060d6611da99092919063ffffffff16565b60c960009054906101000a90046001600160a01b03166001600160a01b031663e016dedc6040518163ffffffff1660e01b815260040160206040518083038186803b1580156112fb57600080fd5b505afa15801561130f573d6000803e3d6000fd5b505050506040513d601f19601f820116820180604052508101906113339190612575565b6001600160a01b031663dcdc7dd060c960009054906101000a90046001600160a01b03166001600160a01b031663ec0f7cf06040518163ffffffff1660e01b815260040160206040518083038186803b15801561138f57600080fd5b505afa1580156113a3573d6000803e3d6000fd5b505050506040513d601f19601f820116820180604052508101906113c79190612575565b836040518363ffffffff1660e01b81526004016113e5929190612868565b600060405180830381600087803b1580156113ff57600080fd5b505af1158015611413573d6000803e3d6000fd5b505050507f9f8f0f9252d89a1f4d3d5de3a164a75579c92b5b745179b8c348a579c4ec3cf98460405161144891815260200190565b60405180910390a150505050565b60008281526065602052604090206001015461147181611aa5565b6108c08383611ad1565b60d8602052816000526040600020818154811061149757600080fd5b600091825260209091206002909102018054600190910154909250905082565b60006114c161163e565b600080516020612b1c8339815191526114d981611aa5565b60006110046001600160a01b031663149d14d96040518163ffffffff1660e01b815260040160206040518083038186803b15801561151657600080fd5b505afa15801561152a573d6000803e3d6000fd5b505050506040513d601f19601f8201168201806040525081019061154e91906127ae565b9050600061155a610b87565b905080156116285761100463aa7415f561157484846129c6565b60ca546000906001600160a01b03168561159042610e106129c6565b6040516001600160e01b031960e088901b1681526001600160a01b039485166004820152939092166024840152604483015267ffffffffffffffff1660648201526084016020604051808303818588803b1580156115ed57600080fd5b505af1158015611601573d6000803e3d6000fd5b50505050506040513d601f19601f8201168201806040525081019061162691906126a4565b505b9250505090565b6001600160a01b03163b151590565b60d15460ff16156111af5760405163928dfa7760e01b815260040160405180910390fd5b600260d254141561168657604051633ee5aeb560e01b815260040160405180910390fd5b600260d255565b818110156108c057828282604051631a14281160e01b81526004016107f793929190612908565b60d0546000906116c49083611d97565b905060006116d28284612a1f565b905060006116e160d683611e3c565b6001600160a01b038616600090815260d86020908152604080832081518083019092528482524282840190815281546001818101845592865293852092516002909402909201928355905191015560d3805492935083929091906117469084906129c6565b9091555050604080518082019091528181526020810183905261176d9060d6906001611da9565b60c95460408051633805b7b760e21b815290516000926001600160a01b03169163e016dedc916004808301926020929190829003018186803b1580156117b257600080fd5b505afa1580156117c6573d6000803e3d6000fd5b505050506040513d601f19601f820116820180604052508101906117ea9190612575565b6040805163fe9d930360e01b8152600481018690526024810191909152600060448201529091506001600160a01b0382169063fe9d930390606401600060405180830381600087803b15801561183f57600080fd5b505af1158015611853573d6000803e3d6000fd5b50505050600084111561196457806001600160a01b0316639bd9bbc660c960009054906101000a90046001600160a01b03166001600160a01b031663ec0f7cf06040518163ffffffff1660e01b815260040160206040518083038186803b1580156118bd57600080fd5b505afa1580156118d1573d6000803e3d6000fd5b505050506040513d601f19601f820116820180604052508101906118f59190612575565b6040516001600160e01b031960e084901b1681526001600160a01b039091166004820152602481018790526060604482015260006064820152608401600060405180830381600087803b15801561194b57600080fd5b505af115801561195f573d6000803e3d6000fd5b505050505b6040805186815260208101849052428183015290516001600160a01b038816917f02f25270a4d87bea75db541cdfe559334a275b4a233520ed6c0a2429667cca94919081900360600190a2505050505050565b60006001600160e01b03198216637965db0b60e01b148061084657506301ffc9a760e01b6001600160e01b0319831614610846565b60008054610100900460ff1615611a33578160ff166001148015611a0f5750303b155b611a2b5760405162461bcd60e51b81526004016107f79061292d565b506000919050565b60005460ff808416911610611a5a5760405162461bcd60e51b81526004016107f79061292d565b506000805460ff191660ff92909216919091179055600190565b600054610100900460ff16611a9b5760405162461bcd60e51b81526004016107f79061297b565b6109648282611e84565b6109a88133611f9b565b611ab98282611fff565b60008281526097602052604090206108c09082612085565b611adb828261209a565b60008281526097602052604090206108c09082612101565b33600090815260d860205260408120548210611b255760405163112517f360e21b8152600481018390526024016107f7565b33600090815260d860205260408120805484908110611b4657611b46612ada565b9060005260206000209060020201604051806040016040529081600082015481526020016001820154815250509050611b7e81612116565b611b8b5750600092915050565b8051471015611bad5760405163e723ea5960e01b815260040160405180910390fd5b805160d58054600090611bc1908490612a1f565b909155505033600090815260d8602052604090208054611be390600190612a1f565b81548110611bf357611bf3612ada565b906000526020600020906002020160d86000336001600160a01b03166001600160a01b031681526020019081526020016000208481548110611c3757611c37612ada565b600091825260208083208454600290930201918255600193840154939091019290925533815260d890915260409020805480611c7557611c75612ac4565b60008281526020812060026000199093019283020181815560010181905591558151604051339282156108fc02929190818181858888f19350505050158015611cc2573d6000803e3d6000fd5b506040805182518152602080840151908201524281830152905133917f68b2280298dbae04fabb3ba3aec3f939aebaf17f3b57811225a496cafee6f9c6919081900360600190a250600192915050565b60d15460ff166111af5760405162c5619760e61b815260040160405180910390fd5b611d3d81612132565b610964828261213e565b6000610eaa83836121a9565b6000610846825490565b81546000901580611d7057506001830154155b15611d7c575080610846565b82546001840154611d8d9084612a00565b610eaa91906129de565b600064174876e800611d8d8484612a00565b6000816001811115611dbd57611dbd612aae565b1415611e0057815183548490600090611dd79084906129c6565b90915550506020820151600184018054600090611df59084906129c6565b909155506108c09050565b815183548490600090611e14908490612a1f565b90915550506020820151600184018054600090611e32908490612a1f565b9091555050505050565b81546000908190611e4d9084612a00565b600185015490915080821080611e61575080155b15611e7157600092505050610846565b611e7b81836129de565b95945050505050565b600054610100900460ff16611eab5760405162461bcd60e51b81526004016107f79061297b565b60c980546001600160a01b0319166001600160a01b038416179055611ed160ca82611d34565b60d1805460ff1916600190811790915560d255600060d381905560d481905560d581905560d681905560d7556040516329965a1d60e01b815230600482018190527fb281fc8c12954d22544db45de3159a39272895b169a852b314f9cc762e44c53b60248301526044820152731820a4b7618bde71dce8cdc73aab6c95905fad24906329965a1d90606401600060405180830381600087803b158015611f7657600080fd5b505af1158015611f8a573d6000803e3d6000fd5b505050506109646000801b33611aaf565b611fa58282610eb1565b61096457611fbd816001600160a01b031660146121d3565b611fc88360206121d3565b604051602001611fd99291906127f3565b60408051601f198184030181529082905262461bcd60e51b82526107f7916004016128f5565b6120098282610eb1565b6109645760008281526065602090815260408083206001600160a01b03851684529091529020805460ff191660011790556120413390565b6001600160a01b0316816001600160a01b0316837f2f8788117e7eff1d82e926ec794901d17c78024a50270940304540a733656f0d60405160405180910390a45050565b6000610eaa836001600160a01b03841661236f565b6120a48282610eb1565b156109645760008281526065602090815260408083206001600160a01b0385168085529252808320805460ff1916905551339285917ff6391f5c32d9c69d2a47ea670b442974b53935d1edc7fd64eb21e047a839171b9190a45050565b6000610eaa836001600160a01b0384166123be565b60cd54602082015160009161212a916129c6565b421192915050565b6109a8816080016124b1565b61214b6020820182612558565b82546001600160a01b0319166001600160a01b03919091161782556020810135600183015560408101356002830155606081013560038301556109646004830160808301803582556020810135600183015560400135600290910155565b60008260000182815481106121c0576121c0612ada565b9060005260206000200154905092915050565b606060006121e2836002612a00565b6121ed9060026129c6565b67ffffffffffffffff81111561220557612205612af0565b6040519080825280601f01601f19166020018201604052801561222f576020820181803683370190505b509050600360fc1b8160008151811061224a5761224a612ada565b60200101906001600160f81b031916908160001a905350600f60fb1b8160018151811061227957612279612ada565b60200101906001600160f81b031916908160001a905350600061229d846002612a00565b6122a89060016129c6565b90505b6001811115612320576f181899199a1a9b1b9c1cb0b131b232b360811b85600f16601081106122dc576122dc612ada565b1a60f81b8282815181106122f2576122f2612ada565b60200101906001600160f81b031916908160001a90535060049490941c9361231981612a66565b90506122ab565b508315610eaa5760405162461bcd60e51b815260206004820181905260248201527f537472696e67733a20686578206c656e67746820696e73756666696369656e7460448201526064016107f7565b60008181526001830160205260408120546123b657508154600181810184556000848152602080822090930184905584548482528286019093526040902091909155610846565b506000610846565b600081815260018301602052604081205480156124a75760006123e2600183612a1f565b85549091506000906123f690600190612a1f565b905081811461245b57600086600001828154811061241657612416612ada565b906000526020600020015490508087600001848154811061243957612439612ada565b6000918252602080832090910192909255918252600188019052604090208390555b855486908061246c5761246c612ac4565b600190038181906000526020600020016000905590558560010160008681526020019081526020016000206000905560019350505050610846565b6000915050610846565b6124bb81356124d1565b6124c881602001356124d1565b6109a881604001355b64174876e8008111156109a85760405163c254ce4960e01b815260040160405180910390fd5b60008083601f84011261250957600080fd5b50813567ffffffffffffffff81111561252157600080fd5b60208301915083602082850101111561253957600080fd5b9250929050565b600060e0828403121561255257600080fd5b50919050565b60006020828403121561256a57600080fd5b8135610eaa81612b06565b60006020828403121561258757600080fd5b8151610eaa81612b06565b60008060008060008060008060c0898b0312156125ae57600080fd5b88356125b981612b06565b975060208901356125c981612b06565b965060408901356125d981612b06565b955060608901359450608089013567ffffffffffffffff808211156125fd57600080fd5b6126098c838d016124f7565b909650945060a08b013591508082111561262257600080fd5b5061262f8b828c016124f7565b999c989b5096995094979396929594505050565b6000806040838503121561265657600080fd5b823561266181612b06565b946020939093013593505050565b60008060006060848603121561268457600080fd5b833561268f81612b06565b95602085013595506040909401359392505050565b6000602082840312156126b657600080fd5b81518015158114610eaa57600080fd5b6000602082840312156126d857600080fd5b5035919050565b600080604083850312156126f257600080fd5b82359150602083013561270481612b06565b809150509250929050565b6000806040838503121561272257600080fd5b50508035926020909101359150565b60006020828403121561274357600080fd5b81356001600160e01b031981168114610eaa57600080fd5b600080610100838503121561276f57600080fd5b823561277a81612b06565b91506127898460208501612540565b90509250929050565b600060e082840312156127a457600080fd5b610eaa8383612540565b6000602082840312156127c057600080fd5b5051919050565b600081518084526127df816020860160208601612a36565b601f01601f19169290920160200192915050565b7f416363657373436f6e74726f6c3a206163636f756e742000000000000000000081526000835161282b816017850160208801612a36565b7001034b99036b4b9b9b4b733903937b6329607d1b601791840191820152835161285c816028840160208801612a36565b01602801949350505050565b6001600160a01b039290921682526020820152608060408201819052600090820181905260a06060830181905282015260c00190565b602080825282518282018190526000919060409081850190868401855b828110156128e8576128d884835180518252602090810151910152565b92840192908501906001016128bb565b5091979650505050505050565b602081526000610eaa60208301846127c7565b60608152600061291b60608301866127c7565b60208301949094525060400152919050565b6020808252602e908201527f496e697469616c697a61626c653a20636f6e747261637420697320616c72656160408201526d191e481a5b9a5d1a585b1a5e995960921b606082015260800190565b6020808252602b908201527f496e697469616c697a61626c653a20636f6e7472616374206973206e6f74206960408201526a6e697469616c697a696e6760a81b606082015260800190565b600082198211156129d9576129d9612a98565b500190565b6000826129fb57634e487b7160e01b600052601260045260246000fd5b500490565b6000816000190483118215151615612a1a57612a1a612a98565b500290565b600082821015612a3157612a31612a98565b500390565b60005b83811015612a51578181015183820152602001612a39565b83811115612a60576000848401525b50505050565b600081612a7557612a75612a98565b506000190190565b6000600019821415612a9157612a91612a98565b5060010190565b634e487b7160e01b600052601160045260246000fd5b634e487b7160e01b600052602160045260246000fd5b634e487b7160e01b600052603160045260246000fd5b634e487b7160e01b600052603260045260246000fd5b634e487b7160e01b600052604160045260246000fd5b6001600160a01b03811681146109a857600080fdfe6d5c9827c1f410bbb61d3b2a0a34b6b30492d9a1fd38588edca7ec4562ab9c9ba26469706673582212207e15c45d802be35bc8633e40a8cf60fe8725ca12033df1c38fecd9032c5c752064736f6c63430008070033496e697469616c697a61626c653a20636f6e747261637420697320616c726561",
  "linkReferences": {},
  "deployedLinkReferences": {}
}