{
  "_format": "hh-sol-artifact-1",
  "contractName": "StakePool",
  "sourceName": "contracts/StakePool.sol",
  "abi": [
    {
      "inputs": [],
      "stateMutability": "nonpayable",
      "type": "constructor"
    },
    {
      "inputs": [],
      "name": "BNBTransferToUserFailed",
      "type": "error"
    },
    {
      "inputs": [],
      "name": "CantClaimBeforeDeadline",
      "type": "error"
    },
    {
      "inputs": [
        {
          "internalType": "uint256",
          "name": "dust",
          "type": "uint256"
        }
      ],
      "name": "DustNotAllowed",
      "type": "error"
    },
    {
      "inputs": [
        {
          "internalType": "uint256",
          "name": "index",
          "type": "uint256"
        }
      ],
      "name": "IndexOutOfBounds",
      "type": "error"
    },
    {
      "inputs": [],
      "name": "InsufficientClaimReserve",
      "type": "error"
    },
    {
      "inputs": [],
      "name": "InsufficientFundsToSatisfyClaim",
      "type": "error"
    },
    {
      "inputs": [
        {
          "internalType": "string",
          "name": "tag",
          "type": "string"
        },
        {
          "internalType": "uint256",
          "name": "expected",
          "type": "uint256"
        },
        {
          "internalType": "uint256",
          "name": "got",
          "type": "uint256"
        }
      ],
      "name": "LessThanMinimum",
      "type": "error"
    },
    {
      "inputs": [],
      "name": "MinCrossChainTransferMustBeGreaterThanZero",
      "type": "error"
    },
    {
      "inputs": [],
      "name": "NumeratorMoreThanBasis",
      "type": "error"
    },
    {
      "inputs": [],
      "name": "PausableNotPaused",
      "type": "error"
    },
    {
      "inputs": [],
      "name": "PausablePaused",
      "type": "error"
    },
    {
      "inputs": [],
      "name": "ReentrancyGuardReentrantCall",
      "type": "error"
    },
    {
      "inputs": [
        {
          "internalType": "uint256",
          "name": "from",
          "type": "uint256"
        },
        {
          "internalType": "uint256",
          "name": "to",
          "type": "uint256"
        }
      ],
      "name": "ToIndexMustBeGreaterThanFromIndex",
      "type": "error"
    },
    {
      "inputs": [],
      "name": "TokenMintingToSelfNotAllowed",
      "type": "error"
    },
    {
      "inputs": [],
      "name": "TokenTransferToSelfNotAllowed",
      "type": "error"
    },
    {
      "inputs": [
        {
          "internalType": "address",
          "name": "to",
          "type": "address"
        }
      ],
      "name": "UnexpectedlyReceivedTokensForSomeoneElse",
      "type": "error"
    },
    {
      "inputs": [],
      "name": "UnknownSender",
      "type": "error"
    },
    {
      "anonymous": false,
      "inputs": [
        {
          "indexed": true,
          "internalType": "address",
          "name": "user",
          "type": "address"
        },
        {
          "components": [
            {
              "internalType": "uint256",
              "name": "weiToReturn",
              "type": "uint256"
            },
            {
              "internalType": "uint256",
              "name": "createdAt",
              "type": "uint256"
            }
          ],
          "indexed": false,
          "internalType": "struct StakePool.ClaimRequest",
          "name": "req",
          "type": "tuple"
        },
        {
          "indexed": false,
          "internalType": "uint256",
          "name": "timestamp",
          "type": "uint256"
        }
      ],
      "name": "Claim",
      "type": "event"
    },
    {
      "anonymous": false,
      "inputs": [],
      "name": "ConfigUpdated",
      "type": "event"
    },
    {
      "anonymous": false,
      "inputs": [
        {
          "indexed": true,
          "internalType": "address",
          "name": "user",
          "type": "address"
        },
        {
          "indexed": false,
          "internalType": "uint256",
          "name": "bnbAmount",
          "type": "uint256"
        },
        {
          "indexed": false,
          "internalType": "uint256",
          "name": "poolTokenAmount",
          "type": "uint256"
        },
        {
          "indexed": false,
          "internalType": "uint256",
          "name": "timestamp",
          "type": "uint256"
        }
      ],
      "name": "Deposit",
      "type": "event"
    },
    {
      "anonymous": false,
      "inputs": [
        {
          "indexed": false,
          "internalType": "uint256",
          "name": "bnbRewards",
          "type": "uint256"
        },
        {
          "indexed": false,
          "internalType": "uint256",
          "name": "feeTokens",
          "type": "uint256"
        }
      ],
      "name": "EpochUpdate",
      "type": "event"
    },
    {
      "anonymous": false,
      "inputs": [
        {
          "indexed": false,
          "internalType": "uint8",
          "name": "version",
          "type": "uint8"
        }
      ],
      "name": "Initialized",
      "type": "event"
    },
    {
      "anonymous": false,
      "inputs": [
        {
          "indexed": false,
          "internalType": "uint256",
          "name": "shortCircuitAmount",
          "type": "uint256"
        }
      ],
      "name": "InitiateDelegation_ShortCircuit",
      "type": "event"
    },
    {
      "anonymous": false,
      "inputs": [
        {
          "indexed": false,
          "internalType": "uint256",
          "name": "transferOutAmount",
          "type": "uint256"
        }
      ],
      "name": "InitiateDelegation_TransferOut",
      "type": "event"
    },
    {
      "anonymous": false,
      "inputs": [
        {
          "indexed": false,
          "internalType": "address",
          "name": "account",
          "type": "address"
        }
      ],
      "name": "Paused",
      "type": "event"
    },
    {
      "anonymous": false,
      "inputs": [
        {
          "indexed": true,
          "internalType": "bytes32",
          "name": "role",
          "type": "bytes32"
        },
        {
          "indexed": true,
          "internalType": "bytes32",
          "name": "previousAdminRole",
          "type": "bytes32"
        },
        {
          "indexed": true,
          "internalType": "bytes32",
          "name": "newAdminRole",
          "type": "bytes32"
        }
      ],
      "name": "RoleAdminChanged",
      "type": "event"
    },
    {
      "anonymous": false,
      "inputs": [
        {
          "indexed": true,
          "internalType": "bytes32",
          "name": "role",
          "type": "bytes32"
        },
        {
          "indexed": true,
          "internalType": "address",
          "name": "account",
          "type": "address"
        },
        {
          "indexed": true,
          "internalType": "address",
          "name": "sender",
          "type": "address"
        }
      ],
      "name": "RoleGranted",
      "type": "event"
    },
    {
      "anonymous": false,
      "inputs": [
        {
          "indexed": true,
          "internalType": "bytes32",
          "name": "role",
          "type": "bytes32"
        },
        {
          "indexed": true,
          "internalType": "address",
          "name": "account",
          "type": "address"
        },
        {
          "indexed": true,
          "internalType": "address",
          "name": "sender",
          "type": "address"
        }
      ],
      "name": "RoleRevoked",
      "type": "event"
    },
    {
      "anonymous": false,
      "inputs": [
        {
          "indexed": false,
          "internalType": "uint256",
          "name": "unbondedAmount",
          "type": "uint256"
        }
      ],
      "name": "UnbondingFinished",
      "type": "event"
    },
    {
      "anonymous": false,
      "inputs": [
        {
          "indexed": false,
          "internalType": "uint256",
          "name": "bnbUnbonding",
          "type": "uint256"
        }
      ],
      "name": "UnbondingInitiated",
      "type": "event"
    },
    {
      "anonymous": false,
      "inputs": [
        {
          "indexed": false,
          "internalType": "address",
          "name": "account",
          "type": "address"
        }
      ],
      "name": "Unpaused",
      "type": "event"
    },
    {
      "anonymous": false,
      "inputs": [
        {
          "indexed": true,
          "internalType": "address",
          "name": "user",
          "type": "address"
        },
        {
          "indexed": false,
          "internalType": "uint256",
          "name": "poolTokenAmount",
          "type": "uint256"
        },
        {
          "indexed": false,
          "internalType": "uint256",
          "name": "bnbAmount",
          "type": "uint256"
        },
        {
          "indexed": false,
          "internalType": "uint256",
          "name": "timestamp",
          "type": "uint256"
        }
      ],
      "name": "Withdraw",
      "type": "event"
    },
    {
      "inputs": [],
      "name": "BOT_ROLE",
      "outputs": [
        {
          "internalType": "bytes32",
          "name": "",
          "type": "bytes32"
        }
      ],
      "stateMutability": "view",
      "type": "function"
    },
    {
      "inputs": [],
      "name": "DEFAULT_ADMIN_ROLE",
      "outputs": [
        {
          "internalType": "bytes32",
          "name": "",
          "type": "bytes32"
        }
      ],
      "stateMutability": "view",
      "type": "function"
    },
    {
      "inputs": [],
      "name": "addressStore",
      "outputs": [
        {
          "internalType": "contract IAddressStore",
          "name": "",
          "type": "address"
        }
      ],
      "stateMutability": "view",
      "type": "function"
    },
    {
      "inputs": [],
      "name": "bnbToUnbond",
      "outputs": [
        {
          "internalType": "int256",
          "name": "",
          "type": "int256"
        }
      ],
      "stateMutability": "view",
      "type": "function"
    },
    {
      "inputs": [],
      "name": "bnbUnbonding",
      "outputs": [
        {
          "internalType": "uint256",
          "name": "",
          "type": "uint256"
        }
      ],
      "stateMutability": "view",
      "type": "function"
    },
    {
      "inputs": [
        {
          "internalType": "uint256",
          "name": "index",
          "type": "uint256"
        }
      ],
      "name": "claim",
      "outputs": [],
      "stateMutability": "nonpayable",
      "type": "function"
    },
    {
      "inputs": [],
      "name": "claimAll",
      "outputs": [],
      "stateMutability": "nonpayable",
      "type": "function"
    },
    {
      "inputs": [
        {
          "internalType": "address",
          "name": "",
          "type": "address"
        },
        {
          "internalType": "uint256",
          "name": "",
          "type": "uint256"
        }
      ],
      "name": "claimReqs",
      "outputs": [
        {
          "internalType": "uint256",
          "name": "weiToReturn",
          "type": "uint256"
        },
        {
          "internalType": "uint256",
          "name": "createdAt",
          "type": "uint256"
        }
      ],
      "stateMutability": "view",
      "type": "function"
    },
    {
      "inputs": [],
      "name": "claimReserve",
      "outputs": [
        {
          "internalType": "uint256",
          "name": "",
          "type": "uint256"
        }
      ],
      "stateMutability": "view",
      "type": "function"
    },
    {
      "inputs": [],
      "name": "config",
      "outputs": [
        {
          "internalType": "address",
          "name": "bcStakingWallet",
          "type": "address"
        },
        {
          "internalType": "uint256",
          "name": "minCrossChainTransfer",
          "type": "uint256"
        },
        {
          "internalType": "uint256",
          "name": "minBNBDeposit",
          "type": "uint256"
        },
        {
          "internalType": "uint256",
          "name": "minTokenWithdrawal",
          "type": "uint256"
        },
        {
          "internalType": "uint256",
          "name": "cooldownPeriod",
          "type": "uint256"
        },
        {
          "components": [
            {
              "internalType": "uint256",
              "name": "reward",
              "type": "uint256"
            },
            {
              "internalType": "uint256",
              "name": "deposit",
              "type": "uint256"
            },
            {
              "internalType": "uint256",
              "name": "withdraw",
              "type": "uint256"
            }
          ],
          "internalType": "struct FeeDistribution.Data",
          "name": "fee",
          "type": "tuple"
        }
      ],
      "stateMutability": "view",
      "type": "function"
    },
    {
      "inputs": [],
      "name": "deposit",
      "outputs": [],
      "stateMutability": "payable",
      "type": "function"
    },
    {
      "inputs": [
        {
          "internalType": "uint256",
          "name": "bnbRewards",
          "type": "uint256"
        }
      ],
      "name": "epochUpdate",
      "outputs": [],
      "stateMutability": "nonpayable",
      "type": "function"
    },
    {
      "inputs": [],
      "name": "exchangeRate",
      "outputs": [
        {
          "internalType": "uint256",
          "name": "totalWei",
          "type": "uint256"
        },
        {
          "internalType": "uint256",
          "name": "poolTokenSupply",
          "type": "uint256"
        }
      ],
      "stateMutability": "view",
      "type": "function"
    },
    {
      "inputs": [
        {
          "internalType": "address",
          "name": "user",
          "type": "address"
        }
      ],
      "name": "getClaimRequestCount",
      "outputs": [
        {
          "internalType": "uint256",
          "name": "",
          "type": "uint256"
        }
      ],
      "stateMutability": "view",
      "type": "function"
    },
    {
      "inputs": [
        {
          "internalType": "address",
          "name": "user",
          "type": "address"
        },
        {
          "internalType": "uint256",
          "name": "from",
          "type": "uint256"
        },
        {
          "internalType": "uint256",
          "name": "to",
          "type": "uint256"
        }
      ],
      "name": "getPaginatedClaimRequests",
      "outputs": [
        {
          "components": [
            {
              "internalType": "uint256",
              "name": "weiToReturn",
              "type": "uint256"
            },
            {
              "internalType": "uint256",
              "name": "createdAt",
              "type": "uint256"
            }
          ],
          "internalType": "struct StakePool.ClaimRequest[]",
          "name": "",
          "type": "tuple[]"
        }
      ],
      "stateMutability": "view",
      "type": "function"
    },
    {
      "inputs": [
        {
          "internalType": "bytes32",
          "name": "role",
          "type": "bytes32"
        }
      ],
      "name": "getRoleAdmin",
      "outputs": [
        {
          "internalType": "bytes32",
          "name": "",
          "type": "bytes32"
        }
      ],
      "stateMutability": "view",
      "type": "function"
    },
    {
      "inputs": [
        {
          "internalType": "bytes32",
          "name": "role",
          "type": "bytes32"
        },
        {
          "internalType": "uint256",
          "name": "index",
          "type": "uint256"
        }
      ],
      "name": "getRoleMember",
      "outputs": [
        {
          "internalType": "address",
          "name": "",
          "type": "address"
        }
      ],
      "stateMutability": "view",
      "type": "function"
    },
    {
      "inputs": [
        {
          "internalType": "bytes32",
          "name": "role",
          "type": "bytes32"
        }
      ],
      "name": "getRoleMemberCount",
      "outputs": [
        {
          "internalType": "uint256",
          "name": "",
          "type": "uint256"
        }
      ],
      "stateMutability": "view",
      "type": "function"
    },
    {
      "inputs": [
        {
          "internalType": "bytes32",
          "name": "role",
          "type": "bytes32"
        },
        {
          "internalType": "address",
          "name": "account",
          "type": "address"
        }
      ],
      "name": "grantRole",
      "outputs": [],
      "stateMutability": "nonpayable",
      "type": "function"
    },
    {
      "inputs": [
        {
          "internalType": "bytes32",
          "name": "role",
          "type": "bytes32"
        },
        {
          "internalType": "address",
          "name": "account",
          "type": "address"
        }
      ],
      "name": "hasRole",
      "outputs": [
        {
          "internalType": "bool",
          "name": "",
          "type": "bool"
        }
      ],
      "stateMutability": "view",
      "type": "function"
    },
    {
      "inputs": [
        {
          "internalType": "contract IAddressStore",
          "name": "addressStore_",
          "type": "address"
        },
        {
          "components": [
            {
              "internalType": "address",
              "name": "bcStakingWallet",
              "type": "address"
            },
            {
              "internalType": "uint256",
              "name": "minCrossChainTransfer",
              "type": "uint256"
            },
            {
              "internalType": "uint256",
              "name": "minBNBDeposit",
              "type": "uint256"
            },
            {
              "internalType": "uint256",
              "name": "minTokenWithdrawal",
              "type": "uint256"
            },
            {
              "internalType": "uint256",
              "name": "cooldownPeriod",
              "type": "uint256"
            },
            {
              "components": [
                {
                  "internalType": "uint256",
                  "name": "reward",
                  "type": "uint256"
                },
                {
                  "internalType": "uint256",
                  "name": "deposit",
                  "type": "uint256"
                },
                {
                  "internalType": "uint256",
                  "name": "withdraw",
                  "type": "uint256"
                }
              ],
              "internalType": "struct FeeDistribution.Data",
              "name": "fee",
              "type": "tuple"
            }
          ],
          "internalType": "struct Config.Data",
          "name": "config_",
          "type": "tuple"
        }
      ],
      "name": "initialize",
      "outputs": [],
      "stateMutability": "nonpayable",
      "type": "function"
    },
    {
      "inputs": [],
      "name": "initiateDelegation",
      "outputs": [],
      "stateMutability": "nonpayable",
      "type": "function"
    },
    {
      "inputs": [],
      "name": "pause",
      "outputs": [],
      "stateMutability": "nonpayable",
      "type": "function"
    },
    {
      "inputs": [],
      "name": "paused",
      "outputs": [
        {
          "internalType": "bool",
          "name": "",
          "type": "bool"
        }
      ],
      "stateMutability": "view",
      "type": "function"
    },
    {
      "inputs": [
        {
          "internalType": "bytes32",
          "name": "role",
          "type": "bytes32"
        },
        {
          "internalType": "address",
          "name": "account",
          "type": "address"
        }
      ],
      "name": "renounceRole",
      "outputs": [],
      "stateMutability": "nonpayable",
      "type": "function"
    },
    {
      "inputs": [
        {
          "internalType": "bytes32",
          "name": "role",
          "type": "bytes32"
        },
        {
          "internalType": "address",
          "name": "account",
          "type": "address"
        }
      ],
      "name": "revokeRole",
      "outputs": [],
      "stateMutability": "nonpayable",
      "type": "function"
    },
    {
      "inputs": [
        {
          "internalType": "bytes4",
          "name": "interfaceId",
          "type": "bytes4"
        }
      ],
      "name": "supportsInterface",
      "outputs": [
        {
          "internalType": "bool",
          "name": "",
          "type": "bool"
        }
      ],
      "stateMutability": "view",
      "type": "function"
    },
    {
      "inputs": [
        {
          "internalType": "address",
          "name": "",
          "type": "address"
        },
        {
          "internalType": "address",
          "name": "from",
          "type": "address"
        },
        {
          "internalType": "address",
          "name": "to",
          "type": "address"
        },
        {
          "internalType": "uint256",
          "name": "amount",
          "type": "uint256"
        },
        {
          "internalType": "bytes",
          "name": "",
          "type": "bytes"
        },
        {
          "internalType": "bytes",
          "name": "",
          "type": "bytes"
        }
      ],
      "name": "tokensReceived",
      "outputs": [],
      "stateMutability": "nonpayable",
      "type": "function"
    },
    {
      "inputs": [],
      "name": "unbondingFinished",
      "outputs": [],
      "stateMutability": "nonpayable",
      "type": "function"
    },
    {
      "inputs": [
        {
          "internalType": "uint256",
          "name": "bnbUnbonding_",
          "type": "uint256"
        }
      ],
      "name": "unbondingInitiated",
      "outputs": [],
      "stateMutability": "nonpayable",
      "type": "function"
    },
    {
      "inputs": [],
      "name": "unpause",
      "outputs": [],
      "stateMutability": "nonpayable",
      "type": "function"
    },
    {
      "inputs": [
        {
          "components": [
            {
              "internalType": "address",
              "name": "bcStakingWallet",
              "type": "address"
            },
            {
              "internalType": "uint256",
              "name": "minCrossChainTransfer",
              "type": "uint256"
            },
            {
              "internalType": "uint256",
              "name": "minBNBDeposit",
              "type": "uint256"
            },
            {
              "internalType": "uint256",
              "name": "minTokenWithdrawal",
              "type": "uint256"
            },
            {
              "internalType": "uint256",
              "name": "cooldownPeriod",
              "type": "uint256"
            },
            {
              "components": [
                {
                  "internalType": "uint256",
                  "name": "reward",
                  "type": "uint256"
                },
                {
                  "internalType": "uint256",
                  "name": "deposit",
                  "type": "uint256"
                },
                {
                  "internalType": "uint256",
                  "name": "withdraw",
                  "type": "uint256"
                }
              ],
              "internalType": "struct FeeDistribution.Data",
              "name": "fee",
              "type": "tuple"
            }
          ],
          "internalType": "struct Config.Data",
          "name": "config_",
          "type": "tuple"
        }
      ],
      "name": "updateConfig",
      "outputs": [],
      "stateMutability": "nonpayable",
      "type": "function"
    },
    {
      "stateMutability": "payable",
      "type": "receive"
    }
  ],
  "bytecode": "0x60806040523480156200001157600080fd5b506200001c62000022565b620000e4565b600054610100900460ff16156200008f5760405162461bcd60e51b815260206004820152602760248201527f496e697469616c697a61626c653a20636f6e747261637420697320696e697469604482015266616c697a696e6760c81b606482015260840160405180910390fd5b60005460ff9081161015620000e2576000805460ff191660ff9081179091556040519081527f7f26b83ff96e1f2b6a682f133852f6798a09c465da95921460cefb38474024989060200160405180910390a15b565b612e4380620000f46000396000f3fe6080604052600436106101e65760003560e01c806379502c5511610102578063b150377411610095578063d1058e5911610064578063d1058e59146106c2578063d547741f146106d7578063f773d87d146106f7578063fa6c2f7d1461071757600080fd5b8063b15037741461065a578063c773c8f71461067c578063ca15c8731461069a578063d0e30db0146106ba57600080fd5b80639010d07c116100d15780639010d07c146105cd57806391d14854146106055780639c0cced114610625578063a217fddf1461064557600080fd5b806379502c55146104c25780638456cb59146105625780638b2bf29f146105775780638be780831461059757600080fd5b80633f4ba83a1161017a5780635d97914c116101495780635d97914c1461044b5780636eb959401461046057806372bd5c941461047557806375ccc37a1461049557600080fd5b80633f4ba83a146103f45780633fe5f0541461040957806354cc6d9d1461041e5780635c975abb1461043357600080fd5b80632ff761d8116101b65780632ff761d81461036457806336568abe14610384578063379607f5146103a45780633ba0b9a9146103c457600080fd5b806223de29146102b157806301ffc9a7146102d1578063248a9ca3146103065780632f2ff15d1461034457600080fd5b366102ac576101f361072c565b60c960009054906101000a90046001600160a01b03166001600160a01b03166388d1161d6040518163ffffffff1660e01b815260040160206040518083038186803b15801561024157600080fd5b505afa158015610255573d6000803e3d6000fd5b505050506040513d601f19601f8201168201806040525081019061027991906127fc565b6001600160a01b0316336001600160a01b0316146102aa5760405163399a77fd60e01b815260040160405180910390fd5b005b600080fd5b3480156102bd57600080fd5b506102aa6102cc366004612819565b610752565b3480156102dd57600080fd5b506102f16102ec3660046129b8565b6108f4565b60405190151581526020015b60405180910390f35b34801561031257600080fd5b5061033661032136600461294d565b60009081526065602052604090206001015490565b6040519081526020016102fd565b34801561035057600080fd5b506102aa61035f366004612966565b61091f565b34801561037057600080fd5b506102aa61037f3660046129e2565b610949565b34801561039057600080fd5b506102aa61039f366004612966565b610a5d565b3480156103b057600080fd5b506102aa6103bf36600461294d565b610adb565b3480156103d057600080fd5b5060d75460d8546103df919082565b604080519283526020830191909152016102fd565b34801561040057600080fd5b506102aa610b1e565b34801561041557600080fd5b5060d654610336565b34801561042a57600080fd5b506102aa610b72565b34801561043f57600080fd5b5060d25460ff166102f1565b34801561045757600080fd5b5060d454610336565b34801561046c57600080fd5b5060d554610336565b34801561048157600080fd5b506102aa61049036600461294d565b610ceb565b3480156104a157600080fd5b506104b56104b03660046128f6565b610f2a565b6040516102fd9190612b26565b3480156104ce57600080fd5b5060ca5460cb5460cc5460cd5460ce546040805160608101825260cf54815260d054602082015260d15491810191909152610514956001600160a01b0316949392919086565b604080516001600160a01b0390971687526020808801969096528681019490945260608601929092526080850152805160a08501529182015160c0840152015160e0820152610100016102fd565b34801561056e57600080fd5b506102aa6110e4565b34801561058357600080fd5b506102aa61059236600461294d565b611134565b3480156105a357600080fd5b506103366105b23660046127df565b6001600160a01b0316600090815260d9602052604090205490565b3480156105d957600080fd5b506105ed6105e8366004612996565b6111bc565b6040516001600160a01b0390911681526020016102fd565b34801561061157600080fd5b506102f1610620366004612966565b6111db565b34801561063157600080fd5b506102aa610640366004612a19565b611206565b34801561065157600080fd5b50610336600081565b34801561066657600080fd5b50610336600080516020612dee83398151915281565b34801561068857600080fd5b5060c9546001600160a01b03166105ed565b3480156106a657600080fd5b506103366106b536600461294d565b611249565b6102aa611260565b3480156106ce57600080fd5b506102aa61151c565b3480156106e357600080fd5b506102aa6106f2366004612966565b611580565b34801561070357600080fd5b506103df6107123660046128ca565b6115a5565b34801561072357600080fd5b506102aa6115e1565b60d25460ff16156107505760405163928dfa7760e01b815260040160405180910390fd5b565b61075a61072c565b61076261183b565b60408051808201909152600a81526915da5d1a191c985dd85b60b21b602082015260cd5486610792838383611866565b60c960009054906101000a90046001600160a01b03166001600160a01b031663e016dedc6040518163ffffffff1660e01b815260040160206040518083038186803b1580156107e057600080fd5b505afa1580156107f4573d6000803e3d6000fd5b505050506040513d601f19601f8201168201806040525081019061081891906127fc565b6001600160a01b0316336001600160a01b0316146108495760405163399a77fd60e01b815260040160405180910390fd5b6001600160a01b038a166108705760405163eb577da760e01b815260040160405180910390fd5b6001600160a01b038a1630141561089a576040516315bddb7b60e01b815260040160405180910390fd5b6001600160a01b03891630146108d3576040516338a5c37560e01b81526001600160a01b038a1660048201526024015b60405180910390fd5b6108dd8a896118c3565b5050506108ea600160d355565b5050505050505050565b60006001600160e01b03198216635a05180f60e01b1480610919575061091982611bcc565b92915050565b60008281526065602052604090206001015461093a81611c01565b6109448383611c0b565b505050565b600054610100900460ff16158080156109695750600054600160ff909116105b806109835750303b158015610983575060005460ff166001145b6109e65760405162461bcd60e51b815260206004820152602e60248201527f496e697469616c697a61626c653a20636f6e747261637420697320616c72656160448201526d191e481a5b9a5d1a585b1a5e995960921b60648201526084016108ca565b6000805460ff191660011790558015610a09576000805461ff0019166101001790555b610a138383611c2d565b8015610944576000805461ff0019169055604051600181527f7f26b83ff96e1f2b6a682f133852f6798a09c465da95921460cefb38474024989060200160405180910390a1505050565b6001600160a01b0381163314610acd5760405162461bcd60e51b815260206004820152602f60248201527f416363657373436f6e74726f6c3a2063616e206f6e6c792072656e6f756e636560448201526e103937b632b9903337b91039b2b63360891b60648201526084016108ca565b610ad78282611c5e565b5050565b610ae361072c565b610aeb61183b565b610af481611c80565b610b1157604051637e868a7360e01b815260040160405180910390fd5b610b1b600160d355565b50565b6000610b2981611c01565b610b31611efe565b60d2805460ff191690556040513381527f5db9ee0a495bf2e6ff9c91a7834c1ba4fdd244a5e8aa4e537bd38aeae4b073aa906020015b60405180910390a150565b610b7a61072c565b600080516020612dee833981519152610b9281611c01565b60c954604080516388d1161d60e01b815290516000926001600160a01b0316916388d1161d916004808301926020929190829003018186803b158015610bd757600080fd5b505afa158015610beb573d6000803e3d6000fd5b505050506040513d601f19601f82011682018060405250810190610c0f91906127fc565b6001600160a01b03166347066d026040518163ffffffff1660e01b8152600401602060405180830381600087803b158015610c4957600080fd5b505af1158015610c5d573d6000803e3d6000fd5b505050506040513d601f19601f82011682018060405250810190610c819190612a36565b90508060d56000828254610c959190612ccb565b925050819055508060d66000828254610cae9190612c41565b90915550506040518181527f31690952e66f4ee8423e3087dcbc0687ddee8d263986b865229aee4ebdbafea5906020015b60405180910390a15050565b610cf361072c565b600080516020612dee833981519152610d0b81611c01565b60cf54600090610d1b9084611f20565b90506000818460d760000154610d319190612c41565b610d3b9190612ccb565b60d854610d489084612c6d565b610d529190612c59565b9050610d7f604051806040016040528086815260200183815250600060d7611f3c9092919063ffffffff16565b60c960009054906101000a90046001600160a01b03166001600160a01b031663e016dedc6040518163ffffffff1660e01b815260040160206040518083038186803b158015610dcd57600080fd5b505afa158015610de1573d6000803e3d6000fd5b505050506040513d601f19601f82011682018060405250810190610e0591906127fc565b6001600160a01b031663dcdc7dd060c960009054906101000a90046001600160a01b03166001600160a01b031663ec0f7cf06040518163ffffffff1660e01b815260040160206040518083038186803b158015610e6157600080fd5b505afa158015610e75573d6000803e3d6000fd5b505050506040513d601f19601f82011682018060405250810190610e9991906127fc565b836040518363ffffffff1660e01b8152600401610eb7929190612af0565b600060405180830381600087803b158015610ed157600080fd5b505af1158015610ee5573d6000803e3d6000fd5b505060408051878152602081018590527fcb62e14f4587604f4099c842d98789e47ebdd0ccbf6fd86a0581aa337a602eb193500190505b60405180910390a150505050565b6001600160a01b038316600090815260d960205260409020546060908310610f685760405163112517f360e21b8152600481018490526024016108ca565b818310610f9257604051630dfc263960e01b815260048101849052602481018390526044016108ca565b6001600160a01b038416600090815260d96020526040902054821115610fce576001600160a01b038416600090815260d9602052604090205491505b6000610fda8484612ccb565b67ffffffffffffffff811115610ff257610ff2612dc2565b60405190808252806020026020018201604052801561103757816020015b60408051808201909152600080825260208201528152602001906001900390816110105790505b50905060005b6110478585612ccb565b8110156110db576001600160a01b038616600090815260d9602052604090206110708287612c41565b8154811061108057611080612dac565b9060005260206000209060020201604051806040016040529081600082015481526020016001820154815250508282815181106110bf576110bf612dac565b6020026020010181905250806110d490612d25565b905061103d565b50949350505050565b60006110ef81611c01565b6110f761072c565b60d2805460ff191660011790556040513381527f62e78cea01bee320cd4e420270b5ea74000d11b0c9f74754ebdbfc544b05a25890602001610b67565b61113c61072c565b600080516020612dee83398151915261115481611c01565b61115d82611fcf565b60d4600082825461116e9190612c8c565b925050819055508160d560008282546111879190612c41565b90915550506040518281527ffcfebef86ea31f185fe5d81c5fe96ba3835d0e293f58bb5d33907c3c1522ba8790602001610cdf565b60008281526097602052604081206111d4908361203d565b9392505050565b60009182526065602090815260408084206001600160a01b0393909316845291905290205460ff1690565b600061121181611c01565b61121c60ca83612049565b6040517ffe891c6ab12cf73707f8deb6600c12ba382e4cc31eb2b0a2754cad13075ed2d190600090a15050565b60008181526097602052604081206109199061205c565b61126861072c565b61127061183b565b60408051808201909152600781526611195c1bdcda5d60ca1b602082015260cc543461129d838383611866565b3460006112ab60d783612066565b60d0549091506000906112be9083611f20565b905060006112cc8284612ccb565b90506112f9604051806040016040528086815260200185815250600060d7611f3c9092919063ffffffff16565b60c95460408051633805b7b760e21b815290516000926001600160a01b03169163e016dedc916004808301926020929190829003018186803b15801561133e57600080fd5b505afa158015611352573d6000803e3d6000fd5b505050506040513d601f19601f8201168201806040525081019061137691906127fc565b604051630dcdc7dd60e41b81529091506001600160a01b0382169063dcdc7dd0906113a79033908690600401612af0565b600060405180830381600087803b1580156113c157600080fd5b505af11580156113d5573d6000803e3d6000fd5b5050505060008311156114c857806001600160a01b031663dcdc7dd060c960009054906101000a90046001600160a01b03166001600160a01b031663ec0f7cf06040518163ffffffff1660e01b815260040160206040518083038186803b15801561143f57600080fd5b505afa158015611453573d6000803e3d6000fd5b505050506040513d601f19601f8201168201806040525081019061147791906127fc565b856040518363ffffffff1660e01b8152600401611495929190612af0565b600060405180830381600087803b1580156114af57600080fd5b505af11580156114c3573d6000803e3d6000fd5b505050505b60408051348152602081018490524281830152905133917f36af321ec8d3c75236829c5317affd40ddb308863a1236d2d277a4025cccee1e919081900360600190a25050505050505050610750600160d355565b61152461072c565b61152c61183b565b33600090815260d96020526040812054905b818110156115745761154f81611c80565b156115645761155d82612d0e565b915061153e565b61156d81612d25565b905061153e565b5050610750600160d355565b60008281526065602052604090206001015461159b81611c01565b6109448383611c5e565b60d960205281600052604060002081815481106115c157600080fd5b600091825260209091206002909102018054600190910154909250905082565b6115e961072c565b600080516020612dee83398151915261160181611c01565b600060d654476116119190612ccb565b905060006110046001600160a01b031663149d14d96040518163ffffffff1660e01b815260040160206040518083038186803b15801561165057600080fd5b505afa158015611664573d6000803e3d6000fd5b505050506040513d601f19601f820116820180604052508101906116889190612a36565b60cb549091506116989082612c41565b821061179c5760006116aa8284612ccb565b60ca549091506110049063aa7415f59085906000906001600160a01b0316856116d542610e10612c41565b6040516001600160e01b031960e088901b1681526001600160a01b039485166004820152939092166024840152604483015267ffffffffffffffff1660648201526084016020604051808303818588803b15801561173257600080fd5b505af1158015611746573d6000803e3d6000fd5b50505050506040513d601f19601f8201168201806040525081019061176b919061292b565b506040518181527f12ba36faeb29044a46a4f5a2b0a55480ca8c22bd52e1bad4f913cd1c6a2811fa90602001610f1c565b6000821180156117ae5750600060d454135b156109445760006117be83611fcf565b60d45413156117ce5750816117d3565b5060d4545b6117dc81611fcf565b60d460008282546117ed9190612c8c565b925050819055508060d660008282546118069190612c41565b90915550506040518181527f398a2b33a17101f76ac0227b1c277b01d5ce921579fc0ebcc8a10083ba53fcd190602001610f1c565b600260d354141561185f57604051633ee5aeb560e01b815260040160405180910390fd5b600260d355565b8181101561188d57828282604051631a14281160e01b81526004016108ca93929190612b90565b60006118998383612d40565b905080156118bd57604051634301c31b60e01b8152600481018290526024016108ca565b50505050565b60d1546000906118d39083611f20565b905060006118e18284612ccb565b905060006118f060d783612096565b6001600160a01b038616600090815260d96020908152604080832081518083019092528482524282840190815281546001818101845592865293909420915160029093029091019182559151910155905061194a81611fcf565b60d4600082825461195b9190612c00565b909155505060408051808201909152818152602081018390526119829060d7906001611f3c565b60c95460408051633805b7b760e21b815290516000926001600160a01b03169163e016dedc916004808301926020929190829003018186803b1580156119c757600080fd5b505afa1580156119db573d6000803e3d6000fd5b505050506040513d601f19601f820116820180604052508101906119ff91906127fc565b6040805163fe9d930360e01b8152600481018690526024810191909152600060448201529091506001600160a01b0382169063fe9d930390606401600060405180830381600087803b158015611a5457600080fd5b505af1158015611a68573d6000803e3d6000fd5b505050506000841115611b7957806001600160a01b0316639bd9bbc660c960009054906101000a90046001600160a01b03166001600160a01b031663ec0f7cf06040518163ffffffff1660e01b815260040160206040518083038186803b158015611ad257600080fd5b505afa158015611ae6573d6000803e3d6000fd5b505050506040513d601f19601f82011682018060405250810190611b0a91906127fc565b6040516001600160e01b031960e084901b1681526001600160a01b039091166004820152602481018790526060604482015260006064820152608401600060405180830381600087803b158015611b6057600080fd5b505af1158015611b74573d6000803e3d6000fd5b505050505b6040805186815260208101849052428183015290516001600160a01b038816917f02f25270a4d87bea75db541cdfe559334a275b4a233520ed6c0a2429667cca94919081900360600190a2505050505050565b60006001600160e01b03198216637965db0b60e01b148061091957506301ffc9a760e01b6001600160e01b0319831614610919565b610b1b81336120de565b611c158282612142565b600082815260976020526040902061094490826121c8565b600054610100900460ff16611c545760405162461bcd60e51b81526004016108ca90612bb5565b610ad782826121dd565b611c6882826122f4565b6000828152609760205260409020610944908261235b565b33600090815260d960205260408120548210611cb25760405163112517f360e21b8152600481018390526024016108ca565b33600090815260d960205260408120805484908110611cd357611cd3612dac565b9060005260206000209060020201604051806040016040529081600082015481526020016001820154815250509050611d0b81612370565b611d185750600092915050565b8051471015611d3a5760405163e723ea5960e01b815260040160405180910390fd5b805160d6541015611d5e5760405163df536f6160e01b815260040160405180910390fd5b805160d68054600090611d72908490612ccb565b909155505033600090815260d9602052604090208054611d9490600190612ccb565b81548110611da457611da4612dac565b906000526020600020906002020160d96000336001600160a01b03166001600160a01b031681526020019081526020016000208481548110611de857611de8612dac565b600091825260208083208454600290930201918255600193840154939091019290925533815260d990915260409020805480611e2657611e26612d96565b60008281526020812060026000199390930192830201818155600101819055915581516040513391908381818185875af1925050503d8060008114611e87576040519150601f19603f3d011682016040523d82523d6000602084013e611e8c565b606091505b5050905080611eae5760405163243d868360e11b815260040160405180910390fd5b6040805183518152602080850151908201524281830152905133917f68b2280298dbae04fabb3ba3aec3f939aebaf17f3b57811225a496cafee6f9c6919081900360600190a25060019392505050565b60d25460ff166107505760405162c5619760e61b815260040160405180910390fd5b600064174876e800611f328484612c6d565b6111d49190612c59565b6000816001811115611f5057611f50612d80565b1415611f9357815183548490600090611f6a908490612c41565b90915550506020820151600184018054600090611f88908490612c41565b909155506109449050565b815183548490600090611fa7908490612ccb565b90915550506020820151600184018054600090611fc5908490612ccb565b9091555050505050565b60006001600160ff1b038211156120395760405162461bcd60e51b815260206004820152602860248201527f53616665436173743a2076616c756520646f65736e27742066697420696e2061604482015267371034b73a191a9b60c11b60648201526084016108ca565b5090565b60006111d4838361238c565b612052816123b6565b610ad782826123e4565b6000610919825490565b8154600090158061207957506001830154155b15612085575080610919565b82546001840154611f329084612c6d565b815460009081906120a79084612c6d565b6001850154909150808210806120bb575080155b156120cb57600092505050610919565b6120d58183612c59565b95945050505050565b6120e882826111db565b610ad757612100816001600160a01b03166014612459565b61210b836020612459565b60405160200161211c929190612a7b565b60408051601f198184030181529082905262461bcd60e51b82526108ca91600401612b7d565b61214c82826111db565b610ad75760008281526065602090815260408083206001600160a01b03851684529091529020805460ff191660011790556121843390565b6001600160a01b0316816001600160a01b0316837f2f8788117e7eff1d82e926ec794901d17c78024a50270940304540a733656f0d60405160405180910390a45050565b60006111d4836001600160a01b0384166125f5565b600054610100900460ff166122045760405162461bcd60e51b81526004016108ca90612bb5565b60c980546001600160a01b0319166001600160a01b03841617905561222a60ca82612049565b60d2805460ff1916600190811790915560d355600060d481905560d581905560d681905560d781905560d8556040516329965a1d60e01b815230600482018190527fb281fc8c12954d22544db45de3159a39272895b169a852b314f9cc762e44c53b60248301526044820152731820a4b7618bde71dce8cdc73aab6c95905fad24906329965a1d90606401600060405180830381600087803b1580156122cf57600080fd5b505af11580156122e3573d6000803e3d6000fd5b50505050610ad76000801b33611c0b565b6122fe82826111db565b15610ad75760008281526065602090815260408083206001600160a01b0385168085529252808320805460ff1916905551339285917ff6391f5c32d9c69d2a47ea670b442974b53935d1edc7fd64eb21e047a839171b9190a45050565b60006111d4836001600160a01b038416612644565b60ce54602082015160009161238491612c41565b421192915050565b60008260000182815481106123a3576123a3612dac565b9060005260206000200154905092915050565b6123c28160a001612737565b6020810135610b1b57604051630334eb0560e51b815260040160405180910390fd5b6123f160208201826127df565b82546001600160a01b0319166001600160a01b039190911617825560208101356001830155604081013560028301556060810135600383015560808101356004830155610ad76005830160a08301803582556020810135600183015560400135600290910155565b60606000612468836002612c6d565b612473906002612c41565b67ffffffffffffffff81111561248b5761248b612dc2565b6040519080825280601f01601f1916602001820160405280156124b5576020820181803683370190505b509050600360fc1b816000815181106124d0576124d0612dac565b60200101906001600160f81b031916908160001a905350600f60fb1b816001815181106124ff576124ff612dac565b60200101906001600160f81b031916908160001a9053506000612523846002612c6d565b61252e906001612c41565b90505b60018111156125a6576f181899199a1a9b1b9c1cb0b131b232b360811b85600f166010811061256257612562612dac565b1a60f81b82828151811061257857612578612dac565b60200101906001600160f81b031916908160001a90535060049490941c9361259f81612d0e565b9050612531565b5083156111d45760405162461bcd60e51b815260206004820181905260248201527f537472696e67733a20686578206c656e67746820696e73756666696369656e7460448201526064016108ca565b600081815260018301602052604081205461263c57508154600181810184556000848152602080822090930184905584548482528286019093526040902091909155610919565b506000610919565b6000818152600183016020526040812054801561272d576000612668600183612ccb565b855490915060009061267c90600190612ccb565b90508181146126e157600086600001828154811061269c5761269c612dac565b90600052602060002001549050808760000184815481106126bf576126bf612dac565b6000918252602080832090910192909255918252600188019052604090208390555b85548690806126f2576126f2612d96565b600190038181906000526020600020016000905590558560010160008681526020019081526020016000206000905560019350505050610919565b6000915050610919565b6127418135612757565b61274e8160200135612757565b610b1b81604001355b64174876e800811115610b1b5760405163c254ce4960e01b815260040160405180910390fd5b60008083601f84011261278f57600080fd5b50813567ffffffffffffffff8111156127a757600080fd5b6020830191508360208285010111156127bf57600080fd5b9250929050565b600061010082840312156127d957600080fd5b50919050565b6000602082840312156127f157600080fd5b81356111d481612dd8565b60006020828403121561280e57600080fd5b81516111d481612dd8565b60008060008060008060008060c0898b03121561283557600080fd5b883561284081612dd8565b9750602089013561285081612dd8565b9650604089013561286081612dd8565b955060608901359450608089013567ffffffffffffffff8082111561288457600080fd5b6128908c838d0161277d565b909650945060a08b01359150808211156128a957600080fd5b506128b68b828c0161277d565b999c989b5096995094979396929594505050565b600080604083850312156128dd57600080fd5b82356128e881612dd8565b946020939093013593505050565b60008060006060848603121561290b57600080fd5b833561291681612dd8565b95602085013595506040909401359392505050565b60006020828403121561293d57600080fd5b815180151581146111d457600080fd5b60006020828403121561295f57600080fd5b5035919050565b6000806040838503121561297957600080fd5b82359150602083013561298b81612dd8565b809150509250929050565b600080604083850312156129a957600080fd5b50508035926020909101359150565b6000602082840312156129ca57600080fd5b81356001600160e01b0319811681146111d457600080fd5b60008061012083850312156129f657600080fd5b8235612a0181612dd8565b9150612a1084602085016127c6565b90509250929050565b60006101008284031215612a2c57600080fd5b6111d483836127c6565b600060208284031215612a4857600080fd5b5051919050565b60008151808452612a67816020860160208601612ce2565b601f01601f19169290920160200192915050565b7f416363657373436f6e74726f6c3a206163636f756e7420000000000000000000815260008351612ab3816017850160208801612ce2565b7001034b99036b4b9b9b4b733903937b6329607d1b6017918401918201528351612ae4816028840160208801612ce2565b01602801949350505050565b6001600160a01b039290921682526020820152608060408201819052600090820181905260a06060830181905282015260c00190565b602080825282518282018190526000919060409081850190868401855b82811015612b7057612b6084835180518252602090810151910152565b9284019290850190600101612b43565b5091979650505050505050565b6020815260006111d46020830184612a4f565b606081526000612ba36060830186612a4f565b60208301949094525060400152919050565b6020808252602b908201527f496e697469616c697a61626c653a20636f6e7472616374206973206e6f74206960408201526a6e697469616c697a696e6760a81b606082015260800190565b600080821280156001600160ff1b0384900385131615612c2257612c22612d54565b600160ff1b8390038412811615612c3b57612c3b612d54565b50500190565b60008219821115612c5457612c54612d54565b500190565b600082612c6857612c68612d6a565b500490565b6000816000190483118215151615612c8757612c87612d54565b500290565b60008083128015600160ff1b850184121615612caa57612caa612d54565b6001600160ff1b0384018313811615612cc557612cc5612d54565b50500390565b600082821015612cdd57612cdd612d54565b500390565b60005b83811015612cfd578181015183820152602001612ce5565b838111156118bd5750506000910152565b600081612d1d57612d1d612d54565b506000190190565b6000600019821415612d3957612d39612d54565b5060010190565b600082612d4f57612d4f612d6a565b500690565b634e487b7160e01b600052601160045260246000fd5b634e487b7160e01b600052601260045260246000fd5b634e487b7160e01b600052602160045260246000fd5b634e487b7160e01b600052603160045260246000fd5b634e487b7160e01b600052603260045260246000fd5b634e487b7160e01b600052604160045260246000fd5b6001600160a01b0381168114610b1b57600080fdfe6d5c9827c1f410bbb61d3b2a0a34b6b30492d9a1fd38588edca7ec4562ab9c9ba26469706673582212206bb79ab3b0483a2d2283dc199bdf6c0d2fee88e0291f70a08ea39d90925fc28864736f6c63430008070033",
  "linkReferences": {},
  "deployedLinkReferences": {}
}