{
  "_format": "hh-sol-artifact-1",
  "contractName": "UndelegationHolder",
  "sourceName": "contracts/UndelegationHolder.sol",
  "abi": [
    {
      "inputs": [
        {
          "internalType": "contract IAddressStore",
          "name": "_addressStore",
          "type": "address"
        }
      ],
      "stateMutability": "nonpayable",
      "type": "constructor"
    },
    {
      "inputs": [],
      "name": "UnauthorizedSender",
      "type": "error"
    },
    {
      "anonymous": false,
      "inputs": [
        {
          "indexed": false,
          "internalType": "address",
          "name": "sender",
          "type": "address"
        },
        {
          "indexed": false,
          "internalType": "uint256",
          "name": "amount",
          "type": "uint256"
        }
      ],
      "name": "Received",
      "type": "event"
    },
    {
      "inputs": [],
      "name": "addressStore",
      "outputs": [
        {
          "internalType": "contract IAddressStore",
          "name": "",
          "type": "address"
        }
      ],
      "stateMutability": "view",
      "type": "function"
    },
    {
      "inputs": [],
      "name": "withdrawUnbondedBNB",
      "outputs": [
        {
          "internalType": "uint256",
          "name": "",
          "type": "uint256"
        }
      ],
      "stateMutability": "nonpayable",
      "type": "function"
    },
    {
      "stateMutability": "payable",
      "type": "receive"
    }
  ],
  "bytecode": "0x608060405234801561001057600080fd5b506040516102b13803806102b183398101604081905261002f91610054565b600080546001600160a01b0319166001600160a01b0392909216919091179055610084565b60006020828403121561006657600080fd5b81516001600160a01b038116811461007d57600080fd5b9392505050565b61021e806100936000396000f3fe60806040526004361061002d5760003560e01c806347066d0214610071578063c773c8f71461009957600080fd5b3661006c57604080513381523460208201527f88a5966d370b9919b20f3e2c13ff65706f196a4e32cc2c12bf57088f88525874910160405180910390a1005b600080fd5b34801561007d57600080fd5b506100866100d1565b6040519081526020015b60405180910390f35b3480156100a557600080fd5b506000546100b9906001600160a01b031681565b6040516001600160a01b039091168152602001610090565b6000805460408051633eaf3e1960e11b8152905183926001600160a01b031691637d5e7c32916004808301926020929190829003018186803b15801561011657600080fd5b505afa15801561012a573d6000803e3d6000fd5b505050506040513d601f19601f8201168201806040525081019061014e91906101b8565b9050336001600160a01b0382161461017957604051630101292160e31b815260040160405180910390fd5b60405147906001600160a01b0383169082156108fc029083906000818181858888f193505050501580156101b1573d6000803e3d6000fd5b5092915050565b6000602082840312156101ca57600080fd5b81516001600160a01b03811681146101e157600080fd5b939250505056fea264697066735822122081451c5e486a7ae7378c6260b57a9e4443b21c9da2bd2c216d0b4f98663d945f64736f6c63430008070033",
  "linkReferences": {},
  "deployedLinkReferences": {}
}